{
  "_format": "hh-sol-artifact-1",
  "contractName": "ReservApp",
  "sourceName": "contracts/ReservApp.sol",
  "abi": [
    {
      "inputs": [
        {
          "internalType": "address",
          "name": "_nft",
          "type": "address"
        }
      ],
      "stateMutability": "nonpayable",
      "type": "constructor"
    },
    {
      "anonymous": false,
      "inputs": [
        {
          "indexed": true,
          "internalType": "address",
          "name": "direction",
          "type": "address"
        },
        {
          "indexed": false,
          "internalType": "string",
          "name": "last_name",
          "type": "string"
        },
        {
          "indexed": false,
          "internalType": "string",
          "name": "first_name",
          "type": "string"
        },
        {
          "indexed": false,
          "internalType": "string",
          "name": "email",
          "type": "string"
        }
      ],
      "name": "NewPersonEvent",
      "type": "event"
    },
    {
      "anonymous": false,
      "inputs": [
        {
          "indexed": true,
          "internalType": "uint256",
          "name": "id",
          "type": "uint256"
        },
        {
          "indexed": true,
          "internalType": "uint256",
          "name": "index",
          "type": "uint256"
        },
        {
          "indexed": false,
          "internalType": "uint256",
          "name": "size",
          "type": "uint256"
        },
        {
          "indexed": false,
          "internalType": "uint256",
          "name": "price",
          "type": "uint256"
        },
        {
          "indexed": false,
          "internalType": "enum ReservApp.Category",
          "name": "category",
          "type": "uint8"
        },
        {
          "indexed": false,
          "internalType": "string",
          "name": "title",
          "type": "string"
        },
        {
          "indexed": false,
          "internalType": "string",
          "name": "description",
          "type": "string"
        },
        {
          "indexed": false,
          "internalType": "string",
          "name": "image",
          "type": "string"
        }
      ],
      "name": "NewPlaceEvent",
      "type": "event"
    },
    {
      "anonymous": false,
      "inputs": [
        {
          "indexed": true,
          "internalType": "address",
          "name": "user",
          "type": "address"
        },
        {
          "indexed": false,
          "internalType": "enum ReservApp.Category",
          "name": "category",
          "type": "uint8"
        },
        {
          "indexed": true,
          "internalType": "uint256",
          "name": "index",
          "type": "uint256"
        },
        {
          "indexed": false,
          "internalType": "string",
          "name": "name",
          "type": "string"
        },
        {
          "indexed": false,
          "internalType": "string",
          "name": "description",
          "type": "string"
        }
      ],
      "name": "NewRentEvent",
      "type": "event"
    },
    {
      "anonymous": false,
      "inputs": [
        {
          "indexed": true,
          "internalType": "address",
          "name": "previousOwner",
          "type": "address"
        },
        {
          "indexed": true,
          "internalType": "address",
          "name": "newOwner",
          "type": "address"
        }
      ],
      "name": "OwnershipTransferred",
      "type": "event"
    },
    {
      "stateMutability": "payable",
      "type": "fallback"
    },
    {
      "inputs": [],
      "name": "getMyPlaces",
      "outputs": [
        {
          "components": [
            {
              "internalType": "enum ReservApp.Category",
              "name": "category",
              "type": "uint8"
            },
            {
              "internalType": "string",
              "name": "title",
              "type": "string"
            },
            {
              "internalType": "string",
              "name": "description",
              "type": "string"
            }
          ],
          "internalType": "struct ReservApp.PlaceRent[]",
          "name": "",
          "type": "tuple[]"
        }
      ],
      "stateMutability": "view",
      "type": "function"
    },
    {
      "inputs": [],
      "name": "getPersonByAddress",
      "outputs": [
        {
          "components": [
            {
              "internalType": "string",
              "name": "first_name",
              "type": "string"
            },
            {
              "internalType": "string",
              "name": "last_name",
              "type": "string"
            },
            {
              "internalType": "string",
              "name": "email",
              "type": "string"
            }
          ],
          "internalType": "struct ReservApp.Person",
          "name": "",
          "type": "tuple"
        }
      ],
      "stateMutability": "view",
      "type": "function"
    },
    {
      "inputs": [
        {
          "internalType": "enum ReservApp.Category",
          "name": "category",
          "type": "uint8"
        }
      ],
      "name": "getPlacesByCategory",
      "outputs": [
        {
          "components": [
            {
              "internalType": "uint256",
              "name": "id",
              "type": "uint256"
            },
            {
              "internalType": "uint256",
              "name": "index",
              "type": "uint256"
            },
            {
              "internalType": "address",
              "name": "owner",
              "type": "address"
            },
            {
              "internalType": "uint256",
              "name": "size",
              "type": "uint256"
            },
            {
              "internalType": "uint256",
              "name": "price",
              "type": "uint256"
            },
            {
              "internalType": "enum ReservApp.Category",
              "name": "category",
              "type": "uint8"
            },
            {
              "internalType": "string",
              "name": "title",
              "type": "string"
            },
            {
              "internalType": "string",
              "name": "description",
              "type": "string"
            },
            {
              "internalType": "string",
              "name": "image",
              "type": "string"
            }
          ],
          "internalType": "struct ReservApp.Place[]",
          "name": "",
          "type": "tuple[]"
        }
      ],
      "stateMutability": "view",
      "type": "function"
    },
    {
      "inputs": [
        {
          "internalType": "string",
          "name": "first_name",
          "type": "string"
        },
        {
          "internalType": "string",
          "name": "last_name",
          "type": "string"
        },
        {
          "internalType": "string",
          "name": "email",
          "type": "string"
        }
      ],
      "name": "linkedPerson",
      "outputs": [],
      "stateMutability": "nonpayable",
      "type": "function"
    },
    {
      "inputs": [
        {
          "internalType": "enum ReservApp.Category",
          "name": "category",
          "type": "uint8"
        },
        {
          "internalType": "uint256",
          "name": "price",
          "type": "uint256"
        },
        {
          "internalType": "uint256",
          "name": "size",
          "type": "uint256"
        },
        {
          "internalType": "string",
          "name": "title",
          "type": "string"
        },
        {
          "internalType": "string",
          "name": "description",
          "type": "string"
        },
        {
          "internalType": "string",
          "name": "image",
          "type": "string"
        }
      ],
      "name": "newPlace",
      "outputs": [],
      "stateMutability": "payable",
      "type": "function"
    },
    {
      "inputs": [],
      "name": "owner",
      "outputs": [
        {
          "internalType": "address",
          "name": "",
          "type": "address"
        }
      ],
      "stateMutability": "view",
      "type": "function"
    },
    {
      "inputs": [],
      "name": "renounceOwnership",
      "outputs": [],
      "stateMutability": "nonpayable",
      "type": "function"
    },
    {
      "inputs": [
        {
          "internalType": "enum ReservApp.Category",
          "name": "category",
          "type": "uint8"
        },
        {
          "internalType": "uint256",
          "name": "index",
          "type": "uint256"
        }
      ],
      "name": "rentPlace",
      "outputs": [],
      "stateMutability": "payable",
      "type": "function"
    },
    {
      "inputs": [
        {
          "internalType": "address",
          "name": "newOwner",
          "type": "address"
        }
      ],
      "name": "transferOwnership",
      "outputs": [],
      "stateMutability": "nonpayable",
      "type": "function"
    }
  ],
  "bytecode": "0x60806040523480156200001157600080fd5b5060405162002a9938038062002a99833981810160405281019062000037919062000182565b620000576200004b6200009f60201b60201c565b620000a760201b60201c565b80600760006101000a81548173ffffffffffffffffffffffffffffffffffffffff021916908373ffffffffffffffffffffffffffffffffffffffff16021790555050620001fc565b600033905090565b60008060009054906101000a900473ffffffffffffffffffffffffffffffffffffffff169050816000806101000a81548173ffffffffffffffffffffffffffffffffffffffff021916908373ffffffffffffffffffffffffffffffffffffffff1602179055508173ffffffffffffffffffffffffffffffffffffffff168173ffffffffffffffffffffffffffffffffffffffff167f8be0079c531659141344cd1fd0a4f28419497f9722a3daafe3b4186f6b6457e060405160405180910390a35050565b6000815190506200017c81620001e2565b92915050565b6000602082840312156200019557600080fd5b6000620001a5848285016200016b565b91505092915050565b6000620001bb82620001c2565b9050919050565b600073ffffffffffffffffffffffffffffffffffffffff82169050919050565b620001ed81620001ae565b8114620001f957600080fd5b50565b61288d806200020c6000396000f3fe60806040526004361061008a5760003560e01c806378ee976d1161005957806378ee976d146101145780638da5cb5b1461013f578063aaf221531461016a578063e85b39be14610186578063f2fde38b146101c35761008b565b80633fd3b4941461008d57806364ed3f94146100b657806369a6f4a8146100e1578063715018a6146100fd5761008b565b5b005b34801561009957600080fd5b506100b460048036038101906100af9190611c3b565b6101ec565b005b3480156100c257600080fd5b506100cb6102f7565b6040516100d89190612320565b60405180910390f35b6100fb60048036038101906100f69190611b2e565b610504565b005b34801561010957600080fd5b50610112610c7b565b005b34801561012057600080fd5b50610129610d03565b60405161013691906121ab565b60405180910390f35b34801561014b57600080fd5b50610154610f4a565b6040516101619190612190565b60405180910390f35b610184600480360381019061017f9190611b6a565b610f73565b005b34801561019257600080fd5b506101ad60048036038101906101a89190611b05565b61136d565b6040516101ba91906121cd565b60405180910390f35b3480156101cf57600080fd5b506101ea60048036038101906101e59190611adc565b61170b565b005b604051806060016040528084815260200183815260200182815250600660003373ffffffffffffffffffffffffffffffffffffffff1673ffffffffffffffffffffffffffffffffffffffff16815260200190815260200160002060008201518160000190805190602001906102629291906118cf565b50602082015181600101908051906020019061027f9291906118cf565b50604082015181600201908051906020019061029c9291906118cf565b509050503373ffffffffffffffffffffffffffffffffffffffff167f3e7860a6e79c8425a92caed3a4c895b05709742f2e8f4c8f7152b8607ebcf6c08484846040516102ea93929190612234565b60405180910390a2505050565b6102ff611955565b600660003373ffffffffffffffffffffffffffffffffffffffff1673ffffffffffffffffffffffffffffffffffffffff16815260200190815260200160002060405180606001604052908160008201805461035990612599565b80601f016020809104026020016040519081016040528092919081815260200182805461038590612599565b80156103d25780601f106103a7576101008083540402835291602001916103d2565b820191906000526020600020905b8154815290600101906020018083116103b557829003601f168201915b505050505081526020016001820180546103eb90612599565b80601f016020809104026020016040519081016040528092919081815260200182805461041790612599565b80156104645780601f1061043957610100808354040283529160200191610464565b820191906000526020600020905b81548152906001019060200180831161044757829003601f168201915b5050505050815260200160028201805461047d90612599565b80601f01602080910402602001604051908101604052809291908181526020018280546104a990612599565b80156104f65780601f106104cb576101008083540402835291602001916104f6565b820191906000526020600020905b8154815290600101906020018083116104d957829003601f168201915b505050505081525050905090565b600060036000846001811115610543577f4e487b7100000000000000000000000000000000000000000000000000000000600052602160045260246000fd5b600181111561057b577f4e487b7100000000000000000000000000000000000000000000000000000000600052602160045260246000fd5b815260200190815260200160002082815481106105c1577f4e487b7100000000000000000000000000000000000000000000000000000000600052603260045260246000fd5b906000526020600020906009020190506000816003015411610618576040517f08c379a000000000000000000000000000000000000000000000000000000000815260040161060f906122a0565b60405180910390fd5b3481600401541461065e576040517f08c379a0000000000000000000000000000000000000000000000000000000008152600401610655906122c0565b60405180910390fd5b600181600301600082825461067391906124c2565b9250508190555080600360008560018111156106b8577f4e487b7100000000000000000000000000000000000000000000000000000000600052602160045260246000fd5b60018111156106f0577f4e487b7100000000000000000000000000000000000000000000000000000000600052602160045260246000fd5b81526020019081526020016000208381548110610736577f4e487b7100000000000000000000000000000000000000000000000000000000600052603260045260246000fd5b906000526020600020906009020160008201548160000155600182015481600101556002820160009054906101000a900473ffffffffffffffffffffffffffffffffffffffff168160020160006101000a81548173ffffffffffffffffffffffffffffffffffffffff021916908373ffffffffffffffffffffffffffffffffffffffff16021790555060038201548160030155600482015481600401556005820160009054906101000a900460ff168160050160006101000a81548160ff02191690836001811115610831577f4e487b7100000000000000000000000000000000000000000000000000000000600052602160045260246000fd5b0217905550600682018160060190805461084a90612599565b610855929190611976565b50600782018160070190805461086a90612599565b610875929190611976565b50600882018160080190805461088a90612599565b610895929190611976565b5090505060008160020160009054906101000a900473ffffffffffffffffffffffffffffffffffffffff169050600460003373ffffffffffffffffffffffffffffffffffffffff1673ffffffffffffffffffffffffffffffffffffffff1681526020019081526020016000206040518060600160405280866001811115610945577f4e487b7100000000000000000000000000000000000000000000000000000000600052602160045260246000fd5b815260200184600601805461095990612599565b80601f016020809104026020016040519081016040528092919081815260200182805461098590612599565b80156109d25780601f106109a7576101008083540402835291602001916109d2565b820191906000526020600020905b8154815290600101906020018083116109b557829003601f168201915b505050505081526020018460070180546109eb90612599565b80601f0160208091040260200160405190810160405280929190818152602001828054610a1790612599565b8015610a645780601f10610a3957610100808354040283529160200191610a64565b820191906000526020600020905b815481529060010190602001808311610a4757829003601f168201915b5050505050815250908060018154018082558091505060019003906000526020600020906003020160009091909190915060008201518160000160006101000a81548160ff02191690836001811115610ae6577f4e487b7100000000000000000000000000000000000000000000000000000000600052602160045260246000fd5b02179055506020820151816001019080519060200190610b079291906118cf565b506040820151816002019080519060200190610b249291906118cf565b505050600760009054906101000a900473ffffffffffffffffffffffffffffffffffffffff1673ffffffffffffffffffffffffffffffffffffffff166354ba0f27336040518263ffffffff1660e01b8152600401610b829190612190565b602060405180830381600087803b158015610b9c57600080fd5b505af1158015610bb0573d6000803e3d6000fd5b505050506040513d601f19601f82011682018060405250810190610bd49190611cd2565b508073ffffffffffffffffffffffffffffffffffffffff166108fc349081150290604051600060405180830381858888f19350505050158015610c1b573d6000803e3d6000fd5b50823373ffffffffffffffffffffffffffffffffffffffff167f63cd513bbfa9af637f007bdd8cfeb1976f2914b5493b3d9841533c3b43901187868560060186600701604051610c6d939291906121ef565b60405180910390a350505050565b610c83611803565b73ffffffffffffffffffffffffffffffffffffffff16610ca1610f4a565b73ffffffffffffffffffffffffffffffffffffffff1614610cf7576040517f08c379a0000000000000000000000000000000000000000000000000000000008152600401610cee906122e0565b60405180910390fd5b610d01600061180b565b565b6060600460003373ffffffffffffffffffffffffffffffffffffffff1673ffffffffffffffffffffffffffffffffffffffff168152602001908152602001600020805480602002602001604051908101604052809291908181526020016000905b82821015610f4157838290600052602060002090600302016040518060600160405290816000820160009054906101000a900460ff166001811115610dd2577f4e487b7100000000000000000000000000000000000000000000000000000000600052602160045260246000fd5b6001811115610e0a577f4e487b7100000000000000000000000000000000000000000000000000000000600052602160045260246000fd5b8152602001600182018054610e1e90612599565b80601f0160208091040260200160405190810160405280929190818152602001828054610e4a90612599565b8015610e975780601f10610e6c57610100808354040283529160200191610e97565b820191906000526020600020905b815481529060010190602001808311610e7a57829003601f168201915b50505050508152602001600282018054610eb090612599565b80601f0160208091040260200160405190810160405280929190818152602001828054610edc90612599565b8015610f295780601f10610efe57610100808354040283529160200191610f29565b820191906000526020600020905b815481529060010190602001808311610f0c57829003601f168201915b50505050508152505081526020019060010190610d64565b50505050905090565b60008060009054906101000a900473ffffffffffffffffffffffffffffffffffffffff16905090565b655af3107a40003414610fbb576040517f08c379a0000000000000000000000000000000000000000000000000000000008152600401610fb290612300565b60405180910390fd5b600560003373ffffffffffffffffffffffffffffffffffffffff1673ffffffffffffffffffffffffffffffffffffffff168152602001908152602001600020349080600181540180825580915050600190039060005260206000200160009091909190915055600060036000886001811115611060577f4e487b7100000000000000000000000000000000000000000000000000000000600052602160045260246000fd5b6001811115611098577f4e487b7100000000000000000000000000000000000000000000000000000000600052602160045260246000fd5b8152602001908152602001600020805490509050600360008860018111156110e9577f4e487b7100000000000000000000000000000000000000000000000000000000600052602160045260246000fd5b6001811115611121577f4e487b7100000000000000000000000000000000000000000000000000000000600052602160045260246000fd5b815260200190815260200160002060405180610120016040528060015481526020018381526020013373ffffffffffffffffffffffffffffffffffffffff1681526020018781526020018881526020018960018111156111aa577f4e487b7100000000000000000000000000000000000000000000000000000000600052602160045260246000fd5b8152602001868152602001858152602001848152509080600181540180825580915050600190039060005260206000209060090201600090919091909150600082015181600001556020820151816001015560408201518160020160006101000a81548173ffffffffffffffffffffffffffffffffffffffff021916908373ffffffffffffffffffffffffffffffffffffffff160217905550606082015181600301556080820151816004015560a08201518160050160006101000a81548160ff021916908360018111156112a8577f4e487b7100000000000000000000000000000000000000000000000000000000600052602160045260246000fd5b021790555060c08201518160060190805190602001906112c99291906118cf565b5060e08201518160070190805190602001906112e69291906118cf565b506101008201518160080190805190602001906113049291906118cf565b5050506001600081548092919061131a906125fc565b9190505550806001547f55b682d69381b8942b84474fac0361900424a7b2526315b28db6ac4c80437fb987898b89898960405161135c96959493929190612342565b60405180910390a350505050505050565b6060600360008360018111156113ac577f4e487b7100000000000000000000000000000000000000000000000000000000600052602160045260246000fd5b60018111156113e4577f4e487b7100000000000000000000000000000000000000000000000000000000600052602160045260246000fd5b8152602001908152602001600020805480602002602001604051908101604052809291908181526020016000905b8282101561170057838290600052602060002090600902016040518061012001604052908160008201548152602001600182015481526020016002820160009054906101000a900473ffffffffffffffffffffffffffffffffffffffff1673ffffffffffffffffffffffffffffffffffffffff1673ffffffffffffffffffffffffffffffffffffffff16815260200160038201548152602001600482015481526020016005820160009054906101000a900460ff1660018111156114ff577f4e487b7100000000000000000000000000000000000000000000000000000000600052602160045260246000fd5b6001811115611537577f4e487b7100000000000000000000000000000000000000000000000000000000600052602160045260246000fd5b815260200160068201805461154b90612599565b80601f016020809104026020016040519081016040528092919081815260200182805461157790612599565b80156115c45780601f10611599576101008083540402835291602001916115c4565b820191906000526020600020905b8154815290600101906020018083116115a757829003601f168201915b505050505081526020016007820180546115dd90612599565b80601f016020809104026020016040519081016040528092919081815260200182805461160990612599565b80156116565780601f1061162b57610100808354040283529160200191611656565b820191906000526020600020905b81548152906001019060200180831161163957829003601f168201915b5050505050815260200160088201805461166f90612599565b80601f016020809104026020016040519081016040528092919081815260200182805461169b90612599565b80156116e85780601f106116bd576101008083540402835291602001916116e8565b820191906000526020600020905b8154815290600101906020018083116116cb57829003601f168201915b50505050508152505081526020019060010190611412565b505050509050919050565b611713611803565b73ffffffffffffffffffffffffffffffffffffffff16611731610f4a565b73ffffffffffffffffffffffffffffffffffffffff1614611787576040517f08c379a000000000000000000000000000000000000000000000000000000000815260040161177e906122e0565b60405180910390fd5b600073ffffffffffffffffffffffffffffffffffffffff168173ffffffffffffffffffffffffffffffffffffffff1614156117f7576040517f08c379a00000000000000000000000000000000000000000000000000000000081526004016117ee90612280565b60405180910390fd5b6118008161180b565b50565b600033905090565b60008060009054906101000a900473ffffffffffffffffffffffffffffffffffffffff169050816000806101000a81548173ffffffffffffffffffffffffffffffffffffffff021916908373ffffffffffffffffffffffffffffffffffffffff1602179055508173ffffffffffffffffffffffffffffffffffffffff168173ffffffffffffffffffffffffffffffffffffffff167f8be0079c531659141344cd1fd0a4f28419497f9722a3daafe3b4186f6b6457e060405160405180910390a35050565b8280546118db90612599565b90600052602060002090601f0160209004810192826118fd5760008555611944565b82601f1061191657805160ff1916838001178555611944565b82800160010185558215611944579182015b82811115611943578251825591602001919060010190611928565b5b5090506119519190611a03565b5090565b60405180606001604052806060815260200160608152602001606081525090565b82805461198290612599565b90600052602060002090601f0160209004810192826119a457600085556119f2565b82601f106119b557805485556119f2565b828001600101855582156119f257600052602060002091601f016020900482015b828111156119f15782548255916001019190600101906119d6565b5b5090506119ff9190611a03565b5090565b5b80821115611a1c576000816000905550600101611a04565b5090565b6000611a33611a2e846123dd565b6123b8565b905082815260208101848484011115611a4b57600080fd5b611a56848285612557565b509392505050565b600081359050611a6d81612819565b92915050565b600081359050611a8281612830565b92915050565b600082601f830112611a9957600080fd5b8135611aa9848260208601611a20565b91505092915050565b600081359050611ac181612840565b92915050565b600081519050611ad681612840565b92915050565b600060208284031215611aee57600080fd5b6000611afc84828501611a5e565b91505092915050565b600060208284031215611b1757600080fd5b6000611b2584828501611a73565b91505092915050565b60008060408385031215611b4157600080fd5b6000611b4f85828601611a73565b9250506020611b6085828601611ab2565b9150509250929050565b60008060008060008060c08789031215611b8357600080fd5b6000611b9189828a01611a73565b9650506020611ba289828a01611ab2565b9550506040611bb389828a01611ab2565b945050606087013567ffffffffffffffff811115611bd057600080fd5b611bdc89828a01611a88565b935050608087013567ffffffffffffffff811115611bf957600080fd5b611c0589828a01611a88565b92505060a087013567ffffffffffffffff811115611c2257600080fd5b611c2e89828a01611a88565b9150509295509295509295565b600080600060608486031215611c5057600080fd5b600084013567ffffffffffffffff811115611c6a57600080fd5b611c7686828701611a88565b935050602084013567ffffffffffffffff811115611c9357600080fd5b611c9f86828701611a88565b925050604084013567ffffffffffffffff811115611cbc57600080fd5b611cc886828701611a88565b9150509250925092565b600060208284031215611ce457600080fd5b6000611cf284828501611ac7565b91505092915050565b6000611d078383612048565b905092915050565b6000611d1b838361209f565b905092915050565b611d2c816124f6565b82525050565b611d3b816124f6565b82525050565b6000611d4c82612443565b611d56818561247e565b935083602082028501611d688561240e565b8060005b85811015611da45784840389528151611d858582611cfb565b9450611d9083612464565b925060208a01995050600181019050611d6c565b50829750879550505050505092915050565b6000611dc18261244e565b611dcb818561248f565b935083602082028501611ddd8561241e565b8060005b85811015611e195784840389528151611dfa8582611d0f565b9450611e0583612471565b925060208a01995050600181019050611de1565b50829750879550505050505092915050565b611e3481612545565b82525050565b611e4381612545565b82525050565b6000611e5482612459565b611e5e81856124a0565b9350611e6e818560208601612566565b611e7781612701565b840191505092915050565b6000611e8d82612459565b611e9781856124b1565b9350611ea7818560208601612566565b611eb081612701565b840191505092915050565b60008154611ec881612599565b611ed281866124b1565b94506001821660008114611eed5760018114611eff57611f32565b60ff1983168652602086019350611f32565b611f088561242e565b60005b83811015611f2a57815481890152600182019150602081019050611f0b565b808801955050505b50505092915050565b6000611f486026836124b1565b9150611f5382612712565b604082019050919050565b6000611f6b600e836124b1565b9150611f7682612761565b602082019050919050565b6000611f8e6011836124b1565b9150611f998261278a565b602082019050919050565b6000611fb16020836124b1565b9150611fbc826127b3565b602082019050919050565b6000611fd46019836124b1565b9150611fdf826127dc565b602082019050919050565b600060608301600083015184820360008601526120078282611e49565b915050602083015184820360208601526120218282611e49565b9150506040830151848203604086015261203b8282611e49565b9150508091505092915050565b60006060830160008301516120606000860182611e2b565b50602083015184820360208601526120788282611e49565b915050604083015184820360408601526120928282611e49565b9150508091505092915050565b6000610120830160008301516120b86000860182612172565b5060208301516120cb6020860182612172565b5060408301516120de6040860182611d23565b5060608301516120f16060860182612172565b5060808301516121046080860182612172565b5060a083015161211760a0860182611e2b565b5060c083015184820360c086015261212f8282611e49565b91505060e083015184820360e08601526121498282611e49565b9150506101008301518482036101008601526121658282611e49565b9150508091505092915050565b61217b8161253b565b82525050565b61218a8161253b565b82525050565b60006020820190506121a56000830184611d32565b92915050565b600060208201905081810360008301526121c58184611d41565b905092915050565b600060208201905081810360008301526121e78184611db6565b905092915050565b60006060820190506122046000830186611e3a565b81810360208301526122168185611ebb565b9050818103604083015261222a8184611ebb565b9050949350505050565b6000606082019050818103600083015261224e8186611e82565b905081810360208301526122628185611e82565b905081810360408301526122768184611e82565b9050949350505050565b6000602082019050818103600083015261229981611f3b565b9050919050565b600060208201905081810360008301526122b981611f5e565b9050919050565b600060208201905081810360008301526122d981611f81565b9050919050565b600060208201905081810360008301526122f981611fa4565b9050919050565b6000602082019050818103600083015261231981611fc7565b9050919050565b6000602082019050818103600083015261233a8184611fea565b905092915050565b600060c0820190506123576000830189612181565b6123646020830188612181565b6123716040830187611e3a565b81810360608301526123838186611e82565b905081810360808301526123978185611e82565b905081810360a08301526123ab8184611e82565b9050979650505050505050565b60006123c26123d3565b90506123ce82826125cb565b919050565b6000604051905090565b600067ffffffffffffffff8211156123f8576123f76126d2565b5b61240182612701565b9050602081019050919050565b6000819050602082019050919050565b6000819050602082019050919050565b60008190508160005260206000209050919050565b600081519050919050565b600081519050919050565b600081519050919050565b6000602082019050919050565b6000602082019050919050565b600082825260208201905092915050565b600082825260208201905092915050565b600082825260208201905092915050565b600082825260208201905092915050565b60006124cd8261253b565b91506124d88361253b565b9250828210156124eb576124ea612645565b5b828203905092915050565b60006125018261251b565b9050919050565b600081905061251682612805565b919050565b600073ffffffffffffffffffffffffffffffffffffffff82169050919050565b6000819050919050565b600061255082612508565b9050919050565b82818337600083830152505050565b60005b83811015612584578082015181840152602081019050612569565b83811115612593576000848401525b50505050565b600060028204905060018216806125b157607f821691505b602082108114156125c5576125c46126a3565b5b50919050565b6125d482612701565b810181811067ffffffffffffffff821117156125f3576125f26126d2565b5b80604052505050565b60006126078261253b565b91507fffffffffffffffffffffffffffffffffffffffffffffffffffffffffffffffff82141561263a57612639612645565b5b600182019050919050565b7f4e487b7100000000000000000000000000000000000000000000000000000000600052601160045260246000fd5b7f4e487b7100000000000000000000000000000000000000000000000000000000600052602160045260246000fd5b7f4e487b7100000000000000000000000000000000000000000000000000000000600052602260045260246000fd5b7f4e487b7100000000000000000000000000000000000000000000000000000000600052604160045260246000fd5b6000601f19601f8301169050919050565b7f4f776e61626c653a206e6577206f776e657220697320746865207a65726f206160008201527f6464726573730000000000000000000000000000000000000000000000000000602082015250565b7f506c61636520636f6d706c657465000000000000000000000000000000000000600082015250565b7f50726963652069732064697374696e6374000000000000000000000000000000600082015250565b7f4f776e61626c653a2063616c6c6572206973206e6f7420746865206f776e6572600082015250565b7f56616c7565206973206e6f7420302e3030303120657468657200000000000000600082015250565b6002811061281657612815612674565b5b50565b612822816124f6565b811461282d57600080fd5b50565b6002811061283d57600080fd5b50565b6128498161253b565b811461285457600080fd5b5056fea26469706673582212206bb5fa21a6f9cdb4e26bb4067bb216acc10b26ac2054c7baa071baa0af0fadda64736f6c63430008040033",
  "linkReferences": {},
  "deployedLinkReferences": {}
}