{
  "_format": "hh-sol-artifact-1",
  "contractName": "ReservApp",
  "sourceName": "contracts/ReservApp.sol",
  "abi": [
    {
      "inputs": [
        {
          "internalType": "address",
          "name": "_nft",
          "type": "address"
        }
      ],
      "stateMutability": "nonpayable",
      "type": "constructor"
    },
    {
      "anonymous": false,
      "inputs": [
        {
          "indexed": true,
          "internalType": "address",
          "name": "direction",
          "type": "address"
        },
        {
          "indexed": false,
          "internalType": "string",
          "name": "last_name",
          "type": "string"
        },
        {
          "indexed": false,
          "internalType": "string",
          "name": "first_name",
          "type": "string"
        },
        {
          "indexed": false,
          "internalType": "string",
          "name": "email",
          "type": "string"
        }
      ],
      "name": "NewPersonEvent",
      "type": "event"
    },
    {
      "anonymous": false,
      "inputs": [
        {
          "indexed": true,
          "internalType": "uint256",
          "name": "id",
          "type": "uint256"
        },
        {
          "indexed": true,
          "internalType": "uint256",
          "name": "index",
          "type": "uint256"
        },
        {
          "indexed": false,
          "internalType": "uint256",
          "name": "size",
          "type": "uint256"
        },
        {
          "indexed": false,
          "internalType": "uint256",
          "name": "price",
          "type": "uint256"
        },
        {
          "indexed": false,
          "internalType": "enum ReservApp.Category",
          "name": "category",
          "type": "uint8"
        },
        {
          "indexed": false,
          "internalType": "string",
          "name": "title",
          "type": "string"
        },
        {
          "indexed": false,
          "internalType": "string",
          "name": "description",
          "type": "string"
        },
        {
          "indexed": false,
          "internalType": "string",
          "name": "image",
          "type": "string"
        }
      ],
      "name": "NewPlaceEvent",
      "type": "event"
    },
    {
      "anonymous": false,
      "inputs": [
        {
          "indexed": true,
          "internalType": "address",
          "name": "user",
          "type": "address"
        },
        {
          "indexed": false,
          "internalType": "enum ReservApp.Category",
          "name": "category",
          "type": "uint8"
        },
        {
          "indexed": true,
          "internalType": "uint256",
          "name": "index",
          "type": "uint256"
        },
        {
          "indexed": false,
          "internalType": "string",
          "name": "name",
          "type": "string"
        },
        {
          "indexed": false,
          "internalType": "string",
          "name": "description",
          "type": "string"
        }
      ],
      "name": "NewRentEvent",
      "type": "event"
    },
    {
      "anonymous": false,
      "inputs": [
        {
          "indexed": true,
          "internalType": "address",
          "name": "previousOwner",
          "type": "address"
        },
        {
          "indexed": true,
          "internalType": "address",
          "name": "newOwner",
          "type": "address"
        }
      ],
      "name": "OwnershipTransferred",
      "type": "event"
    },
    {
      "stateMutability": "payable",
      "type": "fallback"
    },
    {
      "inputs": [],
      "name": "getMyPlaces",
      "outputs": [
        {
          "components": [
            {
              "internalType": "enum ReservApp.Category",
              "name": "category",
              "type": "uint8"
            },
            {
              "internalType": "string",
              "name": "title",
              "type": "string"
            },
            {
              "internalType": "string",
              "name": "description",
              "type": "string"
            }
          ],
          "internalType": "struct ReservApp.PlaceRent[]",
          "name": "",
          "type": "tuple[]"
        }
      ],
      "stateMutability": "view",
      "type": "function"
    },
    {
      "inputs": [],
      "name": "getPersonByAddress",
      "outputs": [
        {
          "components": [
            {
              "internalType": "string",
              "name": "first_name",
              "type": "string"
            },
            {
              "internalType": "string",
              "name": "last_name",
              "type": "string"
            },
            {
              "internalType": "string",
              "name": "email",
              "type": "string"
            }
          ],
          "internalType": "struct ReservApp.Person",
          "name": "",
          "type": "tuple"
        }
      ],
      "stateMutability": "view",
      "type": "function"
    },
    {
      "inputs": [
        {
          "internalType": "enum ReservApp.Category",
          "name": "category",
          "type": "uint8"
        },
        {
          "internalType": "uint256",
          "name": "index",
          "type": "uint256"
        }
      ],
      "name": "getPlaceById",
      "outputs": [
        {
          "components": [
            {
              "internalType": "uint256",
              "name": "id",
              "type": "uint256"
            },
            {
              "internalType": "uint256",
              "name": "index",
              "type": "uint256"
            },
            {
              "internalType": "address",
              "name": "owner",
              "type": "address"
            },
            {
              "internalType": "uint256",
              "name": "size",
              "type": "uint256"
            },
            {
              "internalType": "uint256",
              "name": "price",
              "type": "uint256"
            },
            {
              "internalType": "enum ReservApp.Category",
              "name": "category",
              "type": "uint8"
            },
            {
              "internalType": "string",
              "name": "title",
              "type": "string"
            },
            {
              "internalType": "string",
              "name": "description",
              "type": "string"
            },
            {
              "internalType": "string",
              "name": "image",
              "type": "string"
            }
          ],
          "internalType": "struct ReservApp.Place",
          "name": "",
          "type": "tuple"
        }
      ],
      "stateMutability": "view",
      "type": "function"
    },
    {
      "inputs": [
        {
          "internalType": "enum ReservApp.Category",
          "name": "category",
          "type": "uint8"
        }
      ],
      "name": "getPlacesByCategory",
      "outputs": [
        {
          "components": [
            {
              "internalType": "uint256",
              "name": "id",
              "type": "uint256"
            },
            {
              "internalType": "uint256",
              "name": "index",
              "type": "uint256"
            },
            {
              "internalType": "address",
              "name": "owner",
              "type": "address"
            },
            {
              "internalType": "uint256",
              "name": "size",
              "type": "uint256"
            },
            {
              "internalType": "uint256",
              "name": "price",
              "type": "uint256"
            },
            {
              "internalType": "enum ReservApp.Category",
              "name": "category",
              "type": "uint8"
            },
            {
              "internalType": "string",
              "name": "title",
              "type": "string"
            },
            {
              "internalType": "string",
              "name": "description",
              "type": "string"
            },
            {
              "internalType": "string",
              "name": "image",
              "type": "string"
            }
          ],
          "internalType": "struct ReservApp.Place[]",
          "name": "",
          "type": "tuple[]"
        }
      ],
      "stateMutability": "view",
      "type": "function"
    },
    {
      "inputs": [
        {
          "internalType": "string",
          "name": "first_name",
          "type": "string"
        },
        {
          "internalType": "string",
          "name": "last_name",
          "type": "string"
        },
        {
          "internalType": "string",
          "name": "email",
          "type": "string"
        }
      ],
      "name": "linkedPerson",
      "outputs": [],
      "stateMutability": "nonpayable",
      "type": "function"
    },
    {
      "inputs": [
        {
          "internalType": "enum ReservApp.Category",
          "name": "category",
          "type": "uint8"
        },
        {
          "internalType": "uint256",
          "name": "price",
          "type": "uint256"
        },
        {
          "internalType": "uint256",
          "name": "size",
          "type": "uint256"
        },
        {
          "internalType": "string",
          "name": "title",
          "type": "string"
        },
        {
          "internalType": "string",
          "name": "description",
          "type": "string"
        },
        {
          "internalType": "string",
          "name": "image",
          "type": "string"
        }
      ],
      "name": "newPlace",
      "outputs": [],
      "stateMutability": "payable",
      "type": "function"
    },
    {
      "inputs": [],
      "name": "owner",
      "outputs": [
        {
          "internalType": "address",
          "name": "",
          "type": "address"
        }
      ],
      "stateMutability": "view",
      "type": "function"
    },
    {
      "inputs": [],
      "name": "renounceOwnership",
      "outputs": [],
      "stateMutability": "nonpayable",
      "type": "function"
    },
    {
      "inputs": [
        {
          "internalType": "enum ReservApp.Category",
          "name": "category",
          "type": "uint8"
        },
        {
          "internalType": "uint256",
          "name": "index",
          "type": "uint256"
        }
      ],
      "name": "rentPlace",
      "outputs": [],
      "stateMutability": "payable",
      "type": "function"
    },
    {
      "inputs": [
        {
          "internalType": "address",
          "name": "newOwner",
          "type": "address"
        }
      ],
      "name": "transferOwnership",
      "outputs": [],
      "stateMutability": "nonpayable",
      "type": "function"
    }
  ],
  "bytecode": "0x60806040523480156200001157600080fd5b506040516200301038038062003010833981810160405281019062000037919062000182565b620000576200004b6200009f60201b60201c565b620000a760201b60201c565b80600760006101000a81548173ffffffffffffffffffffffffffffffffffffffff021916908373ffffffffffffffffffffffffffffffffffffffff16021790555050620001fc565b600033905090565b60008060009054906101000a900473ffffffffffffffffffffffffffffffffffffffff169050816000806101000a81548173ffffffffffffffffffffffffffffffffffffffff021916908373ffffffffffffffffffffffffffffffffffffffff1602179055508173ffffffffffffffffffffffffffffffffffffffff168173ffffffffffffffffffffffffffffffffffffffff167f8be0079c531659141344cd1fd0a4f28419497f9722a3daafe3b4186f6b6457e060405160405180910390a35050565b6000815190506200017c81620001e2565b92915050565b6000602082840312156200019557600080fd5b6000620001a5848285016200016b565b91505092915050565b6000620001bb82620001c2565b9050919050565b600073ffffffffffffffffffffffffffffffffffffffff82169050919050565b620001ed81620001ae565b8114620001f957600080fd5b50565b612e04806200020c6000396000f3fe6080604052600436106100955760003560e01c80638da5cb5b116100595780638da5cb5b1461014a578063aaf2215314610175578063d4844ee214610191578063e85b39be146101ce578063f2fde38b1461020b57610096565b80633fd3b4941461009857806364ed3f94146100c157806369a6f4a8146100ec578063715018a61461010857806378ee976d1461011f57610096565b5b005b3480156100a457600080fd5b506100bf60048036038101906100ba91906120bd565b610234565b005b3480156100cd57600080fd5b506100d661033f565b6040516100e39190612875565b60405180910390f35b61010660048036038101906101019190611fb0565b61054c565b005b34801561011457600080fd5b5061011d610cc3565b005b34801561012b57600080fd5b50610134610d4b565b6040516101419190612700565b60405180910390f35b34801561015657600080fd5b5061015f610f92565b60405161016c91906126e5565b60405180910390f35b61018f600480360381019061018a9190611fec565b610fbb565b005b34801561019d57600080fd5b506101b860048036038101906101b39190611fb0565b6113b5565b6040516101c59190612897565b60405180910390f35b3480156101da57600080fd5b506101f560048036038101906101f09190611f87565b611755565b6040516102029190612722565b60405180910390f35b34801561021757600080fd5b50610232600480360381019061022d9190611f5e565b611af3565b005b604051806060016040528084815260200183815260200182815250600660003373ffffffffffffffffffffffffffffffffffffffff1673ffffffffffffffffffffffffffffffffffffffff16815260200190815260200160002060008201518160000190805190602001906102aa929190611cb7565b5060208201518160010190805190602001906102c7929190611cb7565b5060408201518160020190805190602001906102e4929190611cb7565b509050503373ffffffffffffffffffffffffffffffffffffffff167f3e7860a6e79c8425a92caed3a4c895b05709742f2e8f4c8f7152b8607ebcf6c084848460405161033293929190612789565b60405180910390a2505050565b610347611d3d565b600660003373ffffffffffffffffffffffffffffffffffffffff1673ffffffffffffffffffffffffffffffffffffffff1681526020019081526020016000206040518060600160405290816000820180546103a190612b10565b80601f01602080910402602001604051908101604052809291908181526020018280546103cd90612b10565b801561041a5780601f106103ef5761010080835404028352916020019161041a565b820191906000526020600020905b8154815290600101906020018083116103fd57829003601f168201915b5050505050815260200160018201805461043390612b10565b80601f016020809104026020016040519081016040528092919081815260200182805461045f90612b10565b80156104ac5780601f10610481576101008083540402835291602001916104ac565b820191906000526020600020905b81548152906001019060200180831161048f57829003601f168201915b505050505081526020016002820180546104c590612b10565b80601f01602080910402602001604051908101604052809291908181526020018280546104f190612b10565b801561053e5780601f106105135761010080835404028352916020019161053e565b820191906000526020600020905b81548152906001019060200180831161052157829003601f168201915b505050505081525050905090565b60006003600084600181111561058b577f4e487b7100000000000000000000000000000000000000000000000000000000600052602160045260246000fd5b60018111156105c3577f4e487b7100000000000000000000000000000000000000000000000000000000600052602160045260246000fd5b81526020019081526020016000208281548110610609577f4e487b7100000000000000000000000000000000000000000000000000000000600052603260045260246000fd5b906000526020600020906009020190506000816003015411610660576040517f08c379a0000000000000000000000000000000000000000000000000000000008152600401610657906127f5565b60405180910390fd5b348160040154146106a6576040517f08c379a000000000000000000000000000000000000000000000000000000000815260040161069d90612815565b60405180910390fd5b60018160030160008282546106bb9190612a39565b925050819055508060036000856001811115610700577f4e487b7100000000000000000000000000000000000000000000000000000000600052602160045260246000fd5b6001811115610738577f4e487b7100000000000000000000000000000000000000000000000000000000600052602160045260246000fd5b8152602001908152602001600020838154811061077e577f4e487b7100000000000000000000000000000000000000000000000000000000600052603260045260246000fd5b906000526020600020906009020160008201548160000155600182015481600101556002820160009054906101000a900473ffffffffffffffffffffffffffffffffffffffff168160020160006101000a81548173ffffffffffffffffffffffffffffffffffffffff021916908373ffffffffffffffffffffffffffffffffffffffff16021790555060038201548160030155600482015481600401556005820160009054906101000a900460ff168160050160006101000a81548160ff02191690836001811115610879577f4e487b7100000000000000000000000000000000000000000000000000000000600052602160045260246000fd5b0217905550600682018160060190805461089290612b10565b61089d929190611d5e565b5060078201816007019080546108b290612b10565b6108bd929190611d5e565b5060088201816008019080546108d290612b10565b6108dd929190611d5e565b5090505060008160020160009054906101000a900473ffffffffffffffffffffffffffffffffffffffff169050600460003373ffffffffffffffffffffffffffffffffffffffff1673ffffffffffffffffffffffffffffffffffffffff168152602001908152602001600020604051806060016040528086600181111561098d577f4e487b7100000000000000000000000000000000000000000000000000000000600052602160045260246000fd5b81526020018460060180546109a190612b10565b80601f01602080910402602001604051908101604052809291908181526020018280546109cd90612b10565b8015610a1a5780601f106109ef57610100808354040283529160200191610a1a565b820191906000526020600020905b8154815290600101906020018083116109fd57829003601f168201915b50505050508152602001846007018054610a3390612b10565b80601f0160208091040260200160405190810160405280929190818152602001828054610a5f90612b10565b8015610aac5780601f10610a8157610100808354040283529160200191610aac565b820191906000526020600020905b815481529060010190602001808311610a8f57829003601f168201915b5050505050815250908060018154018082558091505060019003906000526020600020906003020160009091909190915060008201518160000160006101000a81548160ff02191690836001811115610b2e577f4e487b7100000000000000000000000000000000000000000000000000000000600052602160045260246000fd5b02179055506020820151816001019080519060200190610b4f929190611cb7565b506040820151816002019080519060200190610b6c929190611cb7565b505050600760009054906101000a900473ffffffffffffffffffffffffffffffffffffffff1673ffffffffffffffffffffffffffffffffffffffff166354ba0f27336040518263ffffffff1660e01b8152600401610bca91906126e5565b602060405180830381600087803b158015610be457600080fd5b505af1158015610bf8573d6000803e3d6000fd5b505050506040513d601f19601f82011682018060405250810190610c1c9190612154565b508073ffffffffffffffffffffffffffffffffffffffff166108fc349081150290604051600060405180830381858888f19350505050158015610c63573d6000803e3d6000fd5b50823373ffffffffffffffffffffffffffffffffffffffff167f63cd513bbfa9af637f007bdd8cfeb1976f2914b5493b3d9841533c3b43901187868560060186600701604051610cb593929190612744565b60405180910390a350505050565b610ccb611beb565b73ffffffffffffffffffffffffffffffffffffffff16610ce9610f92565b73ffffffffffffffffffffffffffffffffffffffff1614610d3f576040517f08c379a0000000000000000000000000000000000000000000000000000000008152600401610d3690612835565b60405180910390fd5b610d496000611bf3565b565b6060600460003373ffffffffffffffffffffffffffffffffffffffff1673ffffffffffffffffffffffffffffffffffffffff168152602001908152602001600020805480602002602001604051908101604052809291908181526020016000905b82821015610f8957838290600052602060002090600302016040518060600160405290816000820160009054906101000a900460ff166001811115610e1a577f4e487b7100000000000000000000000000000000000000000000000000000000600052602160045260246000fd5b6001811115610e52577f4e487b7100000000000000000000000000000000000000000000000000000000600052602160045260246000fd5b8152602001600182018054610e6690612b10565b80601f0160208091040260200160405190810160405280929190818152602001828054610e9290612b10565b8015610edf5780601f10610eb457610100808354040283529160200191610edf565b820191906000526020600020905b815481529060010190602001808311610ec257829003601f168201915b50505050508152602001600282018054610ef890612b10565b80601f0160208091040260200160405190810160405280929190818152602001828054610f2490612b10565b8015610f715780601f10610f4657610100808354040283529160200191610f71565b820191906000526020600020905b815481529060010190602001808311610f5457829003601f168201915b50505050508152505081526020019060010190610dac565b50505050905090565b60008060009054906101000a900473ffffffffffffffffffffffffffffffffffffffff16905090565b655af3107a40003414611003576040517f08c379a0000000000000000000000000000000000000000000000000000000008152600401610ffa90612855565b60405180910390fd5b600560003373ffffffffffffffffffffffffffffffffffffffff1673ffffffffffffffffffffffffffffffffffffffff1681526020019081526020016000203490806001815401808255809150506001900390600052602060002001600090919091909150556000600360008860018111156110a8577f4e487b7100000000000000000000000000000000000000000000000000000000600052602160045260246000fd5b60018111156110e0577f4e487b7100000000000000000000000000000000000000000000000000000000600052602160045260246000fd5b815260200190815260200160002080549050905060036000886001811115611131577f4e487b7100000000000000000000000000000000000000000000000000000000600052602160045260246000fd5b6001811115611169577f4e487b7100000000000000000000000000000000000000000000000000000000600052602160045260246000fd5b815260200190815260200160002060405180610120016040528060015481526020018381526020013373ffffffffffffffffffffffffffffffffffffffff1681526020018781526020018881526020018960018111156111f2577f4e487b7100000000000000000000000000000000000000000000000000000000600052602160045260246000fd5b8152602001868152602001858152602001848152509080600181540180825580915050600190039060005260206000209060090201600090919091909150600082015181600001556020820151816001015560408201518160020160006101000a81548173ffffffffffffffffffffffffffffffffffffffff021916908373ffffffffffffffffffffffffffffffffffffffff160217905550606082015181600301556080820151816004015560a08201518160050160006101000a81548160ff021916908360018111156112f0577f4e487b7100000000000000000000000000000000000000000000000000000000600052602160045260246000fd5b021790555060c0820151816006019080519060200190611311929190611cb7565b5060e082015181600701908051906020019061132e929190611cb7565b5061010082015181600801908051906020019061134c929190611cb7565b5050506001600081548092919061136290612b73565b9190505550806001547f55b682d69381b8942b84474fac0361900424a7b2526315b28db6ac4c80437fb987898b8989896040516113a4969594939291906128b9565b60405180910390a350505050505050565b6113bd611deb565b600360008460018111156113fa577f4e487b7100000000000000000000000000000000000000000000000000000000600052602160045260246000fd5b6001811115611432577f4e487b7100000000000000000000000000000000000000000000000000000000600052602160045260246000fd5b81526020019081526020016000208281548110611478577f4e487b7100000000000000000000000000000000000000000000000000000000600052603260045260246000fd5b90600052602060002090600902016040518061012001604052908160008201548152602001600182015481526020016002820160009054906101000a900473ffffffffffffffffffffffffffffffffffffffff1673ffffffffffffffffffffffffffffffffffffffff1673ffffffffffffffffffffffffffffffffffffffff16815260200160038201548152602001600482015481526020016005820160009054906101000a900460ff16600181111561155b577f4e487b7100000000000000000000000000000000000000000000000000000000600052602160045260246000fd5b6001811115611593577f4e487b7100000000000000000000000000000000000000000000000000000000600052602160045260246000fd5b81526020016006820180546115a790612b10565b80601f01602080910402602001604051908101604052809291908181526020018280546115d390612b10565b80156116205780601f106115f557610100808354040283529160200191611620565b820191906000526020600020905b81548152906001019060200180831161160357829003601f168201915b5050505050815260200160078201805461163990612b10565b80601f016020809104026020016040519081016040528092919081815260200182805461166590612b10565b80156116b25780601f10611687576101008083540402835291602001916116b2565b820191906000526020600020905b81548152906001019060200180831161169557829003601f168201915b505050505081526020016008820180546116cb90612b10565b80601f01602080910402602001604051908101604052809291908181526020018280546116f790612b10565b80156117445780601f1061171957610100808354040283529160200191611744565b820191906000526020600020905b81548152906001019060200180831161172757829003601f168201915b505050505081525050905092915050565b606060036000836001811115611794577f4e487b7100000000000000000000000000000000000000000000000000000000600052602160045260246000fd5b60018111156117cc577f4e487b7100000000000000000000000000000000000000000000000000000000600052602160045260246000fd5b8152602001908152602001600020805480602002602001604051908101604052809291908181526020016000905b82821015611ae857838290600052602060002090600902016040518061012001604052908160008201548152602001600182015481526020016002820160009054906101000a900473ffffffffffffffffffffffffffffffffffffffff1673ffffffffffffffffffffffffffffffffffffffff1673ffffffffffffffffffffffffffffffffffffffff16815260200160038201548152602001600482015481526020016005820160009054906101000a900460ff1660018111156118e7577f4e487b7100000000000000000000000000000000000000000000000000000000600052602160045260246000fd5b600181111561191f577f4e487b7100000000000000000000000000000000000000000000000000000000600052602160045260246000fd5b815260200160068201805461193390612b10565b80601f016020809104026020016040519081016040528092919081815260200182805461195f90612b10565b80156119ac5780601f10611981576101008083540402835291602001916119ac565b820191906000526020600020905b81548152906001019060200180831161198f57829003601f168201915b505050505081526020016007820180546119c590612b10565b80601f01602080910402602001604051908101604052809291908181526020018280546119f190612b10565b8015611a3e5780601f10611a1357610100808354040283529160200191611a3e565b820191906000526020600020905b815481529060010190602001808311611a2157829003601f168201915b50505050508152602001600882018054611a5790612b10565b80601f0160208091040260200160405190810160405280929190818152602001828054611a8390612b10565b8015611ad05780601f10611aa557610100808354040283529160200191611ad0565b820191906000526020600020905b815481529060010190602001808311611ab357829003601f168201915b505050505081525050815260200190600101906117fa565b505050509050919050565b611afb611beb565b73ffffffffffffffffffffffffffffffffffffffff16611b19610f92565b73ffffffffffffffffffffffffffffffffffffffff1614611b6f576040517f08c379a0000000000000000000000000000000000000000000000000000000008152600401611b6690612835565b60405180910390fd5b600073ffffffffffffffffffffffffffffffffffffffff168173ffffffffffffffffffffffffffffffffffffffff161415611bdf576040517f08c379a0000000000000000000000000000000000000000000000000000000008152600401611bd6906127d5565b60405180910390fd5b611be881611bf3565b50565b600033905090565b60008060009054906101000a900473ffffffffffffffffffffffffffffffffffffffff169050816000806101000a81548173ffffffffffffffffffffffffffffffffffffffff021916908373ffffffffffffffffffffffffffffffffffffffff1602179055508173ffffffffffffffffffffffffffffffffffffffff168173ffffffffffffffffffffffffffffffffffffffff167f8be0079c531659141344cd1fd0a4f28419497f9722a3daafe3b4186f6b6457e060405160405180910390a35050565b828054611cc390612b10565b90600052602060002090601f016020900481019282611ce55760008555611d2c565b82601f10611cfe57805160ff1916838001178555611d2c565b82800160010185558215611d2c579182015b82811115611d2b578251825591602001919060010190611d10565b5b509050611d399190611e85565b5090565b60405180606001604052806060815260200160608152602001606081525090565b828054611d6a90612b10565b90600052602060002090601f016020900481019282611d8c5760008555611dda565b82601f10611d9d5780548555611dda565b82800160010185558215611dda57600052602060002091601f016020900482015b82811115611dd9578254825591600101919060010190611dbe565b5b509050611de79190611e85565b5090565b6040518061012001604052806000815260200160008152602001600073ffffffffffffffffffffffffffffffffffffffff168152602001600081526020016000815260200160006001811115611e6a577f4e487b7100000000000000000000000000000000000000000000000000000000600052602160045260246000fd5b81526020016060815260200160608152602001606081525090565b5b80821115611e9e576000816000905550600101611e86565b5090565b6000611eb5611eb084612954565b61292f565b905082815260208101848484011115611ecd57600080fd5b611ed8848285612ace565b509392505050565b600081359050611eef81612d90565b92915050565b600081359050611f0481612da7565b92915050565b600082601f830112611f1b57600080fd5b8135611f2b848260208601611ea2565b91505092915050565b600081359050611f4381612db7565b92915050565b600081519050611f5881612db7565b92915050565b600060208284031215611f7057600080fd5b6000611f7e84828501611ee0565b91505092915050565b600060208284031215611f9957600080fd5b6000611fa784828501611ef5565b91505092915050565b60008060408385031215611fc357600080fd5b6000611fd185828601611ef5565b9250506020611fe285828601611f34565b9150509250929050565b60008060008060008060c0878903121561200557600080fd5b600061201389828a01611ef5565b965050602061202489828a01611f34565b955050604061203589828a01611f34565b945050606087013567ffffffffffffffff81111561205257600080fd5b61205e89828a01611f0a565b935050608087013567ffffffffffffffff81111561207b57600080fd5b61208789828a01611f0a565b92505060a087013567ffffffffffffffff8111156120a457600080fd5b6120b089828a01611f0a565b9150509295509295509295565b6000806000606084860312156120d257600080fd5b600084013567ffffffffffffffff8111156120ec57600080fd5b6120f886828701611f0a565b935050602084013567ffffffffffffffff81111561211557600080fd5b61212186828701611f0a565b925050604084013567ffffffffffffffff81111561213e57600080fd5b61214a86828701611f0a565b9150509250925092565b60006020828403121561216657600080fd5b600061217484828501611f49565b91505092915050565b600061218983836124ca565b905092915050565b600061219d8383612521565b905092915050565b6121ae81612a6d565b82525050565b6121bd81612a6d565b82525050565b60006121ce826129ba565b6121d881856129f5565b9350836020820285016121ea85612985565b8060005b858110156122265784840389528151612207858261217d565b9450612212836129db565b925060208a019950506001810190506121ee565b50829750879550505050505092915050565b6000612243826129c5565b61224d8185612a06565b93508360208202850161225f85612995565b8060005b8581101561229b578484038952815161227c8582612191565b9450612287836129e8565b925060208a01995050600181019050612263565b50829750879550505050505092915050565b6122b681612abc565b82525050565b6122c581612abc565b82525050565b60006122d6826129d0565b6122e08185612a17565b93506122f0818560208601612add565b6122f981612c78565b840191505092915050565b600061230f826129d0565b6123198185612a28565b9350612329818560208601612add565b61233281612c78565b840191505092915050565b6000815461234a81612b10565b6123548186612a28565b9450600182166000811461236f5760018114612381576123b4565b60ff19831686526020860193506123b4565b61238a856129a5565b60005b838110156123ac5781548189015260018201915060208101905061238d565b808801955050505b50505092915050565b60006123ca602683612a28565b91506123d582612c89565b604082019050919050565b60006123ed600e83612a28565b91506123f882612cd8565b602082019050919050565b6000612410601183612a28565b915061241b82612d01565b602082019050919050565b6000612433602083612a28565b915061243e82612d2a565b602082019050919050565b6000612456601983612a28565b915061246182612d53565b602082019050919050565b6000606083016000830151848203600086015261248982826122cb565b915050602083015184820360208601526124a382826122cb565b915050604083015184820360408601526124bd82826122cb565b9150508091505092915050565b60006060830160008301516124e260008601826122ad565b50602083015184820360208601526124fa82826122cb565b9150506040830151848203604086015261251482826122cb565b9150508091505092915050565b60006101208301600083015161253a60008601826126c7565b50602083015161254d60208601826126c7565b50604083015161256060408601826121a5565b50606083015161257360608601826126c7565b50608083015161258660808601826126c7565b5060a083015161259960a08601826122ad565b5060c083015184820360c08601526125b182826122cb565b91505060e083015184820360e08601526125cb82826122cb565b9150506101008301518482036101008601526125e782826122cb565b9150508091505092915050565b60006101208301600083015161260d60008601826126c7565b50602083015161262060208601826126c7565b50604083015161263360408601826121a5565b50606083015161264660608601826126c7565b50608083015161265960808601826126c7565b5060a083015161266c60a08601826122ad565b5060c083015184820360c086015261268482826122cb565b91505060e083015184820360e086015261269e82826122cb565b9150506101008301518482036101008601526126ba82826122cb565b9150508091505092915050565b6126d081612ab2565b82525050565b6126df81612ab2565b82525050565b60006020820190506126fa60008301846121b4565b92915050565b6000602082019050818103600083015261271a81846121c3565b905092915050565b6000602082019050818103600083015261273c8184612238565b905092915050565b600060608201905061275960008301866122bc565b818103602083015261276b818561233d565b9050818103604083015261277f818461233d565b9050949350505050565b600060608201905081810360008301526127a38186612304565b905081810360208301526127b78185612304565b905081810360408301526127cb8184612304565b9050949350505050565b600060208201905081810360008301526127ee816123bd565b9050919050565b6000602082019050818103600083015261280e816123e0565b9050919050565b6000602082019050818103600083015261282e81612403565b9050919050565b6000602082019050818103600083015261284e81612426565b9050919050565b6000602082019050818103600083015261286e81612449565b9050919050565b6000602082019050818103600083015261288f818461246c565b905092915050565b600060208201905081810360008301526128b181846125f4565b905092915050565b600060c0820190506128ce60008301896126d6565b6128db60208301886126d6565b6128e860408301876122bc565b81810360608301526128fa8186612304565b9050818103608083015261290e8185612304565b905081810360a08301526129228184612304565b9050979650505050505050565b600061293961294a565b90506129458282612b42565b919050565b6000604051905090565b600067ffffffffffffffff82111561296f5761296e612c49565b5b61297882612c78565b9050602081019050919050565b6000819050602082019050919050565b6000819050602082019050919050565b60008190508160005260206000209050919050565b600081519050919050565b600081519050919050565b600081519050919050565b6000602082019050919050565b6000602082019050919050565b600082825260208201905092915050565b600082825260208201905092915050565b600082825260208201905092915050565b600082825260208201905092915050565b6000612a4482612ab2565b9150612a4f83612ab2565b925082821015612a6257612a61612bbc565b5b828203905092915050565b6000612a7882612a92565b9050919050565b6000819050612a8d82612d7c565b919050565b600073ffffffffffffffffffffffffffffffffffffffff82169050919050565b6000819050919050565b6000612ac782612a7f565b9050919050565b82818337600083830152505050565b60005b83811015612afb578082015181840152602081019050612ae0565b83811115612b0a576000848401525b50505050565b60006002820490506001821680612b2857607f821691505b60208210811415612b3c57612b3b612c1a565b5b50919050565b612b4b82612c78565b810181811067ffffffffffffffff82111715612b6a57612b69612c49565b5b80604052505050565b6000612b7e82612ab2565b91507fffffffffffffffffffffffffffffffffffffffffffffffffffffffffffffffff821415612bb157612bb0612bbc565b5b600182019050919050565b7f4e487b7100000000000000000000000000000000000000000000000000000000600052601160045260246000fd5b7f4e487b7100000000000000000000000000000000000000000000000000000000600052602160045260246000fd5b7f4e487b7100000000000000000000000000000000000000000000000000000000600052602260045260246000fd5b7f4e487b7100000000000000000000000000000000000000000000000000000000600052604160045260246000fd5b6000601f19601f8301169050919050565b7f4f776e61626c653a206e6577206f776e657220697320746865207a65726f206160008201527f6464726573730000000000000000000000000000000000000000000000000000602082015250565b7f506c61636520636f6d706c657465000000000000000000000000000000000000600082015250565b7f50726963652069732064697374696e6374000000000000000000000000000000600082015250565b7f4f776e61626c653a2063616c6c6572206973206e6f7420746865206f776e6572600082015250565b7f56616c7565206973206e6f7420302e3030303120657468657200000000000000600082015250565b60028110612d8d57612d8c612beb565b5b50565b612d9981612a6d565b8114612da457600080fd5b50565b60028110612db457600080fd5b50565b612dc081612ab2565b8114612dcb57600080fd5b5056fea2646970667358221220be2404271fd7e2891b689a7c44d9fc44b8e3714050c7c03a211f199d747d019864736f6c63430008040033",
  "linkReferences": {},
  "deployedLinkReferences": {}
}