{
  "_format": "hh-sol-artifact-1",
  "contractName": "ReservApp",
  "sourceName": "contracts/ReservApp.sol",
  "abi": [
    {
      "inputs": [
        {
          "internalType": "address",
          "name": "_nft",
          "type": "address"
        }
      ],
      "stateMutability": "nonpayable",
      "type": "constructor"
    },
    {
      "anonymous": false,
      "inputs": [
        {
          "indexed": true,
          "internalType": "uint8",
          "name": "index",
          "type": "uint8"
        },
        {
          "indexed": false,
          "internalType": "string",
          "name": "name",
          "type": "string"
        },
        {
          "indexed": false,
          "internalType": "string",
          "name": "description",
          "type": "string"
        },
        {
          "indexed": false,
          "internalType": "string",
          "name": "image",
          "type": "string"
        }
      ],
      "name": "NewCategoryEvent",
      "type": "event"
    },
    {
      "anonymous": false,
      "inputs": [
        {
          "indexed": true,
          "internalType": "address",
          "name": "direction",
          "type": "address"
        },
        {
          "indexed": false,
          "internalType": "string",
          "name": "last_name",
          "type": "string"
        },
        {
          "indexed": false,
          "internalType": "string",
          "name": "first_name",
          "type": "string"
        },
        {
          "indexed": false,
          "internalType": "string",
          "name": "email",
          "type": "string"
        }
      ],
      "name": "NewPersonEvent",
      "type": "event"
    },
    {
      "anonymous": false,
      "inputs": [
        {
          "indexed": true,
          "internalType": "uint256",
          "name": "id",
          "type": "uint256"
        },
        {
          "indexed": true,
          "internalType": "uint256",
          "name": "index",
          "type": "uint256"
        },
        {
          "indexed": false,
          "internalType": "uint256",
          "name": "size",
          "type": "uint256"
        },
        {
          "indexed": false,
          "internalType": "uint256",
          "name": "price",
          "type": "uint256"
        },
        {
          "indexed": false,
          "internalType": "uint8",
          "name": "category",
          "type": "uint8"
        },
        {
          "indexed": false,
          "internalType": "string",
          "name": "title",
          "type": "string"
        },
        {
          "indexed": false,
          "internalType": "string",
          "name": "description",
          "type": "string"
        },
        {
          "indexed": false,
          "internalType": "string",
          "name": "image",
          "type": "string"
        }
      ],
      "name": "NewPlaceEvent",
      "type": "event"
    },
    {
      "anonymous": false,
      "inputs": [
        {
          "indexed": true,
          "internalType": "address",
          "name": "user",
          "type": "address"
        },
        {
          "indexed": false,
          "internalType": "uint8",
          "name": "category",
          "type": "uint8"
        },
        {
          "indexed": true,
          "internalType": "uint256",
          "name": "index",
          "type": "uint256"
        },
        {
          "indexed": false,
          "internalType": "string",
          "name": "name",
          "type": "string"
        },
        {
          "indexed": false,
          "internalType": "string",
          "name": "description",
          "type": "string"
        }
      ],
      "name": "NewRentEvent",
      "type": "event"
    },
    {
      "stateMutability": "payable",
      "type": "fallback"
    },
    {
      "inputs": [],
      "name": "destroy",
      "outputs": [],
      "stateMutability": "nonpayable",
      "type": "function"
    },
    {
      "inputs": [],
      "name": "getBalance",
      "outputs": [
        {
          "internalType": "uint256",
          "name": "",
          "type": "uint256"
        }
      ],
      "stateMutability": "view",
      "type": "function"
    },
    {
      "inputs": [],
      "name": "getCategories",
      "outputs": [
        {
          "components": [
            {
              "internalType": "uint8",
              "name": "index",
              "type": "uint8"
            },
            {
              "internalType": "string",
              "name": "name",
              "type": "string"
            },
            {
              "internalType": "string",
              "name": "description",
              "type": "string"
            },
            {
              "internalType": "string",
              "name": "image",
              "type": "string"
            }
          ],
          "internalType": "struct ReservApp.Category[]",
          "name": "",
          "type": "tuple[]"
        }
      ],
      "stateMutability": "view",
      "type": "function"
    },
    {
      "inputs": [],
      "name": "getMyPlaces",
      "outputs": [
        {
          "components": [
            {
              "internalType": "uint8",
              "name": "category",
              "type": "uint8"
            },
            {
              "internalType": "string",
              "name": "title",
              "type": "string"
            },
            {
              "internalType": "string",
              "name": "description",
              "type": "string"
            }
          ],
          "internalType": "struct ReservApp.PlaceRent[]",
          "name": "",
          "type": "tuple[]"
        }
      ],
      "stateMutability": "view",
      "type": "function"
    },
    {
      "inputs": [],
      "name": "getPersonByAddress",
      "outputs": [
        {
          "components": [
            {
              "internalType": "string",
              "name": "first_name",
              "type": "string"
            },
            {
              "internalType": "string",
              "name": "last_name",
              "type": "string"
            },
            {
              "internalType": "string",
              "name": "email",
              "type": "string"
            }
          ],
          "internalType": "struct ReservApp.Person",
          "name": "",
          "type": "tuple"
        }
      ],
      "stateMutability": "view",
      "type": "function"
    },
    {
      "inputs": [
        {
          "internalType": "uint8",
          "name": "category",
          "type": "uint8"
        },
        {
          "internalType": "uint256",
          "name": "index",
          "type": "uint256"
        }
      ],
      "name": "getPlaceById",
      "outputs": [
        {
          "components": [
            {
              "internalType": "uint256",
              "name": "id",
              "type": "uint256"
            },
            {
              "internalType": "uint256",
              "name": "index",
              "type": "uint256"
            },
            {
              "internalType": "address",
              "name": "owner",
              "type": "address"
            },
            {
              "internalType": "uint256",
              "name": "size",
              "type": "uint256"
            },
            {
              "internalType": "uint256",
              "name": "price",
              "type": "uint256"
            },
            {
              "internalType": "uint8",
              "name": "category",
              "type": "uint8"
            },
            {
              "internalType": "string",
              "name": "title",
              "type": "string"
            },
            {
              "internalType": "string",
              "name": "description",
              "type": "string"
            },
            {
              "internalType": "string",
              "name": "image",
              "type": "string"
            }
          ],
          "internalType": "struct ReservApp.Place",
          "name": "",
          "type": "tuple"
        }
      ],
      "stateMutability": "view",
      "type": "function"
    },
    {
      "inputs": [
        {
          "internalType": "uint8",
          "name": "category",
          "type": "uint8"
        }
      ],
      "name": "getPlacesByCategory",
      "outputs": [
        {
          "components": [
            {
              "internalType": "uint256",
              "name": "id",
              "type": "uint256"
            },
            {
              "internalType": "uint256",
              "name": "index",
              "type": "uint256"
            },
            {
              "internalType": "address",
              "name": "owner",
              "type": "address"
            },
            {
              "internalType": "uint256",
              "name": "size",
              "type": "uint256"
            },
            {
              "internalType": "uint256",
              "name": "price",
              "type": "uint256"
            },
            {
              "internalType": "uint8",
              "name": "category",
              "type": "uint8"
            },
            {
              "internalType": "string",
              "name": "title",
              "type": "string"
            },
            {
              "internalType": "string",
              "name": "description",
              "type": "string"
            },
            {
              "internalType": "string",
              "name": "image",
              "type": "string"
            }
          ],
          "internalType": "struct ReservApp.Place[]",
          "name": "",
          "type": "tuple[]"
        }
      ],
      "stateMutability": "view",
      "type": "function"
    },
    {
      "inputs": [],
      "name": "isOwner",
      "outputs": [
        {
          "internalType": "bool",
          "name": "",
          "type": "bool"
        }
      ],
      "stateMutability": "view",
      "type": "function"
    },
    {
      "inputs": [
        {
          "internalType": "string",
          "name": "first_name",
          "type": "string"
        },
        {
          "internalType": "string",
          "name": "last_name",
          "type": "string"
        },
        {
          "internalType": "string",
          "name": "email",
          "type": "string"
        }
      ],
      "name": "linkedPerson",
      "outputs": [],
      "stateMutability": "nonpayable",
      "type": "function"
    },
    {
      "inputs": [
        {
          "internalType": "string",
          "name": "category",
          "type": "string"
        },
        {
          "internalType": "string",
          "name": "description",
          "type": "string"
        },
        {
          "internalType": "string",
          "name": "image",
          "type": "string"
        }
      ],
      "name": "newCategory",
      "outputs": [],
      "stateMutability": "nonpayable",
      "type": "function"
    },
    {
      "inputs": [
        {
          "internalType": "uint8",
          "name": "category",
          "type": "uint8"
        },
        {
          "internalType": "uint256",
          "name": "price",
          "type": "uint256"
        },
        {
          "internalType": "uint256",
          "name": "size",
          "type": "uint256"
        },
        {
          "internalType": "string",
          "name": "title",
          "type": "string"
        },
        {
          "internalType": "string",
          "name": "description",
          "type": "string"
        },
        {
          "internalType": "string",
          "name": "image",
          "type": "string"
        }
      ],
      "name": "newPlace",
      "outputs": [],
      "stateMutability": "payable",
      "type": "function"
    },
    {
      "inputs": [
        {
          "internalType": "uint8",
          "name": "category",
          "type": "uint8"
        },
        {
          "internalType": "uint256",
          "name": "index",
          "type": "uint256"
        }
      ],
      "name": "rentPlace",
      "outputs": [],
      "stateMutability": "payable",
      "type": "function"
    },
    {
      "inputs": [],
      "name": "withdraw",
      "outputs": [
        {
          "internalType": "bool",
          "name": "",
          "type": "bool"
        }
      ],
      "stateMutability": "payable",
      "type": "function"
    },
    {
      "stateMutability": "payable",
      "type": "receive"
    }
  ],
  "bytecode": "0x608060405260006001806101000a81548160ff0219169083151502179055503480156200002b57600080fd5b506040516200320a3803806200320a8339818101604052810190620000519190620000f1565b33600360006101000a81548173ffffffffffffffffffffffffffffffffffffffff021916908373ffffffffffffffffffffffffffffffffffffffff16021790555080600860006101000a81548173ffffffffffffffffffffffffffffffffffffffff021916908373ffffffffffffffffffffffffffffffffffffffff160217905550506200016b565b600081519050620000eb8162000151565b92915050565b6000602082840312156200010457600080fd5b60006200011484828501620000da565b91505092915050565b60006200012a8262000131565b9050919050565b600073ffffffffffffffffffffffffffffffffffffffff82169050919050565b6200015c816200011d565b81146200016857600080fd5b50565b61308f806200017b6000396000f3fe6080604052600436106100c65760003560e01c806378ee976d1161007f578063aaf2215311610059578063aaf2215314610220578063d4844ee21461023c578063e85b39be14610279578063eb38dd1b146102b6576100cd565b806378ee976d146101b357806383197ef0146101de5780638f32d59b146101f5576100cd565b806312065fe0146100cf5780633ccfd60b146100fa5780633fd3b494146101185780634db0412c1461014157806364ed3f941461016c57806369a6f4a814610197576100cd565b366100cd57005b005b3480156100db57600080fd5b506100e46102df565b6040516100f19190612a79565b60405180910390f35b610102610326565b60405161010f919061290e565b60405180910390f35b34801561012457600080fd5b5061013f600480360381019061013a9190611fcb565b610533565b005b34801561014d57600080fd5b5061015661063e565b60405161016391906128a8565b60405180910390f35b34801561017857600080fd5b50610181610870565b60405161018e9190612a35565b60405180910390f35b6101b160048036038101906101ac91906120b4565b610a7d565b005b3480156101bf57600080fd5b506101c8611090565b6040516101d591906128ca565b60405180910390f35b3480156101ea57600080fd5b506101f361126d565b005b34801561020157600080fd5b5061020a611338565b604051610217919061290e565b60405180910390f35b61023a600480360381019061023591906120f0565b611390565b005b34801561024857600080fd5b50610263600480360381019061025e91906120b4565b6115e5565b6040516102709190612a57565b60405180910390f35b34801561028557600080fd5b506102a0600480360381019061029b919061208b565b6118b1565b6040516102ad91906128ec565b60405180910390f35b3480156102c257600080fd5b506102dd60048036038101906102d89190611fcb565b611b7b565b005b6000600660003373ffffffffffffffffffffffffffffffffffffffff1673ffffffffffffffffffffffffffffffffffffffff16815260200190815260200160002054905090565b600060018054906101000a900460ff161561034057600080fd5b60018060016101000a81548160ff0219169083151502179055506000600660003373ffffffffffffffffffffffffffffffffffffffff1673ffffffffffffffffffffffffffffffffffffffff16815260200190815260200160002054116103dc576040517f08c379a00000000000000000000000000000000000000000000000000000000081526004016103d3906129b5565b60405180910390fd5b6000600660003373ffffffffffffffffffffffffffffffffffffffff1673ffffffffffffffffffffffffffffffffffffffff1681526020019081526020016000205490506000600660003373ffffffffffffffffffffffffffffffffffffffff1673ffffffffffffffffffffffffffffffffffffffff1681526020019081526020016000208190555060003373ffffffffffffffffffffffffffffffffffffffff168260405161048b90612878565b60006040518083038185875af1925050503d80600081146104c8576040519150601f19603f3d011682016040523d82523d6000602084013e6104cd565b606091505b5050905080610511576040517f08c379a000000000000000000000000000000000000000000000000000000000815260040161050890612a15565b60405180910390fd5b809250505060006001806101000a81548160ff02191690831515021790555090565b604051806060016040528084815260200183815260200182815250600760003373ffffffffffffffffffffffffffffffffffffffff1673ffffffffffffffffffffffffffffffffffffffff16815260200190815260200160002060008201518160000190805190602001906105a9929190611d6e565b5060208201518160010190805190602001906105c6929190611d6e565b5060408201518160020190805190602001906105e3929190611d6e565b509050503373ffffffffffffffffffffffffffffffffffffffff167f3e7860a6e79c8425a92caed3a4c895b05709742f2e8f4c8f7152b8607ebcf6c084848460405161063193929190612929565b60405180910390a2505050565b60606002805480602002602001604051908101604052809291908181526020016000905b8282101561086757838290600052602060002090600402016040518060800160405290816000820160009054906101000a900460ff1660ff1660ff1681526020016001820180546106b290612dbe565b80601f01602080910402602001604051908101604052809291908181526020018280546106de90612dbe565b801561072b5780601f106107005761010080835404028352916020019161072b565b820191906000526020600020905b81548152906001019060200180831161070e57829003601f168201915b5050505050815260200160028201805461074490612dbe565b80601f016020809104026020016040519081016040528092919081815260200182805461077090612dbe565b80156107bd5780601f10610792576101008083540402835291602001916107bd565b820191906000526020600020905b8154815290600101906020018083116107a057829003601f168201915b505050505081526020016003820180546107d690612dbe565b80601f016020809104026020016040519081016040528092919081815260200182805461080290612dbe565b801561084f5780601f106108245761010080835404028352916020019161084f565b820191906000526020600020905b81548152906001019060200180831161083257829003601f168201915b50505050508152505081526020019060010190610662565b50505050905090565b610878611df4565b600760003373ffffffffffffffffffffffffffffffffffffffff1673ffffffffffffffffffffffffffffffffffffffff1681526020019081526020016000206040518060600160405290816000820180546108d290612dbe565b80601f01602080910402602001604051908101604052809291908181526020018280546108fe90612dbe565b801561094b5780601f106109205761010080835404028352916020019161094b565b820191906000526020600020905b81548152906001019060200180831161092e57829003601f168201915b5050505050815260200160018201805461096490612dbe565b80601f016020809104026020016040519081016040528092919081815260200182805461099090612dbe565b80156109dd5780601f106109b2576101008083540402835291602001916109dd565b820191906000526020600020905b8154815290600101906020018083116109c057829003601f168201915b505050505081526020016002820180546109f690612dbe565b80601f0160208091040260200160405190810160405280929190818152602001828054610a2290612dbe565b8015610a6f5780601f10610a4457610100808354040283529160200191610a6f565b820191906000526020600020905b815481529060010190602001808311610a5257829003601f168201915b505050505081525050905090565b6000600460008460ff1660ff1681526020019081526020016000208281548110610ad0577f4e487b7100000000000000000000000000000000000000000000000000000000600052603260045260246000fd5b906000526020600020906009020190506000816003015411610b27576040517f08c379a0000000000000000000000000000000000000000000000000000000008152600401610b1e90612975565b60405180910390fd5b34816004015414610b6d576040517f08c379a0000000000000000000000000000000000000000000000000000000008152600401610b6490612995565b60405180910390fd5b6001816003016000828254610b829190612cf3565b9250508190555080600460008560ff1660ff1681526020019081526020016000208381548110610bdb577f4e487b7100000000000000000000000000000000000000000000000000000000600052603260045260246000fd5b906000526020600020906009020160008201548160000155600182015481600101556002820160009054906101000a900473ffffffffffffffffffffffffffffffffffffffff168160020160006101000a81548173ffffffffffffffffffffffffffffffffffffffff021916908373ffffffffffffffffffffffffffffffffffffffff16021790555060038201548160030155600482015481600401556005820160009054906101000a900460ff168160050160006101000a81548160ff021916908360ff1602179055506006820181600601908054610cba90612dbe565b610cc5929190611e15565b506007820181600701908054610cda90612dbe565b610ce5929190611e15565b506008820181600801908054610cfa90612dbe565b610d05929190611e15565b5090505060008160020160009054906101000a900473ffffffffffffffffffffffffffffffffffffffff169050600560003373ffffffffffffffffffffffffffffffffffffffff1673ffffffffffffffffffffffffffffffffffffffff16815260200190815260200160002060405180606001604052808660ff168152602001846006018054610d9490612dbe565b80601f0160208091040260200160405190810160405280929190818152602001828054610dc090612dbe565b8015610e0d5780601f10610de257610100808354040283529160200191610e0d565b820191906000526020600020905b815481529060010190602001808311610df057829003601f168201915b50505050508152602001846007018054610e2690612dbe565b80601f0160208091040260200160405190810160405280929190818152602001828054610e5290612dbe565b8015610e9f5780601f10610e7457610100808354040283529160200191610e9f565b820191906000526020600020905b815481529060010190602001808311610e8257829003601f168201915b5050505050815250908060018154018082558091505060019003906000526020600020906003020160009091909190915060008201518160000160006101000a81548160ff021916908360ff1602179055506020820151816001019080519060200190610f0d929190611d6e565b506040820151816002019080519060200190610f2a929190611d6e565b505050600860009054906101000a900473ffffffffffffffffffffffffffffffffffffffff1673ffffffffffffffffffffffffffffffffffffffff166354ba0f27336040518263ffffffff1660e01b8152600401610f88919061288d565b602060405180830381600087803b158015610fa257600080fd5b505af1158015610fb6573d6000803e3d6000fd5b505050506040513d601f19601f82011682018060405250810190610fda9190612062565b5034600660008373ffffffffffffffffffffffffffffffffffffffff1673ffffffffffffffffffffffffffffffffffffffff168152602001908152602001600020600082825461102a9190612c9d565b92505081905550823373ffffffffffffffffffffffffffffffffffffffff167f63cd513bbfa9af637f007bdd8cfeb1976f2914b5493b3d9841533c3b4390118786856006018660070160405161108293929190612b0a565b60405180910390a350505050565b6060600560003373ffffffffffffffffffffffffffffffffffffffff1673ffffffffffffffffffffffffffffffffffffffff168152602001908152602001600020805480602002602001604051908101604052809291908181526020016000905b8282101561126457838290600052602060002090600302016040518060600160405290816000820160009054906101000a900460ff1660ff1660ff16815260200160018201805461114190612dbe565b80601f016020809104026020016040519081016040528092919081815260200182805461116d90612dbe565b80156111ba5780601f1061118f576101008083540402835291602001916111ba565b820191906000526020600020905b81548152906001019060200180831161119d57829003601f168201915b505050505081526020016002820180546111d390612dbe565b80601f01602080910402602001604051908101604052809291908181526020018280546111ff90612dbe565b801561124c5780601f106112215761010080835404028352916020019161124c565b820191906000526020600020905b81548152906001019060200180831161122f57829003601f168201915b505050505081525050815260200190600101906110f1565b50505050905090565b3373ffffffffffffffffffffffffffffffffffffffff16600360009054906101000a900473ffffffffffffffffffffffffffffffffffffffff1673ffffffffffffffffffffffffffffffffffffffff16146112fd576040517f08c379a00000000000000000000000000000000000000000000000000000000081526004016112f4906129d5565b60405180910390fd5b600360009054906101000a900473ffffffffffffffffffffffffffffffffffffffff1673ffffffffffffffffffffffffffffffffffffffff16ff5b60003373ffffffffffffffffffffffffffffffffffffffff16600360009054906101000a900473ffffffffffffffffffffffffffffffffffffffff1673ffffffffffffffffffffffffffffffffffffffff1614905090565b655af3107a400034146113d8576040517f08c379a00000000000000000000000000000000000000000000000000000000081526004016113cf906129f5565b60405180910390fd5b6000600460008860ff1660ff168152602001908152602001600020805490509050600460008860ff1660ff16815260200190815260200160002060405180610120016040528060005481526020018381526020013373ffffffffffffffffffffffffffffffffffffffff1681526020018781526020018881526020018960ff168152602001868152602001858152602001848152509080600181540180825580915050600190039060005260206000209060090201600090919091909150600082015181600001556020820151816001015560408201518160020160006101000a81548173ffffffffffffffffffffffffffffffffffffffff021916908373ffffffffffffffffffffffffffffffffffffffff160217905550606082015181600301556080820151816004015560a08201518160050160006101000a81548160ff021916908360ff16021790555060c0820151816006019080519060200190611542929190611d6e565b5060e082015181600701908051906020019061155f929190611d6e565b5061010082015181600801908051906020019061157d929190611d6e565b50505060008081548092919061159290612e21565b9190505550806000547f55b682d69381b8942b84474fac0361900424a7b2526315b28db6ac4c80437fb987898b8989896040516115d496959493929190612a94565b60405180910390a350505050505050565b6115ed611ea2565b600460008460ff1660ff168152602001908152602001600020828154811061163e577f4e487b7100000000000000000000000000000000000000000000000000000000600052603260045260246000fd5b90600052602060002090600902016040518061012001604052908160008201548152602001600182015481526020016002820160009054906101000a900473ffffffffffffffffffffffffffffffffffffffff1673ffffffffffffffffffffffffffffffffffffffff1673ffffffffffffffffffffffffffffffffffffffff16815260200160038201548152602001600482015481526020016005820160009054906101000a900460ff1660ff1660ff16815260200160068201805461170390612dbe565b80601f016020809104026020016040519081016040528092919081815260200182805461172f90612dbe565b801561177c5780601f106117515761010080835404028352916020019161177c565b820191906000526020600020905b81548152906001019060200180831161175f57829003601f168201915b5050505050815260200160078201805461179590612dbe565b80601f01602080910402602001604051908101604052809291908181526020018280546117c190612dbe565b801561180e5780601f106117e35761010080835404028352916020019161180e565b820191906000526020600020905b8154815290600101906020018083116117f157829003601f168201915b5050505050815260200160088201805461182790612dbe565b80601f016020809104026020016040519081016040528092919081815260200182805461185390612dbe565b80156118a05780601f10611875576101008083540402835291602001916118a0565b820191906000526020600020905b81548152906001019060200180831161188357829003601f168201915b505050505081525050905092915050565b6060600460008360ff1660ff168152602001908152602001600020805480602002602001604051908101604052809291908181526020016000905b82821015611b7057838290600052602060002090600902016040518061012001604052908160008201548152602001600182015481526020016002820160009054906101000a900473ffffffffffffffffffffffffffffffffffffffff1673ffffffffffffffffffffffffffffffffffffffff1673ffffffffffffffffffffffffffffffffffffffff16815260200160038201548152602001600482015481526020016005820160009054906101000a900460ff1660ff1660ff1681526020016006820180546119bb90612dbe565b80601f01602080910402602001604051908101604052809291908181526020018280546119e790612dbe565b8015611a345780601f10611a0957610100808354040283529160200191611a34565b820191906000526020600020905b815481529060010190602001808311611a1757829003601f168201915b50505050508152602001600782018054611a4d90612dbe565b80601f0160208091040260200160405190810160405280929190818152602001828054611a7990612dbe565b8015611ac65780601f10611a9b57610100808354040283529160200191611ac6565b820191906000526020600020905b815481529060010190602001808311611aa957829003601f168201915b50505050508152602001600882018054611adf90612dbe565b80601f0160208091040260200160405190810160405280929190818152602001828054611b0b90612dbe565b8015611b585780601f10611b2d57610100808354040283529160200191611b58565b820191906000526020600020905b815481529060010190602001808311611b3b57829003601f168201915b505050505081525050815260200190600101906118ec565b505050509050919050565b3373ffffffffffffffffffffffffffffffffffffffff16600360009054906101000a900473ffffffffffffffffffffffffffffffffffffffff1673ffffffffffffffffffffffffffffffffffffffff1614611c0b576040517f08c379a0000000000000000000000000000000000000000000000000000000008152600401611c02906129d5565b60405180910390fd5b60026040518060800160405280600160009054906101000a900460ff1660ff16815260200185815260200184815260200183815250908060018154018082558091505060019003906000526020600020906004020160009091909190915060008201518160000160006101000a81548160ff021916908360ff1602179055506020820151816001019080519060200190611ca6929190611d6e565b506040820151816002019080519060200190611cc3929190611d6e565b506060820151816003019080519060200190611ce0929190611d6e565b5050506001600081819054906101000a900460ff1680929190611d0290612e6a565b91906101000a81548160ff021916908360ff16021790555050600160009054906101000a900460ff1660ff167fba308579c9f6e1ed825ce431889b08f19cd1da2c7a99b294856a10acf88162c6848484604051611d6193929190612929565b60405180910390a2505050565b828054611d7a90612dbe565b90600052602060002090601f016020900481019282611d9c5760008555611de3565b82601f10611db557805160ff1916838001178555611de3565b82800160010185558215611de3579182015b82811115611de2578251825591602001919060010190611dc7565b5b509050611df09190611f07565b5090565b60405180606001604052806060815260200160608152602001606081525090565b828054611e2190612dbe565b90600052602060002090601f016020900481019282611e435760008555611e91565b82601f10611e545780548555611e91565b82800160010185558215611e9157600052602060002091601f016020900482015b82811115611e90578254825591600101919060010190611e75565b5b509050611e9e9190611f07565b5090565b6040518061012001604052806000815260200160008152602001600073ffffffffffffffffffffffffffffffffffffffff1681526020016000815260200160008152602001600060ff1681526020016060815260200160608152602001606081525090565b5b80821115611f20576000816000905550600101611f08565b5090565b6000611f37611f3284612b74565b612b4f565b905082815260208101848484011115611f4f57600080fd5b611f5a848285612d7c565b509392505050565b600082601f830112611f7357600080fd5b8135611f83848260208601611f24565b91505092915050565b600081359050611f9b8161302b565b92915050565b600081519050611fb08161302b565b92915050565b600081359050611fc581613042565b92915050565b600080600060608486031215611fe057600080fd5b600084013567ffffffffffffffff811115611ffa57600080fd5b61200686828701611f62565b935050602084013567ffffffffffffffff81111561202357600080fd5b61202f86828701611f62565b925050604084013567ffffffffffffffff81111561204c57600080fd5b61205886828701611f62565b9150509250925092565b60006020828403121561207457600080fd5b600061208284828501611fa1565b91505092915050565b60006020828403121561209d57600080fd5b60006120ab84828501611fb6565b91505092915050565b600080604083850312156120c757600080fd5b60006120d585828601611fb6565b92505060206120e685828601611f8c565b9150509250929050565b60008060008060008060c0878903121561210957600080fd5b600061211789828a01611fb6565b965050602061212889828a01611f8c565b955050604061213989828a01611f8c565b945050606087013567ffffffffffffffff81111561215657600080fd5b61216289828a01611f62565b935050608087013567ffffffffffffffff81111561217f57600080fd5b61218b89828a01611f62565b92505060a087013567ffffffffffffffff8111156121a857600080fd5b6121b489828a01611f62565b9150509295509295509295565b60006121cd8383612570565b905092915050565b60006121e1838361263f565b905092915050565b60006121f58383612696565b905092915050565b61220681612d27565b82525050565b61221581612d27565b82525050565b600061222682612bea565b6122308185612c3d565b93508360208202850161224285612ba5565b8060005b8581101561227e578484038952815161225f85826121c1565b945061226a83612c16565b925060208a01995050600181019050612246565b50829750879550505050505092915050565b600061229b82612bf5565b6122a58185612c4e565b9350836020820285016122b785612bb5565b8060005b858110156122f357848403895281516122d485826121d5565b94506122df83612c23565b925060208a019950506001810190506122bb565b50829750879550505050505092915050565b600061231082612c00565b61231a8185612c5f565b93508360208202850161232c85612bc5565b8060005b85811015612368578484038952815161234985826121e9565b945061235483612c30565b925060208a01995050600181019050612330565b50829750879550505050505092915050565b61238381612d39565b82525050565b600061239482612c0b565b61239e8185612c7b565b93506123ae818560208601612d8b565b6123b781612f21565b840191505092915050565b60006123cd82612c0b565b6123d78185612c8c565b93506123e7818560208601612d8b565b6123f081612f21565b840191505092915050565b6000815461240881612dbe565b6124128186612c8c565b9450600182166000811461242d576001811461243f57612472565b60ff1983168652602086019350612472565b61244885612bd5565b60005b8381101561246a5781548189015260018201915060208101905061244b565b808801955050505b50505092915050565b6000612488600e83612c8c565b915061249382612f32565b602082019050919050565b60006124ab601183612c8c565b91506124b682612f5b565b602082019050919050565b60006124ce600c83612c8c565b91506124d982612f84565b602082019050919050565b60006124f1600f83612c8c565b91506124fc82612fad565b602082019050919050565b6000612514600083612c70565b915061251f82612fd6565b600082019050919050565b6000612537601983612c8c565b915061254282612fd9565b602082019050919050565b600061255a601983612c8c565b915061256582613002565b602082019050919050565b6000608083016000830151612588600086018261285a565b50602083015184820360208601526125a08282612389565b915050604083015184820360408601526125ba8282612389565b915050606083015184820360608601526125d48282612389565b9150508091505092915050565b600060608301600083015184820360008601526125fe8282612389565b915050602083015184820360208601526126188282612389565b915050604083015184820360408601526126328282612389565b9150508091505092915050565b6000606083016000830151612657600086018261285a565b506020830151848203602086015261266f8282612389565b915050604083015184820360408601526126898282612389565b9150508091505092915050565b6000610120830160008301516126af600086018261283c565b5060208301516126c2602086018261283c565b5060408301516126d560408601826121fd565b5060608301516126e8606086018261283c565b5060808301516126fb608086018261283c565b5060a083015161270e60a086018261285a565b5060c083015184820360c08601526127268282612389565b91505060e083015184820360e08601526127408282612389565b91505061010083015184820361010086015261275c8282612389565b9150508091505092915050565b600061012083016000830151612782600086018261283c565b506020830151612795602086018261283c565b5060408301516127a860408601826121fd565b5060608301516127bb606086018261283c565b5060808301516127ce608086018261283c565b5060a08301516127e160a086018261285a565b5060c083015184820360c08601526127f98282612389565b91505060e083015184820360e08601526128138282612389565b91505061010083015184820361010086015261282f8282612389565b9150508091505092915050565b61284581612d65565b82525050565b61285481612d65565b82525050565b61286381612d6f565b82525050565b61287281612d6f565b82525050565b600061288382612507565b9150819050919050565b60006020820190506128a2600083018461220c565b92915050565b600060208201905081810360008301526128c2818461221b565b905092915050565b600060208201905081810360008301526128e48184612290565b905092915050565b600060208201905081810360008301526129068184612305565b905092915050565b6000602082019050612923600083018461237a565b92915050565b6000606082019050818103600083015261294381866123c2565b9050818103602083015261295781856123c2565b9050818103604083015261296b81846123c2565b9050949350505050565b6000602082019050818103600083015261298e8161247b565b9050919050565b600060208201905081810360008301526129ae8161249e565b9050919050565b600060208201905081810360008301526129ce816124c1565b9050919050565b600060208201905081810360008301526129ee816124e4565b9050919050565b60006020820190508181036000830152612a0e8161252a565b9050919050565b60006020820190508181036000830152612a2e8161254d565b9050919050565b60006020820190508181036000830152612a4f81846125e1565b905092915050565b60006020820190508181036000830152612a718184612769565b905092915050565b6000602082019050612a8e600083018461284b565b92915050565b600060c082019050612aa9600083018961284b565b612ab6602083018861284b565b612ac36040830187612869565b8181036060830152612ad581866123c2565b90508181036080830152612ae981856123c2565b905081810360a0830152612afd81846123c2565b9050979650505050505050565b6000606082019050612b1f6000830186612869565b8181036020830152612b3181856123fb565b90508181036040830152612b4581846123fb565b9050949350505050565b6000612b59612b6a565b9050612b658282612df0565b919050565b6000604051905090565b600067ffffffffffffffff821115612b8f57612b8e612ef2565b5b612b9882612f21565b9050602081019050919050565b6000819050602082019050919050565b6000819050602082019050919050565b6000819050602082019050919050565b60008190508160005260206000209050919050565b600081519050919050565b600081519050919050565b600081519050919050565b600081519050919050565b6000602082019050919050565b6000602082019050919050565b6000602082019050919050565b600082825260208201905092915050565b600082825260208201905092915050565b600082825260208201905092915050565b600081905092915050565b600082825260208201905092915050565b600082825260208201905092915050565b6000612ca882612d65565b9150612cb383612d65565b9250827fffffffffffffffffffffffffffffffffffffffffffffffffffffffffffffffff03821115612ce857612ce7612e94565b5b828201905092915050565b6000612cfe82612d65565b9150612d0983612d65565b925082821015612d1c57612d1b612e94565b5b828203905092915050565b6000612d3282612d45565b9050919050565b60008115159050919050565b600073ffffffffffffffffffffffffffffffffffffffff82169050919050565b6000819050919050565b600060ff82169050919050565b82818337600083830152505050565b60005b83811015612da9578082015181840152602081019050612d8e565b83811115612db8576000848401525b50505050565b60006002820490506001821680612dd657607f821691505b60208210811415612dea57612de9612ec3565b5b50919050565b612df982612f21565b810181811067ffffffffffffffff82111715612e1857612e17612ef2565b5b80604052505050565b6000612e2c82612d65565b91507fffffffffffffffffffffffffffffffffffffffffffffffffffffffffffffffff821415612e5f57612e5e612e94565b5b600182019050919050565b6000612e7582612d6f565b915060ff821415612e8957612e88612e94565b5b600182019050919050565b7f4e487b7100000000000000000000000000000000000000000000000000000000600052601160045260246000fd5b7f4e487b7100000000000000000000000000000000000000000000000000000000600052602260045260246000fd5b7f4e487b7100000000000000000000000000000000000000000000000000000000600052604160045260246000fd5b6000601f19601f8301169050919050565b7f506c61636520636f6d706c657465000000000000000000000000000000000000600082015250565b7f50726963652069732064697374696e6374000000000000000000000000000000600082015250565b7f42616c616e636520697320300000000000000000000000000000000000000000600082015250565b7f596f75206172656e74206f776e65720000000000000000000000000000000000600082015250565b50565b7f56616c7565206973206e6f7420302e3030303120657468657200000000000000600082015250565b7f5472616e73666572206973206e6f7420636f6d706c6574656400000000000000600082015250565b61303481612d65565b811461303f57600080fd5b50565b61304b81612d6f565b811461305657600080fd5b5056fea264697066735822122032575693c35332adc2d82df0ecc91ec84735a1c7d5197df3fb3a50d9f752c02964736f6c63430008040033",
  "linkReferences": {},
  "deployedLinkReferences": {}
}