{
  "_format": "hh-sol-artifact-1",
  "contractName": "ReservApp",
  "sourceName": "contracts/ReservApp.sol",
  "abi": [
    {
      "inputs": [
        {
          "internalType": "address",
          "name": "_nft",
          "type": "address"
        }
      ],
      "stateMutability": "nonpayable",
      "type": "constructor"
    },
    {
      "anonymous": false,
      "inputs": [
        {
          "indexed": true,
          "internalType": "uint8",
          "name": "index",
          "type": "uint8"
        },
        {
          "indexed": false,
          "internalType": "string",
          "name": "name",
          "type": "string"
        },
        {
          "indexed": false,
          "internalType": "string",
          "name": "description",
          "type": "string"
        },
        {
          "indexed": false,
          "internalType": "string",
          "name": "image",
          "type": "string"
        }
      ],
      "name": "NewCategoryEvent",
      "type": "event"
    },
    {
      "anonymous": false,
      "inputs": [
        {
          "indexed": true,
          "internalType": "address",
          "name": "direction",
          "type": "address"
        },
        {
          "indexed": false,
          "internalType": "string",
          "name": "last_name",
          "type": "string"
        },
        {
          "indexed": false,
          "internalType": "string",
          "name": "first_name",
          "type": "string"
        },
        {
          "indexed": false,
          "internalType": "string",
          "name": "email",
          "type": "string"
        }
      ],
      "name": "NewPersonEvent",
      "type": "event"
    },
    {
      "anonymous": false,
      "inputs": [
        {
          "indexed": true,
          "internalType": "uint256",
          "name": "id",
          "type": "uint256"
        },
        {
          "indexed": true,
          "internalType": "uint256",
          "name": "index",
          "type": "uint256"
        },
        {
          "indexed": false,
          "internalType": "uint256",
          "name": "size",
          "type": "uint256"
        },
        {
          "indexed": false,
          "internalType": "uint256",
          "name": "price",
          "type": "uint256"
        },
        {
          "indexed": false,
          "internalType": "uint8",
          "name": "category",
          "type": "uint8"
        },
        {
          "indexed": false,
          "internalType": "string",
          "name": "title",
          "type": "string"
        },
        {
          "indexed": false,
          "internalType": "string",
          "name": "description",
          "type": "string"
        },
        {
          "indexed": false,
          "internalType": "string",
          "name": "image",
          "type": "string"
        }
      ],
      "name": "NewPlaceEvent",
      "type": "event"
    },
    {
      "anonymous": false,
      "inputs": [
        {
          "indexed": true,
          "internalType": "address",
          "name": "user",
          "type": "address"
        },
        {
          "indexed": false,
          "internalType": "uint8",
          "name": "category",
          "type": "uint8"
        },
        {
          "indexed": true,
          "internalType": "uint256",
          "name": "index",
          "type": "uint256"
        },
        {
          "indexed": false,
          "internalType": "string",
          "name": "name",
          "type": "string"
        },
        {
          "indexed": false,
          "internalType": "string",
          "name": "description",
          "type": "string"
        }
      ],
      "name": "NewRentEvent",
      "type": "event"
    },
    {
      "anonymous": false,
      "inputs": [
        {
          "indexed": true,
          "internalType": "address",
          "name": "previousOwner",
          "type": "address"
        },
        {
          "indexed": true,
          "internalType": "address",
          "name": "newOwner",
          "type": "address"
        }
      ],
      "name": "OwnershipTransferred",
      "type": "event"
    },
    {
      "stateMutability": "payable",
      "type": "fallback"
    },
    {
      "inputs": [],
      "name": "getBalance",
      "outputs": [
        {
          "internalType": "uint256",
          "name": "",
          "type": "uint256"
        }
      ],
      "stateMutability": "view",
      "type": "function"
    },
    {
      "inputs": [],
      "name": "getCategories",
      "outputs": [
        {
          "components": [
            {
              "internalType": "uint8",
              "name": "index",
              "type": "uint8"
            },
            {
              "internalType": "string",
              "name": "name",
              "type": "string"
            },
            {
              "internalType": "string",
              "name": "description",
              "type": "string"
            },
            {
              "internalType": "string",
              "name": "image",
              "type": "string"
            }
          ],
          "internalType": "struct ReservApp.Category[]",
          "name": "",
          "type": "tuple[]"
        }
      ],
      "stateMutability": "view",
      "type": "function"
    },
    {
      "inputs": [],
      "name": "getMyPlaces",
      "outputs": [
        {
          "components": [
            {
              "internalType": "uint8",
              "name": "category",
              "type": "uint8"
            },
            {
              "internalType": "string",
              "name": "title",
              "type": "string"
            },
            {
              "internalType": "string",
              "name": "description",
              "type": "string"
            }
          ],
          "internalType": "struct ReservApp.PlaceRent[]",
          "name": "",
          "type": "tuple[]"
        }
      ],
      "stateMutability": "view",
      "type": "function"
    },
    {
      "inputs": [],
      "name": "getPersonByAddress",
      "outputs": [
        {
          "components": [
            {
              "internalType": "string",
              "name": "first_name",
              "type": "string"
            },
            {
              "internalType": "string",
              "name": "last_name",
              "type": "string"
            },
            {
              "internalType": "string",
              "name": "email",
              "type": "string"
            }
          ],
          "internalType": "struct ReservApp.Person",
          "name": "",
          "type": "tuple"
        }
      ],
      "stateMutability": "view",
      "type": "function"
    },
    {
      "inputs": [
        {
          "internalType": "uint8",
          "name": "category",
          "type": "uint8"
        },
        {
          "internalType": "uint256",
          "name": "index",
          "type": "uint256"
        }
      ],
      "name": "getPlaceById",
      "outputs": [
        {
          "components": [
            {
              "internalType": "uint256",
              "name": "id",
              "type": "uint256"
            },
            {
              "internalType": "uint256",
              "name": "index",
              "type": "uint256"
            },
            {
              "internalType": "address",
              "name": "owner",
              "type": "address"
            },
            {
              "internalType": "uint256",
              "name": "size",
              "type": "uint256"
            },
            {
              "internalType": "uint256",
              "name": "price",
              "type": "uint256"
            },
            {
              "internalType": "uint8",
              "name": "category",
              "type": "uint8"
            },
            {
              "internalType": "string",
              "name": "title",
              "type": "string"
            },
            {
              "internalType": "string",
              "name": "description",
              "type": "string"
            },
            {
              "internalType": "string",
              "name": "image",
              "type": "string"
            }
          ],
          "internalType": "struct ReservApp.Place",
          "name": "",
          "type": "tuple"
        }
      ],
      "stateMutability": "view",
      "type": "function"
    },
    {
      "inputs": [
        {
          "internalType": "uint8",
          "name": "category",
          "type": "uint8"
        }
      ],
      "name": "getPlacesByCategory",
      "outputs": [
        {
          "components": [
            {
              "internalType": "uint256",
              "name": "id",
              "type": "uint256"
            },
            {
              "internalType": "uint256",
              "name": "index",
              "type": "uint256"
            },
            {
              "internalType": "address",
              "name": "owner",
              "type": "address"
            },
            {
              "internalType": "uint256",
              "name": "size",
              "type": "uint256"
            },
            {
              "internalType": "uint256",
              "name": "price",
              "type": "uint256"
            },
            {
              "internalType": "uint8",
              "name": "category",
              "type": "uint8"
            },
            {
              "internalType": "string",
              "name": "title",
              "type": "string"
            },
            {
              "internalType": "string",
              "name": "description",
              "type": "string"
            },
            {
              "internalType": "string",
              "name": "image",
              "type": "string"
            }
          ],
          "internalType": "struct ReservApp.Place[]",
          "name": "",
          "type": "tuple[]"
        }
      ],
      "stateMutability": "view",
      "type": "function"
    },
    {
      "inputs": [],
      "name": "isOwner",
      "outputs": [
        {
          "internalType": "bool",
          "name": "",
          "type": "bool"
        }
      ],
      "stateMutability": "view",
      "type": "function"
    },
    {
      "inputs": [
        {
          "internalType": "string",
          "name": "first_name",
          "type": "string"
        },
        {
          "internalType": "string",
          "name": "last_name",
          "type": "string"
        },
        {
          "internalType": "string",
          "name": "email",
          "type": "string"
        }
      ],
      "name": "linkedPerson",
      "outputs": [],
      "stateMutability": "nonpayable",
      "type": "function"
    },
    {
      "inputs": [
        {
          "internalType": "string",
          "name": "category",
          "type": "string"
        },
        {
          "internalType": "string",
          "name": "description",
          "type": "string"
        },
        {
          "internalType": "string",
          "name": "image",
          "type": "string"
        }
      ],
      "name": "newCategory",
      "outputs": [],
      "stateMutability": "nonpayable",
      "type": "function"
    },
    {
      "inputs": [
        {
          "internalType": "uint8",
          "name": "category",
          "type": "uint8"
        },
        {
          "internalType": "uint256",
          "name": "price",
          "type": "uint256"
        },
        {
          "internalType": "uint256",
          "name": "size",
          "type": "uint256"
        },
        {
          "internalType": "string",
          "name": "title",
          "type": "string"
        },
        {
          "internalType": "string",
          "name": "description",
          "type": "string"
        },
        {
          "internalType": "string",
          "name": "image",
          "type": "string"
        }
      ],
      "name": "newPlace",
      "outputs": [],
      "stateMutability": "payable",
      "type": "function"
    },
    {
      "inputs": [],
      "name": "owner",
      "outputs": [
        {
          "internalType": "address",
          "name": "",
          "type": "address"
        }
      ],
      "stateMutability": "view",
      "type": "function"
    },
    {
      "inputs": [],
      "name": "renounceOwnership",
      "outputs": [],
      "stateMutability": "nonpayable",
      "type": "function"
    },
    {
      "inputs": [
        {
          "internalType": "uint8",
          "name": "category",
          "type": "uint8"
        },
        {
          "internalType": "uint256",
          "name": "index",
          "type": "uint256"
        }
      ],
      "name": "rentPlace",
      "outputs": [],
      "stateMutability": "payable",
      "type": "function"
    },
    {
      "inputs": [
        {
          "internalType": "address",
          "name": "newOwner",
          "type": "address"
        }
      ],
      "name": "transferOwnership",
      "outputs": [],
      "stateMutability": "nonpayable",
      "type": "function"
    },
    {
      "inputs": [],
      "name": "witdraw",
      "outputs": [
        {
          "internalType": "bool",
          "name": "",
          "type": "bool"
        }
      ],
      "stateMutability": "payable",
      "type": "function"
    },
    {
      "stateMutability": "payable",
      "type": "receive"
    }
  ],
  "bytecode": "0x60806040523480156200001157600080fd5b506040516200334638038062003346833981810160405281019062000037919062000182565b620000576200004b6200009f60201b60201c565b620000a760201b60201c565b80600860006101000a81548173ffffffffffffffffffffffffffffffffffffffff021916908373ffffffffffffffffffffffffffffffffffffffff16021790555050620001fc565b600033905090565b60008060009054906101000a900473ffffffffffffffffffffffffffffffffffffffff169050816000806101000a81548173ffffffffffffffffffffffffffffffffffffffff021916908373ffffffffffffffffffffffffffffffffffffffff1602179055508173ffffffffffffffffffffffffffffffffffffffff168173ffffffffffffffffffffffffffffffffffffffff167f8be0079c531659141344cd1fd0a4f28419497f9722a3daafe3b4186f6b6457e060405160405180910390a35050565b6000815190506200017c81620001e2565b92915050565b6000602082840312156200019557600080fd5b6000620001a5848285016200016b565b91505092915050565b6000620001bb82620001c2565b9050919050565b600073ffffffffffffffffffffffffffffffffffffffff82169050919050565b620001ed81620001ae565b8114620001f957600080fd5b50565b61313a806200020c6000396000f3fe6080604052600436106100ec5760003560e01c806378ee976d1161008a578063d4844ee211610059578063d4844ee21461028d578063e85b39be146102ca578063eb38dd1b14610307578063f2fde38b14610330576100f3565b806378ee976d146101f05780638da5cb5b1461021b5780638f32d59b14610246578063aaf2215314610271576100f3565b80634db0412c116100c65780634db0412c1461016757806364ed3f941461019257806369a6f4a8146101bd578063715018a6146101d9576100f3565b806312065fe0146100f55780632ddd0a14146101205780633fd3b4941461013e576100f3565b366100f357005b005b34801561010157600080fd5b5061010a610359565b6040516101179190612b10565b60405180910390f35b6101286103a0565b60405161013591906129c5565b60405180910390f35b34801561014a57600080fd5b50610165600480360381019061016091906120a5565b610453565b005b34801561017357600080fd5b5061017c61055e565b604051610189919061295f565b60405180910390f35b34801561019e57600080fd5b506101a7610790565b6040516101b49190612acc565b60405180910390f35b6101d760048036038101906101d2919061218e565b61099d565b005b3480156101e557600080fd5b506101ee610fb0565b005b3480156101fc57600080fd5b50610205611038565b6040516102129190612981565b60405180910390f35b34801561022757600080fd5b50610230611215565b60405161023d9190612944565b60405180910390f35b34801561025257600080fd5b5061025b61123e565b60405161026891906129c5565b60405180910390f35b61028b600480360381019061028691906121ca565b61127b565b005b34801561029957600080fd5b506102b460048036038101906102af919061218e565b6114d1565b6040516102c19190612aee565b60405180910390f35b3480156102d657600080fd5b506102f160048036038101906102ec9190612165565b61179d565b6040516102fe91906129a3565b60405180910390f35b34801561031357600080fd5b5061032e600480360381019061032991906120a5565b611a67565b005b34801561033c57600080fd5b506103576004803603810190610352919061207c565b611c46565b005b6000600660003373ffffffffffffffffffffffffffffffffffffffff1673ffffffffffffffffffffffffffffffffffffffff16815260200190815260200160002054905090565b6000803373ffffffffffffffffffffffffffffffffffffffff16600660003373ffffffffffffffffffffffffffffffffffffffff1673ffffffffffffffffffffffffffffffffffffffff168152602001908152602001600020546040516104069061292f565b60006040518083038185875af1925050503d8060008114610443576040519150601f19603f3d011682016040523d82523d6000602084013e610448565b606091505b505090508091505090565b604051806060016040528084815260200183815260200182815250600760003373ffffffffffffffffffffffffffffffffffffffff1673ffffffffffffffffffffffffffffffffffffffff16815260200190815260200160002060008201518160000190805190602001906104c9929190611e0a565b5060208201518160010190805190602001906104e6929190611e0a565b506040820151816002019080519060200190610503929190611e0a565b509050503373ffffffffffffffffffffffffffffffffffffffff167f3e7860a6e79c8425a92caed3a4c895b05709742f2e8f4c8f7152b8607ebcf6c0848484604051610551939291906129e0565b60405180910390a2505050565b60606003805480602002602001604051908101604052809291908181526020016000905b8282101561078757838290600052602060002090600402016040518060800160405290816000820160009054906101000a900460ff1660ff1660ff1681526020016001820180546105d290612e55565b80601f01602080910402602001604051908101604052809291908181526020018280546105fe90612e55565b801561064b5780601f106106205761010080835404028352916020019161064b565b820191906000526020600020905b81548152906001019060200180831161062e57829003601f168201915b5050505050815260200160028201805461066490612e55565b80601f016020809104026020016040519081016040528092919081815260200182805461069090612e55565b80156106dd5780601f106106b2576101008083540402835291602001916106dd565b820191906000526020600020905b8154815290600101906020018083116106c057829003601f168201915b505050505081526020016003820180546106f690612e55565b80601f016020809104026020016040519081016040528092919081815260200182805461072290612e55565b801561076f5780601f106107445761010080835404028352916020019161076f565b820191906000526020600020905b81548152906001019060200180831161075257829003601f168201915b50505050508152505081526020019060010190610582565b50505050905090565b610798611e90565b600760003373ffffffffffffffffffffffffffffffffffffffff1673ffffffffffffffffffffffffffffffffffffffff1681526020019081526020016000206040518060600160405290816000820180546107f290612e55565b80601f016020809104026020016040519081016040528092919081815260200182805461081e90612e55565b801561086b5780601f106108405761010080835404028352916020019161086b565b820191906000526020600020905b81548152906001019060200180831161084e57829003601f168201915b5050505050815260200160018201805461088490612e55565b80601f01602080910402602001604051908101604052809291908181526020018280546108b090612e55565b80156108fd5780601f106108d2576101008083540402835291602001916108fd565b820191906000526020600020905b8154815290600101906020018083116108e057829003601f168201915b5050505050815260200160028201805461091690612e55565b80601f016020809104026020016040519081016040528092919081815260200182805461094290612e55565b801561098f5780601f106109645761010080835404028352916020019161098f565b820191906000526020600020905b81548152906001019060200180831161097257829003601f168201915b505050505081525050905090565b6000600460008460ff1660ff16815260200190815260200160002082815481106109f0577f4e487b7100000000000000000000000000000000000000000000000000000000600052603260045260246000fd5b906000526020600020906009020190506000816003015411610a47576040517f08c379a0000000000000000000000000000000000000000000000000000000008152600401610a3e90612a4c565b60405180910390fd5b34816004015414610a8d576040517f08c379a0000000000000000000000000000000000000000000000000000000008152600401610a8490612a6c565b60405180910390fd5b6001816003016000828254610aa29190612d8a565b9250508190555080600460008560ff1660ff1681526020019081526020016000208381548110610afb577f4e487b7100000000000000000000000000000000000000000000000000000000600052603260045260246000fd5b906000526020600020906009020160008201548160000155600182015481600101556002820160009054906101000a900473ffffffffffffffffffffffffffffffffffffffff168160020160006101000a81548173ffffffffffffffffffffffffffffffffffffffff021916908373ffffffffffffffffffffffffffffffffffffffff16021790555060038201548160030155600482015481600401556005820160009054906101000a900460ff168160050160006101000a81548160ff021916908360ff1602179055506006820181600601908054610bda90612e55565b610be5929190611eb1565b506007820181600701908054610bfa90612e55565b610c05929190611eb1565b506008820181600801908054610c1a90612e55565b610c25929190611eb1565b5090505060008160020160009054906101000a900473ffffffffffffffffffffffffffffffffffffffff169050600560003373ffffffffffffffffffffffffffffffffffffffff1673ffffffffffffffffffffffffffffffffffffffff16815260200190815260200160002060405180606001604052808660ff168152602001846006018054610cb490612e55565b80601f0160208091040260200160405190810160405280929190818152602001828054610ce090612e55565b8015610d2d5780601f10610d0257610100808354040283529160200191610d2d565b820191906000526020600020905b815481529060010190602001808311610d1057829003601f168201915b50505050508152602001846007018054610d4690612e55565b80601f0160208091040260200160405190810160405280929190818152602001828054610d7290612e55565b8015610dbf5780601f10610d9457610100808354040283529160200191610dbf565b820191906000526020600020905b815481529060010190602001808311610da257829003601f168201915b5050505050815250908060018154018082558091505060019003906000526020600020906003020160009091909190915060008201518160000160006101000a81548160ff021916908360ff1602179055506020820151816001019080519060200190610e2d929190611e0a565b506040820151816002019080519060200190610e4a929190611e0a565b505050600860009054906101000a900473ffffffffffffffffffffffffffffffffffffffff1673ffffffffffffffffffffffffffffffffffffffff166354ba0f27336040518263ffffffff1660e01b8152600401610ea89190612944565b602060405180830381600087803b158015610ec257600080fd5b505af1158015610ed6573d6000803e3d6000fd5b505050506040513d601f19601f82011682018060405250810190610efa919061213c565b5034600660008373ffffffffffffffffffffffffffffffffffffffff1673ffffffffffffffffffffffffffffffffffffffff1681526020019081526020016000206000828254610f4a9190612d34565b92505081905550823373ffffffffffffffffffffffffffffffffffffffff167f63cd513bbfa9af637f007bdd8cfeb1976f2914b5493b3d9841533c3b43901187868560060186600701604051610fa293929190612ba1565b60405180910390a350505050565b610fb8611d3e565b73ffffffffffffffffffffffffffffffffffffffff16610fd6611215565b73ffffffffffffffffffffffffffffffffffffffff161461102c576040517f08c379a000000000000000000000000000000000000000000000000000000000815260040161102390612a8c565b60405180910390fd5b6110366000611d46565b565b6060600560003373ffffffffffffffffffffffffffffffffffffffff1673ffffffffffffffffffffffffffffffffffffffff168152602001908152602001600020805480602002602001604051908101604052809291908181526020016000905b8282101561120c57838290600052602060002090600302016040518060600160405290816000820160009054906101000a900460ff1660ff1660ff1681526020016001820180546110e990612e55565b80601f016020809104026020016040519081016040528092919081815260200182805461111590612e55565b80156111625780601f1061113757610100808354040283529160200191611162565b820191906000526020600020905b81548152906001019060200180831161114557829003601f168201915b5050505050815260200160028201805461117b90612e55565b80601f01602080910402602001604051908101604052809291908181526020018280546111a790612e55565b80156111f45780601f106111c9576101008083540402835291602001916111f4565b820191906000526020600020905b8154815290600101906020018083116111d757829003601f168201915b50505050508152505081526020019060010190611099565b50505050905090565b60008060009054906101000a900473ffffffffffffffffffffffffffffffffffffffff16905090565b60003373ffffffffffffffffffffffffffffffffffffffff1661125f611215565b73ffffffffffffffffffffffffffffffffffffffff1614905090565b655af3107a400034146112c3576040517f08c379a00000000000000000000000000000000000000000000000000000000081526004016112ba90612aac565b60405180910390fd5b6000600460008860ff1660ff168152602001908152602001600020805490509050600460008860ff1660ff16815260200190815260200160002060405180610120016040528060015481526020018381526020013373ffffffffffffffffffffffffffffffffffffffff1681526020018781526020018881526020018960ff168152602001868152602001858152602001848152509080600181540180825580915050600190039060005260206000209060090201600090919091909150600082015181600001556020820151816001015560408201518160020160006101000a81548173ffffffffffffffffffffffffffffffffffffffff021916908373ffffffffffffffffffffffffffffffffffffffff160217905550606082015181600301556080820151816004015560a08201518160050160006101000a81548160ff021916908360ff16021790555060c082015181600601908051906020019061142d929190611e0a565b5060e082015181600701908051906020019061144a929190611e0a565b50610100820151816008019080519060200190611468929190611e0a565b5050506001600081548092919061147e90612eb8565b9190505550806001547f55b682d69381b8942b84474fac0361900424a7b2526315b28db6ac4c80437fb987898b8989896040516114c096959493929190612b2b565b60405180910390a350505050505050565b6114d9611f3e565b600460008460ff1660ff168152602001908152602001600020828154811061152a577f4e487b7100000000000000000000000000000000000000000000000000000000600052603260045260246000fd5b90600052602060002090600902016040518061012001604052908160008201548152602001600182015481526020016002820160009054906101000a900473ffffffffffffffffffffffffffffffffffffffff1673ffffffffffffffffffffffffffffffffffffffff1673ffffffffffffffffffffffffffffffffffffffff16815260200160038201548152602001600482015481526020016005820160009054906101000a900460ff1660ff1660ff1681526020016006820180546115ef90612e55565b80601f016020809104026020016040519081016040528092919081815260200182805461161b90612e55565b80156116685780601f1061163d57610100808354040283529160200191611668565b820191906000526020600020905b81548152906001019060200180831161164b57829003601f168201915b5050505050815260200160078201805461168190612e55565b80601f01602080910402602001604051908101604052809291908181526020018280546116ad90612e55565b80156116fa5780601f106116cf576101008083540402835291602001916116fa565b820191906000526020600020905b8154815290600101906020018083116116dd57829003601f168201915b5050505050815260200160088201805461171390612e55565b80601f016020809104026020016040519081016040528092919081815260200182805461173f90612e55565b801561178c5780601f106117615761010080835404028352916020019161178c565b820191906000526020600020905b81548152906001019060200180831161176f57829003601f168201915b505050505081525050905092915050565b6060600460008360ff1660ff168152602001908152602001600020805480602002602001604051908101604052809291908181526020016000905b82821015611a5c57838290600052602060002090600902016040518061012001604052908160008201548152602001600182015481526020016002820160009054906101000a900473ffffffffffffffffffffffffffffffffffffffff1673ffffffffffffffffffffffffffffffffffffffff1673ffffffffffffffffffffffffffffffffffffffff16815260200160038201548152602001600482015481526020016005820160009054906101000a900460ff1660ff1660ff1681526020016006820180546118a790612e55565b80601f01602080910402602001604051908101604052809291908181526020018280546118d390612e55565b80156119205780601f106118f557610100808354040283529160200191611920565b820191906000526020600020905b81548152906001019060200180831161190357829003601f168201915b5050505050815260200160078201805461193990612e55565b80601f016020809104026020016040519081016040528092919081815260200182805461196590612e55565b80156119b25780601f10611987576101008083540402835291602001916119b2565b820191906000526020600020905b81548152906001019060200180831161199557829003601f168201915b505050505081526020016008820180546119cb90612e55565b80601f01602080910402602001604051908101604052809291908181526020018280546119f790612e55565b8015611a445780601f10611a1957610100808354040283529160200191611a44565b820191906000526020600020905b815481529060010190602001808311611a2757829003601f168201915b505050505081525050815260200190600101906117d8565b505050509050919050565b611a6f611d3e565b73ffffffffffffffffffffffffffffffffffffffff16611a8d611215565b73ffffffffffffffffffffffffffffffffffffffff1614611ae3576040517f08c379a0000000000000000000000000000000000000000000000000000000008152600401611ada90612a8c565b60405180910390fd5b60036040518060800160405280600260009054906101000a900460ff1660ff16815260200185815260200184815260200183815250908060018154018082558091505060019003906000526020600020906004020160009091909190915060008201518160000160006101000a81548160ff021916908360ff1602179055506020820151816001019080519060200190611b7e929190611e0a565b506040820151816002019080519060200190611b9b929190611e0a565b506060820151816003019080519060200190611bb8929190611e0a565b5050506002600081819054906101000a900460ff1680929190611bda90612f01565b91906101000a81548160ff021916908360ff16021790555050600260009054906101000a900460ff1660ff167fba308579c9f6e1ed825ce431889b08f19cd1da2c7a99b294856a10acf88162c6848484604051611c39939291906129e0565b60405180910390a2505050565b611c4e611d3e565b73ffffffffffffffffffffffffffffffffffffffff16611c6c611215565b73ffffffffffffffffffffffffffffffffffffffff1614611cc2576040517f08c379a0000000000000000000000000000000000000000000000000000000008152600401611cb990612a8c565b60405180910390fd5b600073ffffffffffffffffffffffffffffffffffffffff168173ffffffffffffffffffffffffffffffffffffffff161415611d32576040517f08c379a0000000000000000000000000000000000000000000000000000000008152600401611d2990612a2c565b60405180910390fd5b611d3b81611d46565b50565b600033905090565b60008060009054906101000a900473ffffffffffffffffffffffffffffffffffffffff169050816000806101000a81548173ffffffffffffffffffffffffffffffffffffffff021916908373ffffffffffffffffffffffffffffffffffffffff1602179055508173ffffffffffffffffffffffffffffffffffffffff168173ffffffffffffffffffffffffffffffffffffffff167f8be0079c531659141344cd1fd0a4f28419497f9722a3daafe3b4186f6b6457e060405160405180910390a35050565b828054611e1690612e55565b90600052602060002090601f016020900481019282611e385760008555611e7f565b82601f10611e5157805160ff1916838001178555611e7f565b82800160010185558215611e7f579182015b82811115611e7e578251825591602001919060010190611e63565b5b509050611e8c9190611fa3565b5090565b60405180606001604052806060815260200160608152602001606081525090565b828054611ebd90612e55565b90600052602060002090601f016020900481019282611edf5760008555611f2d565b82601f10611ef05780548555611f2d565b82800160010185558215611f2d57600052602060002091601f016020900482015b82811115611f2c578254825591600101919060010190611f11565b5b509050611f3a9190611fa3565b5090565b6040518061012001604052806000815260200160008152602001600073ffffffffffffffffffffffffffffffffffffffff1681526020016000815260200160008152602001600060ff1681526020016060815260200160608152602001606081525090565b5b80821115611fbc576000816000905550600101611fa4565b5090565b6000611fd3611fce84612c0b565b612be6565b905082815260208101848484011115611feb57600080fd5b611ff6848285612e13565b509392505050565b60008135905061200d816130bf565b92915050565b600082601f83011261202457600080fd5b8135612034848260208601611fc0565b91505092915050565b60008135905061204c816130d6565b92915050565b600081519050612061816130d6565b92915050565b600081359050612076816130ed565b92915050565b60006020828403121561208e57600080fd5b600061209c84828501611ffe565b91505092915050565b6000806000606084860312156120ba57600080fd5b600084013567ffffffffffffffff8111156120d457600080fd5b6120e086828701612013565b935050602084013567ffffffffffffffff8111156120fd57600080fd5b61210986828701612013565b925050604084013567ffffffffffffffff81111561212657600080fd5b61213286828701612013565b9150509250925092565b60006020828403121561214e57600080fd5b600061215c84828501612052565b91505092915050565b60006020828403121561217757600080fd5b600061218584828501612067565b91505092915050565b600080604083850312156121a157600080fd5b60006121af85828601612067565b92505060206121c08582860161203d565b9150509250929050565b60008060008060008060c087890312156121e357600080fd5b60006121f189828a01612067565b965050602061220289828a0161203d565b955050604061221389828a0161203d565b945050606087013567ffffffffffffffff81111561223057600080fd5b61223c89828a01612013565b935050608087013567ffffffffffffffff81111561225957600080fd5b61226589828a01612013565b92505060a087013567ffffffffffffffff81111561228257600080fd5b61228e89828a01612013565b9150509295509295509295565b60006122a78383612627565b905092915050565b60006122bb83836126f6565b905092915050565b60006122cf838361274d565b905092915050565b6122e081612dbe565b82525050565b6122ef81612dbe565b82525050565b600061230082612c81565b61230a8185612cd4565b93508360208202850161231c85612c3c565b8060005b858110156123585784840389528151612339858261229b565b945061234483612cad565b925060208a01995050600181019050612320565b50829750879550505050505092915050565b600061237582612c8c565b61237f8185612ce5565b93508360208202850161239185612c4c565b8060005b858110156123cd57848403895281516123ae85826122af565b94506123b983612cba565b925060208a01995050600181019050612395565b50829750879550505050505092915050565b60006123ea82612c97565b6123f48185612cf6565b93508360208202850161240685612c5c565b8060005b85811015612442578484038952815161242385826122c3565b945061242e83612cc7565b925060208a0199505060018101905061240a565b50829750879550505050505092915050565b61245d81612dd0565b82525050565b600061246e82612ca2565b6124788185612d12565b9350612488818560208601612e22565b61249181612fb8565b840191505092915050565b60006124a782612ca2565b6124b18185612d23565b93506124c1818560208601612e22565b6124ca81612fb8565b840191505092915050565b600081546124e281612e55565b6124ec8186612d23565b9450600182166000811461250757600181146125195761254c565b60ff198316865260208601935061254c565b61252285612c6c565b60005b8381101561254457815481890152600182019150602081019050612525565b808801955050505b50505092915050565b6000612562602683612d23565b915061256d82612fc9565b604082019050919050565b6000612585600e83612d23565b915061259082613018565b602082019050919050565b60006125a8601183612d23565b91506125b382613041565b602082019050919050565b60006125cb602083612d23565b91506125d68261306a565b602082019050919050565b60006125ee600083612d07565b91506125f982613093565b600082019050919050565b6000612611601983612d23565b915061261c82613096565b602082019050919050565b600060808301600083015161263f6000860182612911565b50602083015184820360208601526126578282612463565b915050604083015184820360408601526126718282612463565b9150506060830151848203606086015261268b8282612463565b9150508091505092915050565b600060608301600083015184820360008601526126b58282612463565b915050602083015184820360208601526126cf8282612463565b915050604083015184820360408601526126e98282612463565b9150508091505092915050565b600060608301600083015161270e6000860182612911565b50602083015184820360208601526127268282612463565b915050604083015184820360408601526127408282612463565b9150508091505092915050565b60006101208301600083015161276660008601826128f3565b50602083015161277960208601826128f3565b50604083015161278c60408601826122d7565b50606083015161279f60608601826128f3565b5060808301516127b260808601826128f3565b5060a08301516127c560a0860182612911565b5060c083015184820360c08601526127dd8282612463565b91505060e083015184820360e08601526127f78282612463565b9150506101008301518482036101008601526128138282612463565b9150508091505092915050565b60006101208301600083015161283960008601826128f3565b50602083015161284c60208601826128f3565b50604083015161285f60408601826122d7565b50606083015161287260608601826128f3565b50608083015161288560808601826128f3565b5060a083015161289860a0860182612911565b5060c083015184820360c08601526128b08282612463565b91505060e083015184820360e08601526128ca8282612463565b9150506101008301518482036101008601526128e68282612463565b9150508091505092915050565b6128fc81612dfc565b82525050565b61290b81612dfc565b82525050565b61291a81612e06565b82525050565b61292981612e06565b82525050565b600061293a826125e1565b9150819050919050565b600060208201905061295960008301846122e6565b92915050565b6000602082019050818103600083015261297981846122f5565b905092915050565b6000602082019050818103600083015261299b818461236a565b905092915050565b600060208201905081810360008301526129bd81846123df565b905092915050565b60006020820190506129da6000830184612454565b92915050565b600060608201905081810360008301526129fa818661249c565b90508181036020830152612a0e818561249c565b90508181036040830152612a22818461249c565b9050949350505050565b60006020820190508181036000830152612a4581612555565b9050919050565b60006020820190508181036000830152612a6581612578565b9050919050565b60006020820190508181036000830152612a858161259b565b9050919050565b60006020820190508181036000830152612aa5816125be565b9050919050565b60006020820190508181036000830152612ac581612604565b9050919050565b60006020820190508181036000830152612ae68184612698565b905092915050565b60006020820190508181036000830152612b088184612820565b905092915050565b6000602082019050612b256000830184612902565b92915050565b600060c082019050612b406000830189612902565b612b4d6020830188612902565b612b5a6040830187612920565b8181036060830152612b6c818661249c565b90508181036080830152612b80818561249c565b905081810360a0830152612b94818461249c565b9050979650505050505050565b6000606082019050612bb66000830186612920565b8181036020830152612bc881856124d5565b90508181036040830152612bdc81846124d5565b9050949350505050565b6000612bf0612c01565b9050612bfc8282612e87565b919050565b6000604051905090565b600067ffffffffffffffff821115612c2657612c25612f89565b5b612c2f82612fb8565b9050602081019050919050565b6000819050602082019050919050565b6000819050602082019050919050565b6000819050602082019050919050565b60008190508160005260206000209050919050565b600081519050919050565b600081519050919050565b600081519050919050565b600081519050919050565b6000602082019050919050565b6000602082019050919050565b6000602082019050919050565b600082825260208201905092915050565b600082825260208201905092915050565b600082825260208201905092915050565b600081905092915050565b600082825260208201905092915050565b600082825260208201905092915050565b6000612d3f82612dfc565b9150612d4a83612dfc565b9250827fffffffffffffffffffffffffffffffffffffffffffffffffffffffffffffffff03821115612d7f57612d7e612f2b565b5b828201905092915050565b6000612d9582612dfc565b9150612da083612dfc565b925082821015612db357612db2612f2b565b5b828203905092915050565b6000612dc982612ddc565b9050919050565b60008115159050919050565b600073ffffffffffffffffffffffffffffffffffffffff82169050919050565b6000819050919050565b600060ff82169050919050565b82818337600083830152505050565b60005b83811015612e40578082015181840152602081019050612e25565b83811115612e4f576000848401525b50505050565b60006002820490506001821680612e6d57607f821691505b60208210811415612e8157612e80612f5a565b5b50919050565b612e9082612fb8565b810181811067ffffffffffffffff82111715612eaf57612eae612f89565b5b80604052505050565b6000612ec382612dfc565b91507fffffffffffffffffffffffffffffffffffffffffffffffffffffffffffffffff821415612ef657612ef5612f2b565b5b600182019050919050565b6000612f0c82612e06565b915060ff821415612f2057612f1f612f2b565b5b600182019050919050565b7f4e487b7100000000000000000000000000000000000000000000000000000000600052601160045260246000fd5b7f4e487b7100000000000000000000000000000000000000000000000000000000600052602260045260246000fd5b7f4e487b7100000000000000000000000000000000000000000000000000000000600052604160045260246000fd5b6000601f19601f8301169050919050565b7f4f776e61626c653a206e6577206f776e657220697320746865207a65726f206160008201527f6464726573730000000000000000000000000000000000000000000000000000602082015250565b7f506c61636520636f6d706c657465000000000000000000000000000000000000600082015250565b7f50726963652069732064697374696e6374000000000000000000000000000000600082015250565b7f4f776e61626c653a2063616c6c6572206973206e6f7420746865206f776e6572600082015250565b50565b7f56616c7565206973206e6f7420302e3030303120657468657200000000000000600082015250565b6130c881612dbe565b81146130d357600080fd5b50565b6130df81612dfc565b81146130ea57600080fd5b50565b6130f681612e06565b811461310157600080fd5b5056fea264697066735822122026a0aa2e4e548eb6235057b6fd518d4ae2df5fbef1decbbb4beb420ae434234564736f6c63430008040033",
  "linkReferences": {},
  "deployedLinkReferences": {}
}