{
  "_format": "hh-sol-artifact-1",
  "contractName": "ReservApp",
  "sourceName": "contracts/ReservApp.sol",
  "abi": [
    {
      "inputs": [
        {
          "internalType": "address",
          "name": "_nft",
          "type": "address"
        }
      ],
      "stateMutability": "nonpayable",
      "type": "constructor"
    },
    {
      "anonymous": false,
      "inputs": [],
      "name": "NewPlaceEvent",
      "type": "event"
    },
    {
      "anonymous": false,
      "inputs": [],
      "name": "NewRent",
      "type": "event"
    },
    {
      "anonymous": false,
      "inputs": [
        {
          "indexed": true,
          "internalType": "address",
          "name": "previousOwner",
          "type": "address"
        },
        {
          "indexed": true,
          "internalType": "address",
          "name": "newOwner",
          "type": "address"
        }
      ],
      "name": "OwnershipTransferred",
      "type": "event"
    },
    {
      "stateMutability": "payable",
      "type": "fallback"
    },
    {
      "inputs": [],
      "name": "getMyPlaces",
      "outputs": [
        {
          "components": [
            {
              "internalType": "enum ReservApp.Category",
              "name": "category",
              "type": "uint8"
            },
            {
              "internalType": "string",
              "name": "title",
              "type": "string"
            },
            {
              "internalType": "string",
              "name": "description",
              "type": "string"
            }
          ],
          "internalType": "struct ReservApp.PlaceRent[]",
          "name": "",
          "type": "tuple[]"
        }
      ],
      "stateMutability": "view",
      "type": "function"
    },
    {
      "inputs": [
        {
          "internalType": "enum ReservApp.Category",
          "name": "category",
          "type": "uint8"
        }
      ],
      "name": "getPlacesByCategory",
      "outputs": [
        {
          "components": [
            {
              "internalType": "uint256",
              "name": "id",
              "type": "uint256"
            },
            {
              "internalType": "uint256",
              "name": "size",
              "type": "uint256"
            },
            {
              "internalType": "uint256",
              "name": "price",
              "type": "uint256"
            },
            {
              "internalType": "enum ReservApp.Category",
              "name": "category",
              "type": "uint8"
            },
            {
              "internalType": "string",
              "name": "title",
              "type": "string"
            },
            {
              "internalType": "string",
              "name": "description",
              "type": "string"
            },
            {
              "internalType": "string",
              "name": "image",
              "type": "string"
            }
          ],
          "internalType": "struct ReservApp.Place[]",
          "name": "",
          "type": "tuple[]"
        }
      ],
      "stateMutability": "view",
      "type": "function"
    },
    {
      "inputs": [
        {
          "internalType": "enum ReservApp.Category",
          "name": "category",
          "type": "uint8"
        },
        {
          "internalType": "uint256",
          "name": "index",
          "type": "uint256"
        }
      ],
      "name": "getPlacesById",
      "outputs": [
        {
          "components": [
            {
              "internalType": "uint256",
              "name": "id",
              "type": "uint256"
            },
            {
              "internalType": "uint256",
              "name": "size",
              "type": "uint256"
            },
            {
              "internalType": "uint256",
              "name": "price",
              "type": "uint256"
            },
            {
              "internalType": "enum ReservApp.Category",
              "name": "category",
              "type": "uint8"
            },
            {
              "internalType": "string",
              "name": "title",
              "type": "string"
            },
            {
              "internalType": "string",
              "name": "description",
              "type": "string"
            },
            {
              "internalType": "string",
              "name": "image",
              "type": "string"
            }
          ],
          "internalType": "struct ReservApp.Place",
          "name": "",
          "type": "tuple"
        }
      ],
      "stateMutability": "view",
      "type": "function"
    },
    {
      "inputs": [
        {
          "internalType": "enum ReservApp.Category",
          "name": "category",
          "type": "uint8"
        },
        {
          "internalType": "uint256",
          "name": "price",
          "type": "uint256"
        },
        {
          "internalType": "uint256",
          "name": "size",
          "type": "uint256"
        },
        {
          "internalType": "string",
          "name": "title",
          "type": "string"
        },
        {
          "internalType": "string",
          "name": "description",
          "type": "string"
        },
        {
          "internalType": "string",
          "name": "image",
          "type": "string"
        }
      ],
      "name": "newPlace",
      "outputs": [],
      "stateMutability": "payable",
      "type": "function"
    },
    {
      "inputs": [],
      "name": "owner",
      "outputs": [
        {
          "internalType": "address",
          "name": "",
          "type": "address"
        }
      ],
      "stateMutability": "view",
      "type": "function"
    },
    {
      "inputs": [],
      "name": "renounceOwnership",
      "outputs": [],
      "stateMutability": "nonpayable",
      "type": "function"
    },
    {
      "inputs": [
        {
          "internalType": "enum ReservApp.Category",
          "name": "category",
          "type": "uint8"
        },
        {
          "internalType": "uint256",
          "name": "index",
          "type": "uint256"
        }
      ],
      "name": "rentPlace",
      "outputs": [
        {
          "internalType": "uint256",
          "name": "",
          "type": "uint256"
        }
      ],
      "stateMutability": "payable",
      "type": "function"
    },
    {
      "inputs": [
        {
          "internalType": "address",
          "name": "newOwner",
          "type": "address"
        }
      ],
      "name": "transferOwnership",
      "outputs": [],
      "stateMutability": "nonpayable",
      "type": "function"
    }
  ],
  "bytecode": "0x60806040523480156200001157600080fd5b506040516200260b3803806200260b833981810160405281019062000037919062000182565b620000576200004b6200009f60201b60201c565b620000a760201b60201c565b80600760006101000a81548173ffffffffffffffffffffffffffffffffffffffff021916908373ffffffffffffffffffffffffffffffffffffffff16021790555050620001fc565b600033905090565b60008060009054906101000a900473ffffffffffffffffffffffffffffffffffffffff169050816000806101000a81548173ffffffffffffffffffffffffffffffffffffffff021916908373ffffffffffffffffffffffffffffffffffffffff1602179055508173ffffffffffffffffffffffffffffffffffffffff168173ffffffffffffffffffffffffffffffffffffffff167f8be0079c531659141344cd1fd0a4f28419497f9722a3daafe3b4186f6b6457e060405160405180910390a35050565b6000815190506200017c81620001e2565b92915050565b6000602082840312156200019557600080fd5b6000620001a5848285016200016b565b91505092915050565b6000620001bb82620001c2565b9050919050565b600073ffffffffffffffffffffffffffffffffffffffff82169050919050565b620001ed81620001ae565b8114620001f957600080fd5b50565b6123ff806200020c6000396000f3fe60806040526004361061007f5760003560e01c80638da5cb5b1161004e5780638da5cb5b14610131578063aaf221531461015c578063e85b39be14610178578063f2fde38b146101b557610080565b806350f9d03e1461008257806369a6f4a8146100bf578063715018a6146100ef57806378ee976d1461010657610080565b5b005b34801561008e57600080fd5b506100a960048036038101906100a49190611958565b6101de565b6040516100b69190611f2b565b60405180910390f35b6100d960048036038101906100d49190611958565b61051d565b6040516100e69190611f4d565b60405180910390f35b3480156100fb57600080fd5b50610104610bcc565b005b34801561011257600080fd5b5061011b610c54565b6040516101289190611e67565b60405180910390f35b34801561013d57600080fd5b50610146610e9b565b6040516101539190611e4c565b60405180910390f35b61017660048036038101906101719190611994565b610ec4565b005b34801561018457600080fd5b5061019f600480360381019061019a919061192f565b6111a4565b6040516101ac9190611e89565b60405180910390f35b3480156101c157600080fd5b506101dc60048036038101906101d79190611906565b6114e1565b005b6101e66116a5565b60036000846001811115610223577f4e487b7100000000000000000000000000000000000000000000000000000000600052602160045260246000fd5b600181111561025b577f4e487b7100000000000000000000000000000000000000000000000000000000600052602160045260246000fd5b815260200190815260200160002082815481106102a1577f4e487b7100000000000000000000000000000000000000000000000000000000600052603260045260246000fd5b90600052602060002090600702016040518060e00160405290816000820154815260200160018201548152602001600282015481526020016003820160009054906101000a900460ff166001811115610323577f4e487b7100000000000000000000000000000000000000000000000000000000600052602160045260246000fd5b600181111561035b577f4e487b7100000000000000000000000000000000000000000000000000000000600052602160045260246000fd5b815260200160048201805461036f90612134565b80601f016020809104026020016040519081016040528092919081815260200182805461039b90612134565b80156103e85780601f106103bd576101008083540402835291602001916103e8565b820191906000526020600020905b8154815290600101906020018083116103cb57829003601f168201915b5050505050815260200160058201805461040190612134565b80601f016020809104026020016040519081016040528092919081815260200182805461042d90612134565b801561047a5780601f1061044f5761010080835404028352916020019161047a565b820191906000526020600020905b81548152906001019060200180831161045d57829003601f168201915b5050505050815260200160068201805461049390612134565b80601f01602080910402602001604051908101604052809291908181526020018280546104bf90612134565b801561050c5780601f106104e15761010080835404028352916020019161050c565b820191906000526020600020905b8154815290600101906020018083116104ef57829003601f168201915b505050505081525050905092915050565b6000655af3107a40003414610567576040517f08c379a000000000000000000000000000000000000000000000000000000000815260040161055e90611f0b565b60405180910390fd5b6000600360008560018111156105a6577f4e487b7100000000000000000000000000000000000000000000000000000000600052602160045260246000fd5b60018111156105de577f4e487b7100000000000000000000000000000000000000000000000000000000600052602160045260246000fd5b81526020019081526020016000208381548110610624577f4e487b7100000000000000000000000000000000000000000000000000000000600052603260045260246000fd5b90600052602060002090600702019050600081600101541161067b576040517f08c379a000000000000000000000000000000000000000000000000000000000815260040161067290611ecb565b60405180910390fd5b600660003373ffffffffffffffffffffffffffffffffffffffff1673ffffffffffffffffffffffffffffffffffffffff16815260200190815260200160002034908060018154018082558091505060019003906000526020600020016000909190919091505560018160010160008282546106f6919061205d565b92505081905550806003600086600181111561073b577f4e487b7100000000000000000000000000000000000000000000000000000000600052602160045260246000fd5b6001811115610773577f4e487b7100000000000000000000000000000000000000000000000000000000600052602160045260246000fd5b815260200190815260200160002084815481106107b9577f4e487b7100000000000000000000000000000000000000000000000000000000600052603260045260246000fd5b90600052602060002090600702016000820154816000015560018201548160010155600282015481600201556003820160009054906101000a900460ff168160030160006101000a81548160ff02191690836001811115610843577f4e487b7100000000000000000000000000000000000000000000000000000000600052602160045260246000fd5b0217905550600482018160040190805461085c90612134565b61086792919061171a565b50600582018160050190805461087c90612134565b61088792919061171a565b50600682018160060190805461089c90612134565b6108a792919061171a565b50905050600460003373ffffffffffffffffffffffffffffffffffffffff1673ffffffffffffffffffffffffffffffffffffffff168152602001908152602001600020604051806060016040528086600181111561092e577f4e487b7100000000000000000000000000000000000000000000000000000000600052602160045260246000fd5b815260200183600401805461094290612134565b80601f016020809104026020016040519081016040528092919081815260200182805461096e90612134565b80156109bb5780601f10610990576101008083540402835291602001916109bb565b820191906000526020600020905b81548152906001019060200180831161099e57829003601f168201915b505050505081526020018360050180546109d490612134565b80601f0160208091040260200160405190810160405280929190818152602001828054610a0090612134565b8015610a4d5780601f10610a2257610100808354040283529160200191610a4d565b820191906000526020600020905b815481529060010190602001808311610a3057829003601f168201915b5050505050815250908060018154018082558091505060019003906000526020600020906003020160009091909190915060008201518160000160006101000a81548160ff02191690836001811115610acf577f4e487b7100000000000000000000000000000000000000000000000000000000600052602160045260246000fd5b02179055506020820151816001019080519060200190610af09291906117a7565b506040820151816002019080519060200190610b0d9291906117a7565b5050506000600760009054906101000a900473ffffffffffffffffffffffffffffffffffffffff1673ffffffffffffffffffffffffffffffffffffffff166354ba0f27336040518263ffffffff1660e01b8152600401610b6d9190611e4c565b602060405180830381600087803b158015610b8757600080fd5b505af1158015610b9b573d6000803e3d6000fd5b505050506040513d601f19601f82011682018060405250810190610bbf9190611a65565b9050809250505092915050565b610bd46115d9565b73ffffffffffffffffffffffffffffffffffffffff16610bf2610e9b565b73ffffffffffffffffffffffffffffffffffffffff1614610c48576040517f08c379a0000000000000000000000000000000000000000000000000000000008152600401610c3f90611eeb565b60405180910390fd5b610c5260006115e1565b565b6060600460003373ffffffffffffffffffffffffffffffffffffffff1673ffffffffffffffffffffffffffffffffffffffff168152602001908152602001600020805480602002602001604051908101604052809291908181526020016000905b82821015610e9257838290600052602060002090600302016040518060600160405290816000820160009054906101000a900460ff166001811115610d23577f4e487b7100000000000000000000000000000000000000000000000000000000600052602160045260246000fd5b6001811115610d5b577f4e487b7100000000000000000000000000000000000000000000000000000000600052602160045260246000fd5b8152602001600182018054610d6f90612134565b80601f0160208091040260200160405190810160405280929190818152602001828054610d9b90612134565b8015610de85780601f10610dbd57610100808354040283529160200191610de8565b820191906000526020600020905b815481529060010190602001808311610dcb57829003601f168201915b50505050508152602001600282018054610e0190612134565b80601f0160208091040260200160405190810160405280929190818152602001828054610e2d90612134565b8015610e7a5780601f10610e4f57610100808354040283529160200191610e7a565b820191906000526020600020905b815481529060010190602001808311610e5d57829003601f168201915b50505050508152505081526020019060010190610cb5565b50505050905090565b60008060009054906101000a900473ffffffffffffffffffffffffffffffffffffffff16905090565b655af3107a40003414610f0c576040517f08c379a0000000000000000000000000000000000000000000000000000000008152600401610f0390611f0b565b60405180910390fd5b600560003373ffffffffffffffffffffffffffffffffffffffff1673ffffffffffffffffffffffffffffffffffffffff16815260200190815260200160002034908060018154018082558091505060019003906000526020600020016000909190919091505560036000876001811115610faf577f4e487b7100000000000000000000000000000000000000000000000000000000600052602160045260246000fd5b6001811115610fe7577f4e487b7100000000000000000000000000000000000000000000000000000000600052602160045260246000fd5b81526020019081526020016000206040518060e00160405280600154815260200186815260200187815260200188600181111561104d577f4e487b7100000000000000000000000000000000000000000000000000000000600052602160045260246000fd5b815260200185815260200184815260200183815250908060018154018082558091505060019003906000526020600020906007020160009091909190915060008201518160000155602082015181600101556040820151816002015560608201518160030160006101000a81548160ff021916908360018111156110fa577f4e487b7100000000000000000000000000000000000000000000000000000000600052602160045260246000fd5b0217905550608082015181600401908051906020019061111b9291906117a7565b5060a08201518160050190805190602001906111389291906117a7565b5060c08201518160060190805190602001906111559291906117a7565b5050506001600081548092919061116b90612197565b91905055507f8d4de5461f46f97f6ad31c75d7597672c93e8c2b584c75fa09fb0ad9e5097a8360405160405180910390a1505050505050565b6060600360008360018111156111e3577f4e487b7100000000000000000000000000000000000000000000000000000000600052602160045260246000fd5b600181111561121b577f4e487b7100000000000000000000000000000000000000000000000000000000600052602160045260246000fd5b8152602001908152602001600020805480602002602001604051908101604052809291908181526020016000905b828210156114d657838290600052602060002090600702016040518060e00160405290816000820154815260200160018201548152602001600282015481526020016003820160009054906101000a900460ff1660018111156112d5577f4e487b7100000000000000000000000000000000000000000000000000000000600052602160045260246000fd5b600181111561130d577f4e487b7100000000000000000000000000000000000000000000000000000000600052602160045260246000fd5b815260200160048201805461132190612134565b80601f016020809104026020016040519081016040528092919081815260200182805461134d90612134565b801561139a5780601f1061136f5761010080835404028352916020019161139a565b820191906000526020600020905b81548152906001019060200180831161137d57829003601f168201915b505050505081526020016005820180546113b390612134565b80601f01602080910402602001604051908101604052809291908181526020018280546113df90612134565b801561142c5780601f106114015761010080835404028352916020019161142c565b820191906000526020600020905b81548152906001019060200180831161140f57829003601f168201915b5050505050815260200160068201805461144590612134565b80601f016020809104026020016040519081016040528092919081815260200182805461147190612134565b80156114be5780601f10611493576101008083540402835291602001916114be565b820191906000526020600020905b8154815290600101906020018083116114a157829003601f168201915b50505050508152505081526020019060010190611249565b505050509050919050565b6114e96115d9565b73ffffffffffffffffffffffffffffffffffffffff16611507610e9b565b73ffffffffffffffffffffffffffffffffffffffff161461155d576040517f08c379a000000000000000000000000000000000000000000000000000000000815260040161155490611eeb565b60405180910390fd5b600073ffffffffffffffffffffffffffffffffffffffff168173ffffffffffffffffffffffffffffffffffffffff1614156115cd576040517f08c379a00000000000000000000000000000000000000000000000000000000081526004016115c490611eab565b60405180910390fd5b6115d6816115e1565b50565b600033905090565b60008060009054906101000a900473ffffffffffffffffffffffffffffffffffffffff169050816000806101000a81548173ffffffffffffffffffffffffffffffffffffffff021916908373ffffffffffffffffffffffffffffffffffffffff1602179055508173ffffffffffffffffffffffffffffffffffffffff168173ffffffffffffffffffffffffffffffffffffffff167f8be0079c531659141344cd1fd0a4f28419497f9722a3daafe3b4186f6b6457e060405160405180910390a35050565b6040518060e00160405280600081526020016000815260200160008152602001600060018111156116ff577f4e487b7100000000000000000000000000000000000000000000000000000000600052602160045260246000fd5b81526020016060815260200160608152602001606081525090565b82805461172690612134565b90600052602060002090601f0160209004810192826117485760008555611796565b82601f106117595780548555611796565b8280016001018555821561179657600052602060002091601f016020900482015b8281111561179557825482559160010191906001019061177a565b5b5090506117a3919061182d565b5090565b8280546117b390612134565b90600052602060002090601f0160209004810192826117d5576000855561181c565b82601f106117ee57805160ff191683800117855561181c565b8280016001018555821561181c579182015b8281111561181b578251825591602001919060010190611800565b5b509050611829919061182d565b5090565b5b8082111561184657600081600090555060010161182e565b5090565b600061185d61185884611f8d565b611f68565b90508281526020810184848401111561187557600080fd5b6118808482856120f2565b509392505050565b6000813590506118978161238b565b92915050565b6000813590506118ac816123a2565b92915050565b600082601f8301126118c357600080fd5b81356118d384826020860161184a565b91505092915050565b6000813590506118eb816123b2565b92915050565b600081519050611900816123b2565b92915050565b60006020828403121561191857600080fd5b600061192684828501611888565b91505092915050565b60006020828403121561194157600080fd5b600061194f8482850161189d565b91505092915050565b6000806040838503121561196b57600080fd5b60006119798582860161189d565b925050602061198a858286016118dc565b9150509250929050565b60008060008060008060c087890312156119ad57600080fd5b60006119bb89828a0161189d565b96505060206119cc89828a016118dc565b95505060406119dd89828a016118dc565b945050606087013567ffffffffffffffff8111156119fa57600080fd5b611a0689828a016118b2565b935050608087013567ffffffffffffffff811115611a2357600080fd5b611a2f89828a016118b2565b92505060a087013567ffffffffffffffff811115611a4c57600080fd5b611a5889828a016118b2565b9150509295509295509295565b600060208284031215611a7757600080fd5b6000611a85848285016118f1565b91505092915050565b6000611a9a8383611c83565b905092915050565b6000611aae8383611cda565b905092915050565b611abf81612091565b82525050565b6000611ad082611fde565b611ada8185612019565b935083602082028501611aec85611fbe565b8060005b85811015611b285784840389528151611b098582611a8e565b9450611b1483611fff565b925060208a01995050600181019050611af0565b50829750879550505050505092915050565b6000611b4582611fe9565b611b4f818561202a565b935083602082028501611b6185611fce565b8060005b85811015611b9d5784840389528151611b7e8582611aa2565b9450611b898361200c565b925060208a01995050600181019050611b65565b50829750879550505050505092915050565b611bb8816120e0565b82525050565b6000611bc982611ff4565b611bd3818561203b565b9350611be3818560208601612101565b611bec8161229c565b840191505092915050565b6000611c0460268361204c565b9150611c0f826122ad565b604082019050919050565b6000611c27600e8361204c565b9150611c32826122fc565b602082019050919050565b6000611c4a60208361204c565b9150611c5582612325565b602082019050919050565b6000611c6d60198361204c565b9150611c788261234e565b602082019050919050565b6000606083016000830151611c9b6000860182611baf565b5060208301518482036020860152611cb38282611bbe565b91505060408301518482036040860152611ccd8282611bbe565b9150508091505092915050565b600060e083016000830151611cf26000860182611e2e565b506020830151611d056020860182611e2e565b506040830151611d186040860182611e2e565b506060830151611d2b6060860182611baf565b5060808301518482036080860152611d438282611bbe565b91505060a083015184820360a0860152611d5d8282611bbe565b91505060c083015184820360c0860152611d778282611bbe565b9150508091505092915050565b600060e083016000830151611d9c6000860182611e2e565b506020830151611daf6020860182611e2e565b506040830151611dc26040860182611e2e565b506060830151611dd56060860182611baf565b5060808301518482036080860152611ded8282611bbe565b91505060a083015184820360a0860152611e078282611bbe565b91505060c083015184820360c0860152611e218282611bbe565b9150508091505092915050565b611e37816120d6565b82525050565b611e46816120d6565b82525050565b6000602082019050611e616000830184611ab6565b92915050565b60006020820190508181036000830152611e818184611ac5565b905092915050565b60006020820190508181036000830152611ea38184611b3a565b905092915050565b60006020820190508181036000830152611ec481611bf7565b9050919050565b60006020820190508181036000830152611ee481611c1a565b9050919050565b60006020820190508181036000830152611f0481611c3d565b9050919050565b60006020820190508181036000830152611f2481611c60565b9050919050565b60006020820190508181036000830152611f458184611d84565b905092915050565b6000602082019050611f626000830184611e3d565b92915050565b6000611f72611f83565b9050611f7e8282612166565b919050565b6000604051905090565b600067ffffffffffffffff821115611fa857611fa761226d565b5b611fb18261229c565b9050602081019050919050565b6000819050602082019050919050565b6000819050602082019050919050565b600081519050919050565b600081519050919050565b600081519050919050565b6000602082019050919050565b6000602082019050919050565b600082825260208201905092915050565b600082825260208201905092915050565b600082825260208201905092915050565b600082825260208201905092915050565b6000612068826120d6565b9150612073836120d6565b925082821015612086576120856121e0565b5b828203905092915050565b600061209c826120b6565b9050919050565b60008190506120b182612377565b919050565b600073ffffffffffffffffffffffffffffffffffffffff82169050919050565b6000819050919050565b60006120eb826120a3565b9050919050565b82818337600083830152505050565b60005b8381101561211f578082015181840152602081019050612104565b8381111561212e576000848401525b50505050565b6000600282049050600182168061214c57607f821691505b602082108114156121605761215f61223e565b5b50919050565b61216f8261229c565b810181811067ffffffffffffffff8211171561218e5761218d61226d565b5b80604052505050565b60006121a2826120d6565b91507fffffffffffffffffffffffffffffffffffffffffffffffffffffffffffffffff8214156121d5576121d46121e0565b5b600182019050919050565b7f4e487b7100000000000000000000000000000000000000000000000000000000600052601160045260246000fd5b7f4e487b7100000000000000000000000000000000000000000000000000000000600052602160045260246000fd5b7f4e487b7100000000000000000000000000000000000000000000000000000000600052602260045260246000fd5b7f4e487b7100000000000000000000000000000000000000000000000000000000600052604160045260246000fd5b6000601f19601f8301169050919050565b7f4f776e61626c653a206e6577206f776e657220697320746865207a65726f206160008201527f6464726573730000000000000000000000000000000000000000000000000000602082015250565b7f506c61636520636f6d706c657465000000000000000000000000000000000000600082015250565b7f4f776e61626c653a2063616c6c6572206973206e6f7420746865206f776e6572600082015250565b7f56616c7565206973206e6f7420302e3030303120657468657200000000000000600082015250565b600281106123885761238761220f565b5b50565b61239481612091565b811461239f57600080fd5b50565b600281106123af57600080fd5b50565b6123bb816120d6565b81146123c657600080fd5b5056fea264697066735822122091dbfe5ec577f6c9b96737efa319ebf24fe492d9ea8b26ce5043da11e562b37964736f6c63430008040033",
  "linkReferences": {},
  "deployedLinkReferences": {}
}