{
  "_format": "hh-sol-artifact-1",
  "contractName": "ReservApp",
  "sourceName": "contracts/ReservApp.sol",
  "abi": [
    {
      "anonymous": false,
      "inputs": [],
      "name": "NewPlaceEvent",
      "type": "event"
    },
    {
      "anonymous": false,
      "inputs": [],
      "name": "NewRent",
      "type": "event"
    },
    {
      "anonymous": false,
      "inputs": [
        {
          "indexed": true,
          "internalType": "address",
          "name": "previousOwner",
          "type": "address"
        },
        {
          "indexed": true,
          "internalType": "address",
          "name": "newOwner",
          "type": "address"
        }
      ],
      "name": "OwnershipTransferred",
      "type": "event"
    },
    {
      "inputs": [],
      "name": "getMyPlaces",
      "outputs": [
        {
          "components": [
            {
              "internalType": "enum ReservApp.Category",
              "name": "category",
              "type": "uint8"
            },
            {
              "internalType": "string",
              "name": "title",
              "type": "string"
            },
            {
              "internalType": "string",
              "name": "zone",
              "type": "string"
            }
          ],
          "internalType": "struct ReservApp.PlaceRent[]",
          "name": "",
          "type": "tuple[]"
        }
      ],
      "stateMutability": "view",
      "type": "function"
    },
    {
      "inputs": [
        {
          "internalType": "enum ReservApp.Category",
          "name": "category",
          "type": "uint8"
        }
      ],
      "name": "getPlacesByCategory",
      "outputs": [
        {
          "components": [
            {
              "internalType": "uint256",
              "name": "id",
              "type": "uint256"
            },
            {
              "internalType": "uint256",
              "name": "size",
              "type": "uint256"
            },
            {
              "internalType": "uint256",
              "name": "price",
              "type": "uint256"
            },
            {
              "internalType": "enum ReservApp.Category",
              "name": "category",
              "type": "uint8"
            },
            {
              "internalType": "string",
              "name": "title",
              "type": "string"
            },
            {
              "internalType": "string",
              "name": "zone",
              "type": "string"
            }
          ],
          "internalType": "struct ReservApp.Place[]",
          "name": "",
          "type": "tuple[]"
        }
      ],
      "stateMutability": "view",
      "type": "function"
    },
    {
      "inputs": [
        {
          "internalType": "enum ReservApp.Category",
          "name": "category",
          "type": "uint8"
        },
        {
          "internalType": "string",
          "name": "title",
          "type": "string"
        },
        {
          "internalType": "string",
          "name": "zone",
          "type": "string"
        },
        {
          "internalType": "uint256",
          "name": "price",
          "type": "uint256"
        },
        {
          "internalType": "uint256",
          "name": "size",
          "type": "uint256"
        }
      ],
      "name": "newPlace",
      "outputs": [],
      "stateMutability": "payable",
      "type": "function"
    },
    {
      "inputs": [],
      "name": "owner",
      "outputs": [
        {
          "internalType": "address",
          "name": "",
          "type": "address"
        }
      ],
      "stateMutability": "view",
      "type": "function"
    },
    {
      "inputs": [],
      "name": "renounceOwnership",
      "outputs": [],
      "stateMutability": "nonpayable",
      "type": "function"
    },
    {
      "inputs": [
        {
          "internalType": "enum ReservApp.Category",
          "name": "category",
          "type": "uint8"
        },
        {
          "internalType": "uint256",
          "name": "index",
          "type": "uint256"
        }
      ],
      "name": "rentPlace",
      "outputs": [],
      "stateMutability": "payable",
      "type": "function"
    },
    {
      "inputs": [
        {
          "internalType": "address",
          "name": "newOwner",
          "type": "address"
        }
      ],
      "name": "transferOwnership",
      "outputs": [],
      "stateMutability": "nonpayable",
      "type": "function"
    }
  ],
  "bytecode": "0x608060405234801561001057600080fd5b5061002d61002261003260201b60201c565b61003a60201b60201c565b6100fe565b600033905090565b60008060009054906101000a900473ffffffffffffffffffffffffffffffffffffffff169050816000806101000a81548173ffffffffffffffffffffffffffffffffffffffff021916908373ffffffffffffffffffffffffffffffffffffffff1602179055508173ffffffffffffffffffffffffffffffffffffffff168173ffffffffffffffffffffffffffffffffffffffff167f8be0079c531659141344cd1fd0a4f28419497f9722a3daafe3b4186f6b6457e060405160405180910390a35050565b611d128061010d6000396000f3fe6080604052600436106100705760003560e01c806378ee976d1161004e57806378ee976d146100c45780638da5cb5b146100ef578063e85b39be1461011a578063f2fde38b1461015757610070565b806337f0c81b1461007557806369a6f4a814610091578063715018a6146100ad575b600080fd5b61008f600480360381019061008a91906113ce565b610180565b005b6100ab60048036038101906100a69190611475565b61043c565b005b3480156100b957600080fd5b506100c2610a3e565b005b3480156100d057600080fd5b506100d9610ac6565b6040516100e691906117b7565b60405180910390f35b3480156100fb57600080fd5b50610104610d0d565b604051610111919061179c565b60405180910390f35b34801561012657600080fd5b50610141600480360381019061013c91906113a5565b610d36565b60405161014e91906117d9565b60405180910390f35b34801561016357600080fd5b5061017e6004803603810190610179919061137c565b610fe1565b005b655af3107a400034146101c8576040517f08c379a00000000000000000000000000000000000000000000000000000000081526004016101bf9061185b565b60405180910390fd5b600360003373ffffffffffffffffffffffffffffffffffffffff1673ffffffffffffffffffffffffffffffffffffffff1681526020019081526020016000203490806001815401808255809150506001900390600052602060002001600090919091909150556001600086600181111561026b577f4e487b7100000000000000000000000000000000000000000000000000000000600052602160045260246000fd5b60018111156102a3577f4e487b7100000000000000000000000000000000000000000000000000000000600052602160045260246000fd5b81526020019081526020016000206040518060c001604052806005548152602001838152602001848152602001876001811115610309577f4e487b7100000000000000000000000000000000000000000000000000000000600052602160045260246000fd5b815260200186815260200185815250908060018154018082558091505060019003906000526020600020906006020160009091909190915060008201518160000155602082015181600101556040820151816002015560608201518160030160006101000a81548160ff021916908360018111156103b0577f4e487b7100000000000000000000000000000000000000000000000000000000600052602160045260246000fd5b021790555060808201518160040190805190602001906103d19291906111a5565b5060a08201518160050190805190602001906103ee9291906111a5565b5050506005600081548092919061040490611aaa565b91905055507f8d4de5461f46f97f6ad31c75d7597672c93e8c2b584c75fa09fb0ad9e5097a8360405160405180910390a15050505050565b655af3107a40003414610484576040517f08c379a000000000000000000000000000000000000000000000000000000000815260040161047b9061185b565b60405180910390fd5b6000600160008460018111156104c3577f4e487b7100000000000000000000000000000000000000000000000000000000600052602160045260246000fd5b60018111156104fb577f4e487b7100000000000000000000000000000000000000000000000000000000600052602160045260246000fd5b81526020019081526020016000208281548110610541577f4e487b7100000000000000000000000000000000000000000000000000000000600052603260045260246000fd5b906000526020600020906006020190506000816001015411610598576040517f08c379a000000000000000000000000000000000000000000000000000000000815260040161058f9061181b565b60405180910390fd5b600460003373ffffffffffffffffffffffffffffffffffffffff1673ffffffffffffffffffffffffffffffffffffffff16815260200190815260200160002034908060018154018082558091505060019003906000526020600020016000909190919091505560018160010160008282546106139190611970565b925050819055508060016000856001811115610658577f4e487b7100000000000000000000000000000000000000000000000000000000600052602160045260246000fd5b6001811115610690577f4e487b7100000000000000000000000000000000000000000000000000000000600052602160045260246000fd5b815260200190815260200160002083815481106106d6577f4e487b7100000000000000000000000000000000000000000000000000000000600052603260045260246000fd5b90600052602060002090600602016000820154816000015560018201548160010155600282015481600201556003820160009054906101000a900460ff168160030160006101000a81548160ff02191690836001811115610760577f4e487b7100000000000000000000000000000000000000000000000000000000600052602160045260246000fd5b0217905550600482018160040190805461077990611a47565b61078492919061122b565b50600582018160050190805461079990611a47565b6107a492919061122b565b50905050600260003373ffffffffffffffffffffffffffffffffffffffff1673ffffffffffffffffffffffffffffffffffffffff168152602001908152602001600020604051806060016040528085600181111561082b577f4e487b7100000000000000000000000000000000000000000000000000000000600052602160045260246000fd5b815260200183600401805461083f90611a47565b80601f016020809104026020016040519081016040528092919081815260200182805461086b90611a47565b80156108b85780601f1061088d576101008083540402835291602001916108b8565b820191906000526020600020905b81548152906001019060200180831161089b57829003601f168201915b505050505081526020018360050180546108d190611a47565b80601f01602080910402602001604051908101604052809291908181526020018280546108fd90611a47565b801561094a5780601f1061091f5761010080835404028352916020019161094a565b820191906000526020600020905b81548152906001019060200180831161092d57829003601f168201915b5050505050815250908060018154018082558091505060019003906000526020600020906003020160009091909190915060008201518160000160006101000a81548160ff021916908360018111156109cc577f4e487b7100000000000000000000000000000000000000000000000000000000600052602160045260246000fd5b021790555060208201518160010190805190602001906109ed9291906111a5565b506040820151816002019080519060200190610a0a9291906111a5565b5050507fb7bb037e0814eac4318ffea45847f823e8d699f6525800478bd858d7a7273c7960405160405180910390a1505050565b610a466110d9565b73ffffffffffffffffffffffffffffffffffffffff16610a64610d0d565b73ffffffffffffffffffffffffffffffffffffffff1614610aba576040517f08c379a0000000000000000000000000000000000000000000000000000000008152600401610ab19061183b565b60405180910390fd5b610ac460006110e1565b565b6060600260003373ffffffffffffffffffffffffffffffffffffffff1673ffffffffffffffffffffffffffffffffffffffff168152602001908152602001600020805480602002602001604051908101604052809291908181526020016000905b82821015610d0457838290600052602060002090600302016040518060600160405290816000820160009054906101000a900460ff166001811115610b95577f4e487b7100000000000000000000000000000000000000000000000000000000600052602160045260246000fd5b6001811115610bcd577f4e487b7100000000000000000000000000000000000000000000000000000000600052602160045260246000fd5b8152602001600182018054610be190611a47565b80601f0160208091040260200160405190810160405280929190818152602001828054610c0d90611a47565b8015610c5a5780601f10610c2f57610100808354040283529160200191610c5a565b820191906000526020600020905b815481529060010190602001808311610c3d57829003601f168201915b50505050508152602001600282018054610c7390611a47565b80601f0160208091040260200160405190810160405280929190818152602001828054610c9f90611a47565b8015610cec5780601f10610cc157610100808354040283529160200191610cec565b820191906000526020600020905b815481529060010190602001808311610ccf57829003601f168201915b50505050508152505081526020019060010190610b27565b50505050905090565b60008060009054906101000a900473ffffffffffffffffffffffffffffffffffffffff16905090565b606060016000836001811115610d75577f4e487b7100000000000000000000000000000000000000000000000000000000600052602160045260246000fd5b6001811115610dad577f4e487b7100000000000000000000000000000000000000000000000000000000600052602160045260246000fd5b8152602001908152602001600020805480602002602001604051908101604052809291908181526020016000905b82821015610fd657838290600052602060002090600602016040518060c00160405290816000820154815260200160018201548152602001600282015481526020016003820160009054906101000a900460ff166001811115610e67577f4e487b7100000000000000000000000000000000000000000000000000000000600052602160045260246000fd5b6001811115610e9f577f4e487b7100000000000000000000000000000000000000000000000000000000600052602160045260246000fd5b8152602001600482018054610eb390611a47565b80601f0160208091040260200160405190810160405280929190818152602001828054610edf90611a47565b8015610f2c5780601f10610f0157610100808354040283529160200191610f2c565b820191906000526020600020905b815481529060010190602001808311610f0f57829003601f168201915b50505050508152602001600582018054610f4590611a47565b80601f0160208091040260200160405190810160405280929190818152602001828054610f7190611a47565b8015610fbe5780601f10610f9357610100808354040283529160200191610fbe565b820191906000526020600020905b815481529060010190602001808311610fa157829003601f168201915b50505050508152505081526020019060010190610ddb565b505050509050919050565b610fe96110d9565b73ffffffffffffffffffffffffffffffffffffffff16611007610d0d565b73ffffffffffffffffffffffffffffffffffffffff161461105d576040517f08c379a00000000000000000000000000000000000000000000000000000000081526004016110549061183b565b60405180910390fd5b600073ffffffffffffffffffffffffffffffffffffffff168173ffffffffffffffffffffffffffffffffffffffff1614156110cd576040517f08c379a00000000000000000000000000000000000000000000000000000000081526004016110c4906117fb565b60405180910390fd5b6110d6816110e1565b50565b600033905090565b60008060009054906101000a900473ffffffffffffffffffffffffffffffffffffffff169050816000806101000a81548173ffffffffffffffffffffffffffffffffffffffff021916908373ffffffffffffffffffffffffffffffffffffffff1602179055508173ffffffffffffffffffffffffffffffffffffffff168173ffffffffffffffffffffffffffffffffffffffff167f8be0079c531659141344cd1fd0a4f28419497f9722a3daafe3b4186f6b6457e060405160405180910390a35050565b8280546111b190611a47565b90600052602060002090601f0160209004810192826111d3576000855561121a565b82601f106111ec57805160ff191683800117855561121a565b8280016001018555821561121a579182015b828111156112195782518255916020019190600101906111fe565b5b50905061122791906112b8565b5090565b82805461123790611a47565b90600052602060002090601f01602090048101928261125957600085556112a7565b82601f1061126a57805485556112a7565b828001600101855582156112a757600052602060002091601f016020900482015b828111156112a657825482559160010191906001019061128b565b5b5090506112b491906112b8565b5090565b5b808211156112d15760008160009055506001016112b9565b5090565b60006112e86112e3846118a0565b61187b565b90508281526020810184848401111561130057600080fd5b61130b848285611a05565b509392505050565b60008135905061132281611c9e565b92915050565b60008135905061133781611cb5565b92915050565b600082601f83011261134e57600080fd5b813561135e8482602086016112d5565b91505092915050565b60008135905061137681611cc5565b92915050565b60006020828403121561138e57600080fd5b600061139c84828501611313565b91505092915050565b6000602082840312156113b757600080fd5b60006113c584828501611328565b91505092915050565b600080600080600060a086880312156113e657600080fd5b60006113f488828901611328565b955050602086013567ffffffffffffffff81111561141157600080fd5b61141d8882890161133d565b945050604086013567ffffffffffffffff81111561143a57600080fd5b6114468882890161133d565b935050606061145788828901611367565b925050608061146888828901611367565b9150509295509295909350565b6000806040838503121561148857600080fd5b600061149685828601611328565b92505060206114a785828601611367565b9150509250929050565b60006114bd83836116a6565b905092915050565b60006114d183836116fd565b905092915050565b6114e2816119a4565b82525050565b60006114f3826118f1565b6114fd818561192c565b93508360208202850161150f856118d1565b8060005b8581101561154b578484038952815161152c85826114b1565b945061153783611912565b925060208a01995050600181019050611513565b50829750879550505050505092915050565b6000611568826118fc565b611572818561193d565b935083602082028501611584856118e1565b8060005b858110156115c057848403895281516115a185826114c5565b94506115ac8361191f565b925060208a01995050600181019050611588565b50829750879550505050505092915050565b6115db816119f3565b82525050565b60006115ec82611907565b6115f6818561194e565b9350611606818560208601611a14565b61160f81611baf565b840191505092915050565b600061162760268361195f565b915061163282611bc0565b604082019050919050565b600061164a600e8361195f565b915061165582611c0f565b602082019050919050565b600061166d60208361195f565b915061167882611c38565b602082019050919050565b600061169060198361195f565b915061169b82611c61565b602082019050919050565b60006060830160008301516116be60008601826115d2565b50602083015184820360208601526116d682826115e1565b915050604083015184820360408601526116f082826115e1565b9150508091505092915050565b600060c083016000830151611715600086018261178d565b506020830151611728602086018261178d565b50604083015161173b604086018261178d565b50606083015161174e60608601826115d2565b506080830151848203608086015261176682826115e1565b91505060a083015184820360a086015261178082826115e1565b9150508091505092915050565b611796816119e9565b82525050565b60006020820190506117b160008301846114d9565b92915050565b600060208201905081810360008301526117d181846114e8565b905092915050565b600060208201905081810360008301526117f3818461155d565b905092915050565b600060208201905081810360008301526118148161161a565b9050919050565b600060208201905081810360008301526118348161163d565b9050919050565b6000602082019050818103600083015261185481611660565b9050919050565b6000602082019050818103600083015261187481611683565b9050919050565b6000611885611896565b90506118918282611a79565b919050565b6000604051905090565b600067ffffffffffffffff8211156118bb576118ba611b80565b5b6118c482611baf565b9050602081019050919050565b6000819050602082019050919050565b6000819050602082019050919050565b600081519050919050565b600081519050919050565b600081519050919050565b6000602082019050919050565b6000602082019050919050565b600082825260208201905092915050565b600082825260208201905092915050565b600082825260208201905092915050565b600082825260208201905092915050565b600061197b826119e9565b9150611986836119e9565b92508282101561199957611998611af3565b5b828203905092915050565b60006119af826119c9565b9050919050565b60008190506119c482611c8a565b919050565b600073ffffffffffffffffffffffffffffffffffffffff82169050919050565b6000819050919050565b60006119fe826119b6565b9050919050565b82818337600083830152505050565b60005b83811015611a32578082015181840152602081019050611a17565b83811115611a41576000848401525b50505050565b60006002820490506001821680611a5f57607f821691505b60208210811415611a7357611a72611b51565b5b50919050565b611a8282611baf565b810181811067ffffffffffffffff82111715611aa157611aa0611b80565b5b80604052505050565b6000611ab5826119e9565b91507fffffffffffffffffffffffffffffffffffffffffffffffffffffffffffffffff821415611ae857611ae7611af3565b5b600182019050919050565b7f4e487b7100000000000000000000000000000000000000000000000000000000600052601160045260246000fd5b7f4e487b7100000000000000000000000000000000000000000000000000000000600052602160045260246000fd5b7f4e487b7100000000000000000000000000000000000000000000000000000000600052602260045260246000fd5b7f4e487b7100000000000000000000000000000000000000000000000000000000600052604160045260246000fd5b6000601f19601f8301169050919050565b7f4f776e61626c653a206e6577206f776e657220697320746865207a65726f206160008201527f6464726573730000000000000000000000000000000000000000000000000000602082015250565b7f506c61636520636f6d706c657465000000000000000000000000000000000000600082015250565b7f4f776e61626c653a2063616c6c6572206973206e6f7420746865206f776e6572600082015250565b7f56616c7565206973206e6f7420302e3030303120657468657200000000000000600082015250565b60028110611c9b57611c9a611b22565b5b50565b611ca7816119a4565b8114611cb257600080fd5b50565b60028110611cc257600080fd5b50565b611cce816119e9565b8114611cd957600080fd5b5056fea26469706673582212201fb87a443355d213b69878852da14cb91f65e7a1d290fc44fe50c6b9d26c5ed264736f6c63430008040033",
  "linkReferences": {},
  "deployedLinkReferences": {}
}