{
  "_format": "hh-sol-artifact-1",
  "contractName": "ReservApp",
  "sourceName": "contracts/ReservApp.sol",
  "abi": [
    {
      "inputs": [
        {
          "internalType": "address",
          "name": "_nft",
          "type": "address"
        }
      ],
      "stateMutability": "nonpayable",
      "type": "constructor"
    },
    {
      "anonymous": false,
      "inputs": [
        {
          "indexed": true,
          "internalType": "uint8",
          "name": "index",
          "type": "uint8"
        },
        {
          "indexed": false,
          "internalType": "string",
          "name": "name",
          "type": "string"
        },
        {
          "indexed": false,
          "internalType": "string",
          "name": "description",
          "type": "string"
        },
        {
          "indexed": false,
          "internalType": "string",
          "name": "image",
          "type": "string"
        }
      ],
      "name": "NewCategoryEvent",
      "type": "event"
    },
    {
      "anonymous": false,
      "inputs": [
        {
          "indexed": true,
          "internalType": "address",
          "name": "direction",
          "type": "address"
        },
        {
          "indexed": false,
          "internalType": "string",
          "name": "last_name",
          "type": "string"
        },
        {
          "indexed": false,
          "internalType": "string",
          "name": "first_name",
          "type": "string"
        },
        {
          "indexed": false,
          "internalType": "string",
          "name": "email",
          "type": "string"
        }
      ],
      "name": "NewPersonEvent",
      "type": "event"
    },
    {
      "anonymous": false,
      "inputs": [
        {
          "indexed": true,
          "internalType": "uint256",
          "name": "id",
          "type": "uint256"
        },
        {
          "indexed": true,
          "internalType": "uint256",
          "name": "index",
          "type": "uint256"
        },
        {
          "indexed": false,
          "internalType": "uint256",
          "name": "size",
          "type": "uint256"
        },
        {
          "indexed": false,
          "internalType": "uint256",
          "name": "price",
          "type": "uint256"
        },
        {
          "indexed": false,
          "internalType": "uint8",
          "name": "category",
          "type": "uint8"
        },
        {
          "indexed": false,
          "internalType": "string",
          "name": "title",
          "type": "string"
        },
        {
          "indexed": false,
          "internalType": "string",
          "name": "description",
          "type": "string"
        },
        {
          "indexed": false,
          "internalType": "string",
          "name": "image",
          "type": "string"
        }
      ],
      "name": "NewPlaceEvent",
      "type": "event"
    },
    {
      "anonymous": false,
      "inputs": [
        {
          "indexed": true,
          "internalType": "address",
          "name": "user",
          "type": "address"
        },
        {
          "indexed": false,
          "internalType": "uint8",
          "name": "category",
          "type": "uint8"
        },
        {
          "indexed": true,
          "internalType": "uint256",
          "name": "index",
          "type": "uint256"
        },
        {
          "indexed": false,
          "internalType": "string",
          "name": "name",
          "type": "string"
        },
        {
          "indexed": false,
          "internalType": "string",
          "name": "description",
          "type": "string"
        }
      ],
      "name": "NewRentEvent",
      "type": "event"
    },
    {
      "anonymous": false,
      "inputs": [
        {
          "indexed": true,
          "internalType": "address",
          "name": "previousOwner",
          "type": "address"
        },
        {
          "indexed": true,
          "internalType": "address",
          "name": "newOwner",
          "type": "address"
        }
      ],
      "name": "OwnershipTransferred",
      "type": "event"
    },
    {
      "stateMutability": "payable",
      "type": "fallback"
    },
    {
      "inputs": [],
      "name": "getBalance",
      "outputs": [
        {
          "internalType": "uint256",
          "name": "",
          "type": "uint256"
        }
      ],
      "stateMutability": "view",
      "type": "function"
    },
    {
      "inputs": [],
      "name": "getCategories",
      "outputs": [
        {
          "components": [
            {
              "internalType": "uint8",
              "name": "index",
              "type": "uint8"
            },
            {
              "internalType": "string",
              "name": "name",
              "type": "string"
            },
            {
              "internalType": "string",
              "name": "description",
              "type": "string"
            },
            {
              "internalType": "string",
              "name": "image",
              "type": "string"
            }
          ],
          "internalType": "struct ReservApp.Category[]",
          "name": "",
          "type": "tuple[]"
        }
      ],
      "stateMutability": "view",
      "type": "function"
    },
    {
      "inputs": [],
      "name": "getMyPlaces",
      "outputs": [
        {
          "components": [
            {
              "internalType": "uint8",
              "name": "category",
              "type": "uint8"
            },
            {
              "internalType": "string",
              "name": "title",
              "type": "string"
            },
            {
              "internalType": "string",
              "name": "description",
              "type": "string"
            }
          ],
          "internalType": "struct ReservApp.PlaceRent[]",
          "name": "",
          "type": "tuple[]"
        }
      ],
      "stateMutability": "view",
      "type": "function"
    },
    {
      "inputs": [],
      "name": "getPersonByAddress",
      "outputs": [
        {
          "components": [
            {
              "internalType": "string",
              "name": "first_name",
              "type": "string"
            },
            {
              "internalType": "string",
              "name": "last_name",
              "type": "string"
            },
            {
              "internalType": "string",
              "name": "email",
              "type": "string"
            }
          ],
          "internalType": "struct ReservApp.Person",
          "name": "",
          "type": "tuple"
        }
      ],
      "stateMutability": "view",
      "type": "function"
    },
    {
      "inputs": [
        {
          "internalType": "uint8",
          "name": "category",
          "type": "uint8"
        },
        {
          "internalType": "uint256",
          "name": "index",
          "type": "uint256"
        }
      ],
      "name": "getPlaceById",
      "outputs": [
        {
          "components": [
            {
              "internalType": "uint256",
              "name": "id",
              "type": "uint256"
            },
            {
              "internalType": "uint256",
              "name": "index",
              "type": "uint256"
            },
            {
              "internalType": "address",
              "name": "owner",
              "type": "address"
            },
            {
              "internalType": "uint256",
              "name": "size",
              "type": "uint256"
            },
            {
              "internalType": "uint256",
              "name": "price",
              "type": "uint256"
            },
            {
              "internalType": "uint8",
              "name": "category",
              "type": "uint8"
            },
            {
              "internalType": "string",
              "name": "title",
              "type": "string"
            },
            {
              "internalType": "string",
              "name": "description",
              "type": "string"
            },
            {
              "internalType": "string",
              "name": "image",
              "type": "string"
            }
          ],
          "internalType": "struct ReservApp.Place",
          "name": "",
          "type": "tuple"
        }
      ],
      "stateMutability": "view",
      "type": "function"
    },
    {
      "inputs": [
        {
          "internalType": "uint8",
          "name": "category",
          "type": "uint8"
        }
      ],
      "name": "getPlacesByCategory",
      "outputs": [
        {
          "components": [
            {
              "internalType": "uint256",
              "name": "id",
              "type": "uint256"
            },
            {
              "internalType": "uint256",
              "name": "index",
              "type": "uint256"
            },
            {
              "internalType": "address",
              "name": "owner",
              "type": "address"
            },
            {
              "internalType": "uint256",
              "name": "size",
              "type": "uint256"
            },
            {
              "internalType": "uint256",
              "name": "price",
              "type": "uint256"
            },
            {
              "internalType": "uint8",
              "name": "category",
              "type": "uint8"
            },
            {
              "internalType": "string",
              "name": "title",
              "type": "string"
            },
            {
              "internalType": "string",
              "name": "description",
              "type": "string"
            },
            {
              "internalType": "string",
              "name": "image",
              "type": "string"
            }
          ],
          "internalType": "struct ReservApp.Place[]",
          "name": "",
          "type": "tuple[]"
        }
      ],
      "stateMutability": "view",
      "type": "function"
    },
    {
      "inputs": [],
      "name": "isOwner",
      "outputs": [
        {
          "internalType": "bool",
          "name": "",
          "type": "bool"
        }
      ],
      "stateMutability": "view",
      "type": "function"
    },
    {
      "inputs": [
        {
          "internalType": "string",
          "name": "first_name",
          "type": "string"
        },
        {
          "internalType": "string",
          "name": "last_name",
          "type": "string"
        },
        {
          "internalType": "string",
          "name": "email",
          "type": "string"
        }
      ],
      "name": "linkedPerson",
      "outputs": [],
      "stateMutability": "nonpayable",
      "type": "function"
    },
    {
      "inputs": [
        {
          "internalType": "string",
          "name": "category",
          "type": "string"
        },
        {
          "internalType": "string",
          "name": "description",
          "type": "string"
        },
        {
          "internalType": "string",
          "name": "image",
          "type": "string"
        }
      ],
      "name": "newCategory",
      "outputs": [],
      "stateMutability": "nonpayable",
      "type": "function"
    },
    {
      "inputs": [
        {
          "internalType": "uint8",
          "name": "category",
          "type": "uint8"
        },
        {
          "internalType": "uint256",
          "name": "price",
          "type": "uint256"
        },
        {
          "internalType": "uint256",
          "name": "size",
          "type": "uint256"
        },
        {
          "internalType": "string",
          "name": "title",
          "type": "string"
        },
        {
          "internalType": "string",
          "name": "description",
          "type": "string"
        },
        {
          "internalType": "string",
          "name": "image",
          "type": "string"
        }
      ],
      "name": "newPlace",
      "outputs": [],
      "stateMutability": "payable",
      "type": "function"
    },
    {
      "inputs": [],
      "name": "owner",
      "outputs": [
        {
          "internalType": "address",
          "name": "",
          "type": "address"
        }
      ],
      "stateMutability": "view",
      "type": "function"
    },
    {
      "inputs": [],
      "name": "renounceOwnership",
      "outputs": [],
      "stateMutability": "nonpayable",
      "type": "function"
    },
    {
      "inputs": [
        {
          "internalType": "uint8",
          "name": "category",
          "type": "uint8"
        },
        {
          "internalType": "uint256",
          "name": "index",
          "type": "uint256"
        }
      ],
      "name": "rentPlace",
      "outputs": [],
      "stateMutability": "payable",
      "type": "function"
    },
    {
      "inputs": [
        {
          "internalType": "address",
          "name": "newOwner",
          "type": "address"
        }
      ],
      "name": "transferOwnership",
      "outputs": [],
      "stateMutability": "nonpayable",
      "type": "function"
    },
    {
      "inputs": [],
      "name": "withdraw",
      "outputs": [
        {
          "internalType": "bool",
          "name": "",
          "type": "bool"
        }
      ],
      "stateMutability": "payable",
      "type": "function"
    },
    {
      "stateMutability": "payable",
      "type": "receive"
    }
  ],
  "bytecode": "0x60806040526000600260016101000a81548160ff0219169083151502179055503480156200002c57600080fd5b50604051620035973803806200359783398181016040528101906200005291906200019d565b6200007262000066620000ba60201b60201c565b620000c260201b60201c565b80600860006101000a81548173ffffffffffffffffffffffffffffffffffffffff021916908373ffffffffffffffffffffffffffffffffffffffff1602179055505062000217565b600033905090565b60008060009054906101000a900473ffffffffffffffffffffffffffffffffffffffff169050816000806101000a81548173ffffffffffffffffffffffffffffffffffffffff021916908373ffffffffffffffffffffffffffffffffffffffff1602179055508173ffffffffffffffffffffffffffffffffffffffff168173ffffffffffffffffffffffffffffffffffffffff167f8be0079c531659141344cd1fd0a4f28419497f9722a3daafe3b4186f6b6457e060405160405180910390a35050565b6000815190506200019781620001fd565b92915050565b600060208284031215620001b057600080fd5b6000620001c08482850162000186565b91505092915050565b6000620001d682620001dd565b9050919050565b600073ffffffffffffffffffffffffffffffffffffffff82169050919050565b6200020881620001c9565b81146200021457600080fd5b50565b61337080620002276000396000f3fe6080604052600436106100ec5760003560e01c806378ee976d1161008a578063d4844ee211610059578063d4844ee21461028d578063e85b39be146102ca578063eb38dd1b14610307578063f2fde38b14610330576100f3565b806378ee976d146101f05780638da5cb5b1461021b5780638f32d59b14610246578063aaf2215314610271576100f3565b80634db0412c116100c65780634db0412c1461016757806364ed3f941461019257806369a6f4a8146101bd578063715018a6146101d9576100f3565b806312065fe0146100f55780633ccfd60b146101205780633fd3b4941461013e576100f3565b366100f357005b005b34801561010157600080fd5b5061010a610359565b6040516101179190612cf4565b60405180910390f35b6101286103a0565b6040516101359190612b69565b60405180910390f35b34801561014a57600080fd5b5061016560048036038101906101609190612203565b6105b1565b005b34801561017357600080fd5b5061017c6106bc565b6040516101899190612b03565b60405180910390f35b34801561019e57600080fd5b506101a76108ee565b6040516101b49190612cb0565b60405180910390f35b6101d760048036038101906101d291906122ec565b610afb565b005b3480156101e557600080fd5b506101ee61110e565b005b3480156101fc57600080fd5b50610205611196565b6040516102129190612b25565b60405180910390f35b34801561022757600080fd5b50610230611373565b60405161023d9190612ae8565b60405180910390f35b34801561025257600080fd5b5061025b61139c565b6040516102689190612b69565b60405180910390f35b61028b60048036038101906102869190612328565b6113d9565b005b34801561029957600080fd5b506102b460048036038101906102af91906122ec565b61162f565b6040516102c19190612cd2565b60405180910390f35b3480156102d657600080fd5b506102f160048036038101906102ec91906122c3565b6118fb565b6040516102fe9190612b47565b60405180910390f35b34801561031357600080fd5b5061032e60048036038101906103299190612203565b611bc5565b005b34801561033c57600080fd5b50610357600480360381019061035291906121da565b611da4565b005b6000600660003373ffffffffffffffffffffffffffffffffffffffff1673ffffffffffffffffffffffffffffffffffffffff16815260200190815260200160002054905090565b6000600260019054906101000a900460ff16156103bc57600080fd5b6001600260016101000a81548160ff0219169083151502179055506000600660003373ffffffffffffffffffffffffffffffffffffffff1673ffffffffffffffffffffffffffffffffffffffff1681526020019081526020016000205411610459576040517f08c379a000000000000000000000000000000000000000000000000000000000815260040161045090612c30565b60405180910390fd5b6000600660003373ffffffffffffffffffffffffffffffffffffffff1673ffffffffffffffffffffffffffffffffffffffff1681526020019081526020016000205490506000600660003373ffffffffffffffffffffffffffffffffffffffff1673ffffffffffffffffffffffffffffffffffffffff1681526020019081526020016000208190555060003373ffffffffffffffffffffffffffffffffffffffff168260405161050890612ad3565b60006040518083038185875af1925050503d8060008114610545576040519150601f19603f3d011682016040523d82523d6000602084013e61054a565b606091505b505090508061058e576040517f08c379a000000000000000000000000000000000000000000000000000000000815260040161058590612c90565b60405180910390fd5b80925050506000600260016101000a81548160ff02191690831515021790555090565b604051806060016040528084815260200183815260200182815250600760003373ffffffffffffffffffffffffffffffffffffffff1673ffffffffffffffffffffffffffffffffffffffff1681526020019081526020016000206000820151816000019080519060200190610627929190611f68565b506020820151816001019080519060200190610644929190611f68565b506040820151816002019080519060200190610661929190611f68565b509050503373ffffffffffffffffffffffffffffffffffffffff167f3e7860a6e79c8425a92caed3a4c895b05709742f2e8f4c8f7152b8607ebcf6c08484846040516106af93929190612b84565b60405180910390a2505050565b60606003805480602002602001604051908101604052809291908181526020016000905b828210156108e557838290600052602060002090600402016040518060800160405290816000820160009054906101000a900460ff1660ff1660ff16815260200160018201805461073090613039565b80601f016020809104026020016040519081016040528092919081815260200182805461075c90613039565b80156107a95780601f1061077e576101008083540402835291602001916107a9565b820191906000526020600020905b81548152906001019060200180831161078c57829003601f168201915b505050505081526020016002820180546107c290613039565b80601f01602080910402602001604051908101604052809291908181526020018280546107ee90613039565b801561083b5780601f106108105761010080835404028352916020019161083b565b820191906000526020600020905b81548152906001019060200180831161081e57829003601f168201915b5050505050815260200160038201805461085490613039565b80601f016020809104026020016040519081016040528092919081815260200182805461088090613039565b80156108cd5780601f106108a2576101008083540402835291602001916108cd565b820191906000526020600020905b8154815290600101906020018083116108b057829003601f168201915b505050505081525050815260200190600101906106e0565b50505050905090565b6108f6611fee565b600760003373ffffffffffffffffffffffffffffffffffffffff1673ffffffffffffffffffffffffffffffffffffffff16815260200190815260200160002060405180606001604052908160008201805461095090613039565b80601f016020809104026020016040519081016040528092919081815260200182805461097c90613039565b80156109c95780601f1061099e576101008083540402835291602001916109c9565b820191906000526020600020905b8154815290600101906020018083116109ac57829003601f168201915b505050505081526020016001820180546109e290613039565b80601f0160208091040260200160405190810160405280929190818152602001828054610a0e90613039565b8015610a5b5780601f10610a3057610100808354040283529160200191610a5b565b820191906000526020600020905b815481529060010190602001808311610a3e57829003601f168201915b50505050508152602001600282018054610a7490613039565b80601f0160208091040260200160405190810160405280929190818152602001828054610aa090613039565b8015610aed5780601f10610ac257610100808354040283529160200191610aed565b820191906000526020600020905b815481529060010190602001808311610ad057829003601f168201915b505050505081525050905090565b6000600460008460ff1660ff1681526020019081526020016000208281548110610b4e577f4e487b7100000000000000000000000000000000000000000000000000000000600052603260045260246000fd5b906000526020600020906009020190506000816003015411610ba5576040517f08c379a0000000000000000000000000000000000000000000000000000000008152600401610b9c90612bf0565b60405180910390fd5b34816004015414610beb576040517f08c379a0000000000000000000000000000000000000000000000000000000008152600401610be290612c10565b60405180910390fd5b6001816003016000828254610c009190612f6e565b9250508190555080600460008560ff1660ff1681526020019081526020016000208381548110610c59577f4e487b7100000000000000000000000000000000000000000000000000000000600052603260045260246000fd5b906000526020600020906009020160008201548160000155600182015481600101556002820160009054906101000a900473ffffffffffffffffffffffffffffffffffffffff168160020160006101000a81548173ffffffffffffffffffffffffffffffffffffffff021916908373ffffffffffffffffffffffffffffffffffffffff16021790555060038201548160030155600482015481600401556005820160009054906101000a900460ff168160050160006101000a81548160ff021916908360ff1602179055506006820181600601908054610d3890613039565b610d4392919061200f565b506007820181600701908054610d5890613039565b610d6392919061200f565b506008820181600801908054610d7890613039565b610d8392919061200f565b5090505060008160020160009054906101000a900473ffffffffffffffffffffffffffffffffffffffff169050600560003373ffffffffffffffffffffffffffffffffffffffff1673ffffffffffffffffffffffffffffffffffffffff16815260200190815260200160002060405180606001604052808660ff168152602001846006018054610e1290613039565b80601f0160208091040260200160405190810160405280929190818152602001828054610e3e90613039565b8015610e8b5780601f10610e6057610100808354040283529160200191610e8b565b820191906000526020600020905b815481529060010190602001808311610e6e57829003601f168201915b50505050508152602001846007018054610ea490613039565b80601f0160208091040260200160405190810160405280929190818152602001828054610ed090613039565b8015610f1d5780601f10610ef257610100808354040283529160200191610f1d565b820191906000526020600020905b815481529060010190602001808311610f0057829003601f168201915b5050505050815250908060018154018082558091505060019003906000526020600020906003020160009091909190915060008201518160000160006101000a81548160ff021916908360ff1602179055506020820151816001019080519060200190610f8b929190611f68565b506040820151816002019080519060200190610fa8929190611f68565b505050600860009054906101000a900473ffffffffffffffffffffffffffffffffffffffff1673ffffffffffffffffffffffffffffffffffffffff166354ba0f27336040518263ffffffff1660e01b81526004016110069190612ae8565b602060405180830381600087803b15801561102057600080fd5b505af1158015611034573d6000803e3d6000fd5b505050506040513d601f19601f82011682018060405250810190611058919061229a565b5034600660008373ffffffffffffffffffffffffffffffffffffffff1673ffffffffffffffffffffffffffffffffffffffff16815260200190815260200160002060008282546110a89190612f18565b92505081905550823373ffffffffffffffffffffffffffffffffffffffff167f63cd513bbfa9af637f007bdd8cfeb1976f2914b5493b3d9841533c3b4390118786856006018660070160405161110093929190612d85565b60405180910390a350505050565b611116611e9c565b73ffffffffffffffffffffffffffffffffffffffff16611134611373565b73ffffffffffffffffffffffffffffffffffffffff161461118a576040517f08c379a000000000000000000000000000000000000000000000000000000000815260040161118190612c50565b60405180910390fd5b6111946000611ea4565b565b6060600560003373ffffffffffffffffffffffffffffffffffffffff1673ffffffffffffffffffffffffffffffffffffffff168152602001908152602001600020805480602002602001604051908101604052809291908181526020016000905b8282101561136a57838290600052602060002090600302016040518060600160405290816000820160009054906101000a900460ff1660ff1660ff16815260200160018201805461124790613039565b80601f016020809104026020016040519081016040528092919081815260200182805461127390613039565b80156112c05780601f10611295576101008083540402835291602001916112c0565b820191906000526020600020905b8154815290600101906020018083116112a357829003601f168201915b505050505081526020016002820180546112d990613039565b80601f016020809104026020016040519081016040528092919081815260200182805461130590613039565b80156113525780601f1061132757610100808354040283529160200191611352565b820191906000526020600020905b81548152906001019060200180831161133557829003601f168201915b505050505081525050815260200190600101906111f7565b50505050905090565b60008060009054906101000a900473ffffffffffffffffffffffffffffffffffffffff16905090565b60003373ffffffffffffffffffffffffffffffffffffffff166113bd611373565b73ffffffffffffffffffffffffffffffffffffffff1614905090565b655af3107a40003414611421576040517f08c379a000000000000000000000000000000000000000000000000000000000815260040161141890612c70565b60405180910390fd5b6000600460008860ff1660ff168152602001908152602001600020805490509050600460008860ff1660ff16815260200190815260200160002060405180610120016040528060015481526020018381526020013373ffffffffffffffffffffffffffffffffffffffff1681526020018781526020018881526020018960ff168152602001868152602001858152602001848152509080600181540180825580915050600190039060005260206000209060090201600090919091909150600082015181600001556020820151816001015560408201518160020160006101000a81548173ffffffffffffffffffffffffffffffffffffffff021916908373ffffffffffffffffffffffffffffffffffffffff160217905550606082015181600301556080820151816004015560a08201518160050160006101000a81548160ff021916908360ff16021790555060c082015181600601908051906020019061158b929190611f68565b5060e08201518160070190805190602001906115a8929190611f68565b506101008201518160080190805190602001906115c6929190611f68565b505050600160008154809291906115dc9061309c565b9190505550806001547f55b682d69381b8942b84474fac0361900424a7b2526315b28db6ac4c80437fb987898b89898960405161161e96959493929190612d0f565b60405180910390a350505050505050565b61163761209c565b600460008460ff1660ff1681526020019081526020016000208281548110611688577f4e487b7100000000000000000000000000000000000000000000000000000000600052603260045260246000fd5b90600052602060002090600902016040518061012001604052908160008201548152602001600182015481526020016002820160009054906101000a900473ffffffffffffffffffffffffffffffffffffffff1673ffffffffffffffffffffffffffffffffffffffff1673ffffffffffffffffffffffffffffffffffffffff16815260200160038201548152602001600482015481526020016005820160009054906101000a900460ff1660ff1660ff16815260200160068201805461174d90613039565b80601f016020809104026020016040519081016040528092919081815260200182805461177990613039565b80156117c65780601f1061179b576101008083540402835291602001916117c6565b820191906000526020600020905b8154815290600101906020018083116117a957829003601f168201915b505050505081526020016007820180546117df90613039565b80601f016020809104026020016040519081016040528092919081815260200182805461180b90613039565b80156118585780601f1061182d57610100808354040283529160200191611858565b820191906000526020600020905b81548152906001019060200180831161183b57829003601f168201915b5050505050815260200160088201805461187190613039565b80601f016020809104026020016040519081016040528092919081815260200182805461189d90613039565b80156118ea5780601f106118bf576101008083540402835291602001916118ea565b820191906000526020600020905b8154815290600101906020018083116118cd57829003601f168201915b505050505081525050905092915050565b6060600460008360ff1660ff168152602001908152602001600020805480602002602001604051908101604052809291908181526020016000905b82821015611bba57838290600052602060002090600902016040518061012001604052908160008201548152602001600182015481526020016002820160009054906101000a900473ffffffffffffffffffffffffffffffffffffffff1673ffffffffffffffffffffffffffffffffffffffff1673ffffffffffffffffffffffffffffffffffffffff16815260200160038201548152602001600482015481526020016005820160009054906101000a900460ff1660ff1660ff168152602001600682018054611a0590613039565b80601f0160208091040260200160405190810160405280929190818152602001828054611a3190613039565b8015611a7e5780601f10611a5357610100808354040283529160200191611a7e565b820191906000526020600020905b815481529060010190602001808311611a6157829003601f168201915b50505050508152602001600782018054611a9790613039565b80601f0160208091040260200160405190810160405280929190818152602001828054611ac390613039565b8015611b105780601f10611ae557610100808354040283529160200191611b10565b820191906000526020600020905b815481529060010190602001808311611af357829003601f168201915b50505050508152602001600882018054611b2990613039565b80601f0160208091040260200160405190810160405280929190818152602001828054611b5590613039565b8015611ba25780601f10611b7757610100808354040283529160200191611ba2565b820191906000526020600020905b815481529060010190602001808311611b8557829003601f168201915b50505050508152505081526020019060010190611936565b505050509050919050565b611bcd611e9c565b73ffffffffffffffffffffffffffffffffffffffff16611beb611373565b73ffffffffffffffffffffffffffffffffffffffff1614611c41576040517f08c379a0000000000000000000000000000000000000000000000000000000008152600401611c3890612c50565b60405180910390fd5b60036040518060800160405280600260009054906101000a900460ff1660ff16815260200185815260200184815260200183815250908060018154018082558091505060019003906000526020600020906004020160009091909190915060008201518160000160006101000a81548160ff021916908360ff1602179055506020820151816001019080519060200190611cdc929190611f68565b506040820151816002019080519060200190611cf9929190611f68565b506060820151816003019080519060200190611d16929190611f68565b5050506002600081819054906101000a900460ff1680929190611d38906130e5565b91906101000a81548160ff021916908360ff16021790555050600260009054906101000a900460ff1660ff167fba308579c9f6e1ed825ce431889b08f19cd1da2c7a99b294856a10acf88162c6848484604051611d9793929190612b84565b60405180910390a2505050565b611dac611e9c565b73ffffffffffffffffffffffffffffffffffffffff16611dca611373565b73ffffffffffffffffffffffffffffffffffffffff1614611e20576040517f08c379a0000000000000000000000000000000000000000000000000000000008152600401611e1790612c50565b60405180910390fd5b600073ffffffffffffffffffffffffffffffffffffffff168173ffffffffffffffffffffffffffffffffffffffff161415611e90576040517f08c379a0000000000000000000000000000000000000000000000000000000008152600401611e8790612bd0565b60405180910390fd5b611e9981611ea4565b50565b600033905090565b60008060009054906101000a900473ffffffffffffffffffffffffffffffffffffffff169050816000806101000a81548173ffffffffffffffffffffffffffffffffffffffff021916908373ffffffffffffffffffffffffffffffffffffffff1602179055508173ffffffffffffffffffffffffffffffffffffffff168173ffffffffffffffffffffffffffffffffffffffff167f8be0079c531659141344cd1fd0a4f28419497f9722a3daafe3b4186f6b6457e060405160405180910390a35050565b828054611f7490613039565b90600052602060002090601f016020900481019282611f965760008555611fdd565b82601f10611faf57805160ff1916838001178555611fdd565b82800160010185558215611fdd579182015b82811115611fdc578251825591602001919060010190611fc1565b5b509050611fea9190612101565b5090565b60405180606001604052806060815260200160608152602001606081525090565b82805461201b90613039565b90600052602060002090601f01602090048101928261203d576000855561208b565b82601f1061204e578054855561208b565b8280016001018555821561208b57600052602060002091601f016020900482015b8281111561208a57825482559160010191906001019061206f565b5b5090506120989190612101565b5090565b6040518061012001604052806000815260200160008152602001600073ffffffffffffffffffffffffffffffffffffffff1681526020016000815260200160008152602001600060ff1681526020016060815260200160608152602001606081525090565b5b8082111561211a576000816000905550600101612102565b5090565b600061213161212c84612def565b612dca565b90508281526020810184848401111561214957600080fd5b612154848285612ff7565b509392505050565b60008135905061216b816132f5565b92915050565b600082601f83011261218257600080fd5b813561219284826020860161211e565b91505092915050565b6000813590506121aa8161330c565b92915050565b6000815190506121bf8161330c565b92915050565b6000813590506121d481613323565b92915050565b6000602082840312156121ec57600080fd5b60006121fa8482850161215c565b91505092915050565b60008060006060848603121561221857600080fd5b600084013567ffffffffffffffff81111561223257600080fd5b61223e86828701612171565b935050602084013567ffffffffffffffff81111561225b57600080fd5b61226786828701612171565b925050604084013567ffffffffffffffff81111561228457600080fd5b61229086828701612171565b9150509250925092565b6000602082840312156122ac57600080fd5b60006122ba848285016121b0565b91505092915050565b6000602082840312156122d557600080fd5b60006122e3848285016121c5565b91505092915050565b600080604083850312156122ff57600080fd5b600061230d858286016121c5565b925050602061231e8582860161219b565b9150509250929050565b60008060008060008060c0878903121561234157600080fd5b600061234f89828a016121c5565b965050602061236089828a0161219b565b955050604061237189828a0161219b565b945050606087013567ffffffffffffffff81111561238e57600080fd5b61239a89828a01612171565b935050608087013567ffffffffffffffff8111156123b757600080fd5b6123c389828a01612171565b92505060a087013567ffffffffffffffff8111156123e057600080fd5b6123ec89828a01612171565b9150509295509295509295565b600061240583836127cb565b905092915050565b6000612419838361289a565b905092915050565b600061242d83836128f1565b905092915050565b61243e81612fa2565b82525050565b61244d81612fa2565b82525050565b600061245e82612e65565b6124688185612eb8565b93508360208202850161247a85612e20565b8060005b858110156124b6578484038952815161249785826123f9565b94506124a283612e91565b925060208a0199505060018101905061247e565b50829750879550505050505092915050565b60006124d382612e70565b6124dd8185612ec9565b9350836020820285016124ef85612e30565b8060005b8581101561252b578484038952815161250c858261240d565b945061251783612e9e565b925060208a019950506001810190506124f3565b50829750879550505050505092915050565b600061254882612e7b565b6125528185612eda565b93508360208202850161256485612e40565b8060005b858110156125a057848403895281516125818582612421565b945061258c83612eab565b925060208a01995050600181019050612568565b50829750879550505050505092915050565b6125bb81612fb4565b82525050565b60006125cc82612e86565b6125d68185612ef6565b93506125e6818560208601613006565b6125ef8161319c565b840191505092915050565b600061260582612e86565b61260f8185612f07565b935061261f818560208601613006565b6126288161319c565b840191505092915050565b6000815461264081613039565b61264a8186612f07565b945060018216600081146126655760018114612677576126aa565b60ff19831686526020860193506126aa565b61268085612e50565b60005b838110156126a257815481890152600182019150602081019050612683565b808801955050505b50505092915050565b60006126c0602683612f07565b91506126cb826131ad565b604082019050919050565b60006126e3600e83612f07565b91506126ee826131fc565b602082019050919050565b6000612706601183612f07565b915061271182613225565b602082019050919050565b6000612729600c83612f07565b91506127348261324e565b602082019050919050565b600061274c602083612f07565b915061275782613277565b602082019050919050565b600061276f600083612eeb565b915061277a826132a0565b600082019050919050565b6000612792601983612f07565b915061279d826132a3565b602082019050919050565b60006127b5601983612f07565b91506127c0826132cc565b602082019050919050565b60006080830160008301516127e36000860182612ab5565b50602083015184820360208601526127fb82826125c1565b9150506040830151848203604086015261281582826125c1565b9150506060830151848203606086015261282f82826125c1565b9150508091505092915050565b6000606083016000830151848203600086015261285982826125c1565b9150506020830151848203602086015261287382826125c1565b9150506040830151848203604086015261288d82826125c1565b9150508091505092915050565b60006060830160008301516128b26000860182612ab5565b50602083015184820360208601526128ca82826125c1565b915050604083015184820360408601526128e482826125c1565b9150508091505092915050565b60006101208301600083015161290a6000860182612a97565b50602083015161291d6020860182612a97565b5060408301516129306040860182612435565b5060608301516129436060860182612a97565b5060808301516129566080860182612a97565b5060a083015161296960a0860182612ab5565b5060c083015184820360c086015261298182826125c1565b91505060e083015184820360e086015261299b82826125c1565b9150506101008301518482036101008601526129b782826125c1565b9150508091505092915050565b6000610120830160008301516129dd6000860182612a97565b5060208301516129f06020860182612a97565b506040830151612a036040860182612435565b506060830151612a166060860182612a97565b506080830151612a296080860182612a97565b5060a0830151612a3c60a0860182612ab5565b5060c083015184820360c0860152612a5482826125c1565b91505060e083015184820360e0860152612a6e82826125c1565b915050610100830151848203610100860152612a8a82826125c1565b9150508091505092915050565b612aa081612fe0565b82525050565b612aaf81612fe0565b82525050565b612abe81612fea565b82525050565b612acd81612fea565b82525050565b6000612ade82612762565b9150819050919050565b6000602082019050612afd6000830184612444565b92915050565b60006020820190508181036000830152612b1d8184612453565b905092915050565b60006020820190508181036000830152612b3f81846124c8565b905092915050565b60006020820190508181036000830152612b61818461253d565b905092915050565b6000602082019050612b7e60008301846125b2565b92915050565b60006060820190508181036000830152612b9e81866125fa565b90508181036020830152612bb281856125fa565b90508181036040830152612bc681846125fa565b9050949350505050565b60006020820190508181036000830152612be9816126b3565b9050919050565b60006020820190508181036000830152612c09816126d6565b9050919050565b60006020820190508181036000830152612c29816126f9565b9050919050565b60006020820190508181036000830152612c498161271c565b9050919050565b60006020820190508181036000830152612c698161273f565b9050919050565b60006020820190508181036000830152612c8981612785565b9050919050565b60006020820190508181036000830152612ca9816127a8565b9050919050565b60006020820190508181036000830152612cca818461283c565b905092915050565b60006020820190508181036000830152612cec81846129c4565b905092915050565b6000602082019050612d096000830184612aa6565b92915050565b600060c082019050612d246000830189612aa6565b612d316020830188612aa6565b612d3e6040830187612ac4565b8181036060830152612d5081866125fa565b90508181036080830152612d6481856125fa565b905081810360a0830152612d7881846125fa565b9050979650505050505050565b6000606082019050612d9a6000830186612ac4565b8181036020830152612dac8185612633565b90508181036040830152612dc08184612633565b9050949350505050565b6000612dd4612de5565b9050612de0828261306b565b919050565b6000604051905090565b600067ffffffffffffffff821115612e0a57612e0961316d565b5b612e138261319c565b9050602081019050919050565b6000819050602082019050919050565b6000819050602082019050919050565b6000819050602082019050919050565b60008190508160005260206000209050919050565b600081519050919050565b600081519050919050565b600081519050919050565b600081519050919050565b6000602082019050919050565b6000602082019050919050565b6000602082019050919050565b600082825260208201905092915050565b600082825260208201905092915050565b600082825260208201905092915050565b600081905092915050565b600082825260208201905092915050565b600082825260208201905092915050565b6000612f2382612fe0565b9150612f2e83612fe0565b9250827fffffffffffffffffffffffffffffffffffffffffffffffffffffffffffffffff03821115612f6357612f6261310f565b5b828201905092915050565b6000612f7982612fe0565b9150612f8483612fe0565b925082821015612f9757612f9661310f565b5b828203905092915050565b6000612fad82612fc0565b9050919050565b60008115159050919050565b600073ffffffffffffffffffffffffffffffffffffffff82169050919050565b6000819050919050565b600060ff82169050919050565b82818337600083830152505050565b60005b83811015613024578082015181840152602081019050613009565b83811115613033576000848401525b50505050565b6000600282049050600182168061305157607f821691505b602082108114156130655761306461313e565b5b50919050565b6130748261319c565b810181811067ffffffffffffffff821117156130935761309261316d565b5b80604052505050565b60006130a782612fe0565b91507fffffffffffffffffffffffffffffffffffffffffffffffffffffffffffffffff8214156130da576130d961310f565b5b600182019050919050565b60006130f082612fea565b915060ff8214156131045761310361310f565b5b600182019050919050565b7f4e487b7100000000000000000000000000000000000000000000000000000000600052601160045260246000fd5b7f4e487b7100000000000000000000000000000000000000000000000000000000600052602260045260246000fd5b7f4e487b7100000000000000000000000000000000000000000000000000000000600052604160045260246000fd5b6000601f19601f8301169050919050565b7f4f776e61626c653a206e6577206f776e657220697320746865207a65726f206160008201527f6464726573730000000000000000000000000000000000000000000000000000602082015250565b7f506c61636520636f6d706c657465000000000000000000000000000000000000600082015250565b7f50726963652069732064697374696e6374000000000000000000000000000000600082015250565b7f42616c616e636520697320300000000000000000000000000000000000000000600082015250565b7f4f776e61626c653a2063616c6c6572206973206e6f7420746865206f776e6572600082015250565b50565b7f56616c7565206973206e6f7420302e3030303120657468657200000000000000600082015250565b7f5472616e73666572206973206e6f7420636f6d706c6574656400000000000000600082015250565b6132fe81612fa2565b811461330957600080fd5b50565b61331581612fe0565b811461332057600080fd5b50565b61332c81612fea565b811461333757600080fd5b5056fea26469706673582212202fcbfe43fecbf47a95c105cd91f49b916f5f370fcddbda3e5d72a3ef344c351e64736f6c63430008040033",
  "linkReferences": {},
  "deployedLinkReferences": {}
}