{
  "_format": "hh-sol-artifact-1",
  "contractName": "ReservApp",
  "sourceName": "contracts/ReservApp.sol",
  "abi": [
    {
      "inputs": [
        {
          "internalType": "address",
          "name": "_nft",
          "type": "address"
        }
      ],
      "stateMutability": "nonpayable",
      "type": "constructor"
    },
    {
      "anonymous": false,
      "inputs": [
        {
          "indexed": false,
          "internalType": "enum ReservApp.Category",
          "name": "category",
          "type": "uint8"
        },
        {
          "indexed": false,
          "internalType": "uint256",
          "name": "index",
          "type": "uint256"
        }
      ],
      "name": "NewPlaceEvent",
      "type": "event"
    },
    {
      "anonymous": false,
      "inputs": [
        {
          "indexed": false,
          "internalType": "address",
          "name": "user",
          "type": "address"
        },
        {
          "indexed": false,
          "internalType": "enum ReservApp.Category",
          "name": "category",
          "type": "uint8"
        },
        {
          "indexed": false,
          "internalType": "uint256",
          "name": "index",
          "type": "uint256"
        }
      ],
      "name": "NewRent",
      "type": "event"
    },
    {
      "anonymous": false,
      "inputs": [
        {
          "indexed": true,
          "internalType": "address",
          "name": "previousOwner",
          "type": "address"
        },
        {
          "indexed": true,
          "internalType": "address",
          "name": "newOwner",
          "type": "address"
        }
      ],
      "name": "OwnershipTransferred",
      "type": "event"
    },
    {
      "stateMutability": "payable",
      "type": "fallback"
    },
    {
      "inputs": [],
      "name": "getMyPlaces",
      "outputs": [
        {
          "components": [
            {
              "internalType": "enum ReservApp.Category",
              "name": "category",
              "type": "uint8"
            },
            {
              "internalType": "string",
              "name": "title",
              "type": "string"
            },
            {
              "internalType": "string",
              "name": "description",
              "type": "string"
            }
          ],
          "internalType": "struct ReservApp.PlaceRent[]",
          "name": "",
          "type": "tuple[]"
        }
      ],
      "stateMutability": "view",
      "type": "function"
    },
    {
      "inputs": [
        {
          "internalType": "enum ReservApp.Category",
          "name": "category",
          "type": "uint8"
        }
      ],
      "name": "getPlacesByCategory",
      "outputs": [
        {
          "components": [
            {
              "internalType": "uint256",
              "name": "id",
              "type": "uint256"
            },
            {
              "internalType": "uint256",
              "name": "size",
              "type": "uint256"
            },
            {
              "internalType": "uint256",
              "name": "price",
              "type": "uint256"
            },
            {
              "internalType": "enum ReservApp.Category",
              "name": "category",
              "type": "uint8"
            },
            {
              "internalType": "string",
              "name": "title",
              "type": "string"
            },
            {
              "internalType": "string",
              "name": "description",
              "type": "string"
            },
            {
              "internalType": "string",
              "name": "image",
              "type": "string"
            }
          ],
          "internalType": "struct ReservApp.Place[]",
          "name": "",
          "type": "tuple[]"
        }
      ],
      "stateMutability": "view",
      "type": "function"
    },
    {
      "inputs": [
        {
          "internalType": "enum ReservApp.Category",
          "name": "category",
          "type": "uint8"
        },
        {
          "internalType": "uint256",
          "name": "price",
          "type": "uint256"
        },
        {
          "internalType": "uint256",
          "name": "size",
          "type": "uint256"
        },
        {
          "internalType": "string",
          "name": "title",
          "type": "string"
        },
        {
          "internalType": "string",
          "name": "description",
          "type": "string"
        },
        {
          "internalType": "string",
          "name": "image",
          "type": "string"
        }
      ],
      "name": "newPlace",
      "outputs": [],
      "stateMutability": "payable",
      "type": "function"
    },
    {
      "inputs": [],
      "name": "owner",
      "outputs": [
        {
          "internalType": "address",
          "name": "",
          "type": "address"
        }
      ],
      "stateMutability": "view",
      "type": "function"
    },
    {
      "inputs": [],
      "name": "renounceOwnership",
      "outputs": [],
      "stateMutability": "nonpayable",
      "type": "function"
    },
    {
      "inputs": [
        {
          "internalType": "enum ReservApp.Category",
          "name": "category",
          "type": "uint8"
        },
        {
          "internalType": "uint256",
          "name": "index",
          "type": "uint256"
        }
      ],
      "name": "rentPlace",
      "outputs": [],
      "stateMutability": "payable",
      "type": "function"
    },
    {
      "inputs": [
        {
          "internalType": "address",
          "name": "newOwner",
          "type": "address"
        }
      ],
      "name": "transferOwnership",
      "outputs": [],
      "stateMutability": "nonpayable",
      "type": "function"
    }
  ],
  "bytecode": "0x60806040523480156200001157600080fd5b50604051620021c2380380620021c2833981810160405281019062000037919062000182565b620000576200004b6200009f60201b60201c565b620000a760201b60201c565b80600760006101000a81548173ffffffffffffffffffffffffffffffffffffffff021916908373ffffffffffffffffffffffffffffffffffffffff16021790555050620001fc565b600033905090565b60008060009054906101000a900473ffffffffffffffffffffffffffffffffffffffff169050816000806101000a81548173ffffffffffffffffffffffffffffffffffffffff021916908373ffffffffffffffffffffffffffffffffffffffff1602179055508173ffffffffffffffffffffffffffffffffffffffff168173ffffffffffffffffffffffffffffffffffffffff167f8be0079c531659141344cd1fd0a4f28419497f9722a3daafe3b4186f6b6457e060405160405180910390a35050565b6000815190506200017c81620001e2565b92915050565b6000602082840312156200019557600080fd5b6000620001a5848285016200016b565b91505092915050565b6000620001bb82620001c2565b9050919050565b600073ffffffffffffffffffffffffffffffffffffffff82169050919050565b620001ed81620001ae565b8114620001f957600080fd5b50565b611fb6806200020c6000396000f3fe6080604052600436106100745760003560e01c80638da5cb5b1161004e5780638da5cb5b146100d5578063aaf2215314610100578063e85b39be1461011c578063f2fde38b1461015957610075565b806369a6f4a814610077578063715018a61461009357806378ee976d146100aa57610075565b5b005b610091600480360381019061008c9190611587565b610182565b005b34801561009f57600080fd5b506100a8610861565b005b3480156100b657600080fd5b506100bf6108e9565b6040516100cc9190611a32565b60405180910390f35b3480156100e157600080fd5b506100ea610b30565b6040516100f791906119e0565b60405180910390f35b61011a600480360381019061011591906115c3565b610b59565b005b34801561012857600080fd5b50610143600480360381019061013e919061155e565b610e48565b6040516101509190611a54565b60405180910390f35b34801561016557600080fd5b50610180600480360381019061017b9190611535565b611185565b005b655af3107a400034146101ca576040517f08c379a00000000000000000000000000000000000000000000000000000000081526004016101c190611aff565b60405180910390fd5b600060036000846001811115610209577f4e487b7100000000000000000000000000000000000000000000000000000000600052602160045260246000fd5b6001811115610241577f4e487b7100000000000000000000000000000000000000000000000000000000600052602160045260246000fd5b81526020019081526020016000208281548110610287577f4e487b7100000000000000000000000000000000000000000000000000000000600052603260045260246000fd5b9060005260206000209060070201905060008160010154116102de576040517f08c379a00000000000000000000000000000000000000000000000000000000081526004016102d590611abf565b60405180910390fd5b600660003373ffffffffffffffffffffffffffffffffffffffff1673ffffffffffffffffffffffffffffffffffffffff16815260200190815260200160002034908060018154018082558091505060019003906000526020600020016000909190919091505560018160010160008282546103599190611c14565b92505081905550806003600085600181111561039e577f4e487b7100000000000000000000000000000000000000000000000000000000600052602160045260246000fd5b60018111156103d6577f4e487b7100000000000000000000000000000000000000000000000000000000600052602160045260246000fd5b8152602001908152602001600020838154811061041c577f4e487b7100000000000000000000000000000000000000000000000000000000600052603260045260246000fd5b90600052602060002090600702016000820154816000015560018201548160010155600282015481600201556003820160009054906101000a900460ff168160030160006101000a81548160ff021916908360018111156104a6577f4e487b7100000000000000000000000000000000000000000000000000000000600052602160045260246000fd5b021790555060048201816004019080546104bf90611ceb565b6104ca929190611349565b5060058201816005019080546104df90611ceb565b6104ea929190611349565b5060068201816006019080546104ff90611ceb565b61050a929190611349565b50905050600460003373ffffffffffffffffffffffffffffffffffffffff1673ffffffffffffffffffffffffffffffffffffffff1681526020019081526020016000206040518060600160405280856001811115610591577f4e487b7100000000000000000000000000000000000000000000000000000000600052602160045260246000fd5b81526020018360040180546105a590611ceb565b80601f01602080910402602001604051908101604052809291908181526020018280546105d190611ceb565b801561061e5780601f106105f35761010080835404028352916020019161061e565b820191906000526020600020905b81548152906001019060200180831161060157829003601f168201915b5050505050815260200183600501805461063790611ceb565b80601f016020809104026020016040519081016040528092919081815260200182805461066390611ceb565b80156106b05780601f10610685576101008083540402835291602001916106b0565b820191906000526020600020905b81548152906001019060200180831161069357829003601f168201915b5050505050815250908060018154018082558091505060019003906000526020600020906003020160009091909190915060008201518160000160006101000a81548160ff02191690836001811115610732577f4e487b7100000000000000000000000000000000000000000000000000000000600052602160045260246000fd5b021790555060208201518160010190805190602001906107539291906113d6565b5060408201518160020190805190602001906107709291906113d6565b505050600760009054906101000a900473ffffffffffffffffffffffffffffffffffffffff1673ffffffffffffffffffffffffffffffffffffffff166354ba0f27336040518263ffffffff1660e01b81526004016107ce91906119e0565b602060405180830381600087803b1580156107e857600080fd5b505af11580156107fc573d6000803e3d6000fd5b505050506040513d601f19601f820116820180604052508101906108209190611694565b507f3f6a9887548cd276fbfd6d8220e68b901a010ee452bd8f4c582a68e9ef8e5298338484604051610854939291906119fb565b60405180910390a1505050565b61086961127d565b73ffffffffffffffffffffffffffffffffffffffff16610887610b30565b73ffffffffffffffffffffffffffffffffffffffff16146108dd576040517f08c379a00000000000000000000000000000000000000000000000000000000081526004016108d490611adf565b60405180910390fd5b6108e76000611285565b565b6060600460003373ffffffffffffffffffffffffffffffffffffffff1673ffffffffffffffffffffffffffffffffffffffff168152602001908152602001600020805480602002602001604051908101604052809291908181526020016000905b82821015610b2757838290600052602060002090600302016040518060600160405290816000820160009054906101000a900460ff1660018111156109b8577f4e487b7100000000000000000000000000000000000000000000000000000000600052602160045260246000fd5b60018111156109f0577f4e487b7100000000000000000000000000000000000000000000000000000000600052602160045260246000fd5b8152602001600182018054610a0490611ceb565b80601f0160208091040260200160405190810160405280929190818152602001828054610a3090611ceb565b8015610a7d5780601f10610a5257610100808354040283529160200191610a7d565b820191906000526020600020905b815481529060010190602001808311610a6057829003601f168201915b50505050508152602001600282018054610a9690611ceb565b80601f0160208091040260200160405190810160405280929190818152602001828054610ac290611ceb565b8015610b0f5780601f10610ae457610100808354040283529160200191610b0f565b820191906000526020600020905b815481529060010190602001808311610af257829003601f168201915b5050505050815250508152602001906001019061094a565b50505050905090565b60008060009054906101000a900473ffffffffffffffffffffffffffffffffffffffff16905090565b655af3107a40003414610ba1576040517f08c379a0000000000000000000000000000000000000000000000000000000008152600401610b9890611aff565b60405180910390fd5b600560003373ffffffffffffffffffffffffffffffffffffffff1673ffffffffffffffffffffffffffffffffffffffff16815260200190815260200160002034908060018154018082558091505060019003906000526020600020016000909190919091505560036000876001811115610c44577f4e487b7100000000000000000000000000000000000000000000000000000000600052602160045260246000fd5b6001811115610c7c577f4e487b7100000000000000000000000000000000000000000000000000000000600052602160045260246000fd5b81526020019081526020016000206040518060e001604052806001548152602001868152602001878152602001886001811115610ce2577f4e487b7100000000000000000000000000000000000000000000000000000000600052602160045260246000fd5b815260200185815260200184815260200183815250908060018154018082558091505060019003906000526020600020906007020160009091909190915060008201518160000155602082015181600101556040820151816002015560608201518160030160006101000a81548160ff02191690836001811115610d8f577f4e487b7100000000000000000000000000000000000000000000000000000000600052602160045260246000fd5b02179055506080820151816004019080519060200190610db09291906113d6565b5060a0820151816005019080519060200190610dcd9291906113d6565b5060c0820151816006019080519060200190610dea9291906113d6565b50505060016000815480929190610e0090611d4e565b91905055507fb884db35df685de99c4c1043f1e2e62e93cb0001ef143f9e07598f31c6071f4286600154604051610e38929190611a76565b60405180910390a1505050505050565b606060036000836001811115610e87577f4e487b7100000000000000000000000000000000000000000000000000000000600052602160045260246000fd5b6001811115610ebf577f4e487b7100000000000000000000000000000000000000000000000000000000600052602160045260246000fd5b8152602001908152602001600020805480602002602001604051908101604052809291908181526020016000905b8282101561117a57838290600052602060002090600702016040518060e00160405290816000820154815260200160018201548152602001600282015481526020016003820160009054906101000a900460ff166001811115610f79577f4e487b7100000000000000000000000000000000000000000000000000000000600052602160045260246000fd5b6001811115610fb1577f4e487b7100000000000000000000000000000000000000000000000000000000600052602160045260246000fd5b8152602001600482018054610fc590611ceb565b80601f0160208091040260200160405190810160405280929190818152602001828054610ff190611ceb565b801561103e5780601f106110135761010080835404028352916020019161103e565b820191906000526020600020905b81548152906001019060200180831161102157829003601f168201915b5050505050815260200160058201805461105790611ceb565b80601f016020809104026020016040519081016040528092919081815260200182805461108390611ceb565b80156110d05780601f106110a5576101008083540402835291602001916110d0565b820191906000526020600020905b8154815290600101906020018083116110b357829003601f168201915b505050505081526020016006820180546110e990611ceb565b80601f016020809104026020016040519081016040528092919081815260200182805461111590611ceb565b80156111625780601f1061113757610100808354040283529160200191611162565b820191906000526020600020905b81548152906001019060200180831161114557829003601f168201915b50505050508152505081526020019060010190610eed565b505050509050919050565b61118d61127d565b73ffffffffffffffffffffffffffffffffffffffff166111ab610b30565b73ffffffffffffffffffffffffffffffffffffffff1614611201576040517f08c379a00000000000000000000000000000000000000000000000000000000081526004016111f890611adf565b60405180910390fd5b600073ffffffffffffffffffffffffffffffffffffffff168173ffffffffffffffffffffffffffffffffffffffff161415611271576040517f08c379a000000000000000000000000000000000000000000000000000000000815260040161126890611a9f565b60405180910390fd5b61127a81611285565b50565b600033905090565b60008060009054906101000a900473ffffffffffffffffffffffffffffffffffffffff169050816000806101000a81548173ffffffffffffffffffffffffffffffffffffffff021916908373ffffffffffffffffffffffffffffffffffffffff1602179055508173ffffffffffffffffffffffffffffffffffffffff168173ffffffffffffffffffffffffffffffffffffffff167f8be0079c531659141344cd1fd0a4f28419497f9722a3daafe3b4186f6b6457e060405160405180910390a35050565b82805461135590611ceb565b90600052602060002090601f01602090048101928261137757600085556113c5565b82601f1061138857805485556113c5565b828001600101855582156113c557600052602060002091601f016020900482015b828111156113c45782548255916001019190600101906113a9565b5b5090506113d2919061145c565b5090565b8280546113e290611ceb565b90600052602060002090601f016020900481019282611404576000855561144b565b82601f1061141d57805160ff191683800117855561144b565b8280016001018555821561144b579182015b8281111561144a57825182559160200191906001019061142f565b5b509050611458919061145c565b5090565b5b8082111561147557600081600090555060010161145d565b5090565b600061148c61148784611b44565b611b1f565b9050828152602081018484840111156114a457600080fd5b6114af848285611ca9565b509392505050565b6000813590506114c681611f42565b92915050565b6000813590506114db81611f59565b92915050565b600082601f8301126114f257600080fd5b8135611502848260208601611479565b91505092915050565b60008135905061151a81611f69565b92915050565b60008151905061152f81611f69565b92915050565b60006020828403121561154757600080fd5b6000611555848285016114b7565b91505092915050565b60006020828403121561157057600080fd5b600061157e848285016114cc565b91505092915050565b6000806040838503121561159a57600080fd5b60006115a8858286016114cc565b92505060206115b98582860161150b565b9150509250929050565b60008060008060008060c087890312156115dc57600080fd5b60006115ea89828a016114cc565b96505060206115fb89828a0161150b565b955050604061160c89828a0161150b565b945050606087013567ffffffffffffffff81111561162957600080fd5b61163589828a016114e1565b935050608087013567ffffffffffffffff81111561165257600080fd5b61165e89828a016114e1565b92505060a087013567ffffffffffffffff81111561167b57600080fd5b61168789828a016114e1565b9150509295509295509295565b6000602082840312156116a657600080fd5b60006116b484828501611520565b91505092915050565b60006116c983836118c1565b905092915050565b60006116dd8383611918565b905092915050565b6116ee81611c48565b82525050565b60006116ff82611b95565b6117098185611bd0565b93508360208202850161171b85611b75565b8060005b85811015611757578484038952815161173885826116bd565b945061174383611bb6565b925060208a0199505060018101905061171f565b50829750879550505050505092915050565b600061177482611ba0565b61177e8185611be1565b93508360208202850161179085611b85565b8060005b858110156117cc57848403895281516117ad85826116d1565b94506117b883611bc3565b925060208a01995050600181019050611794565b50829750879550505050505092915050565b6117e781611c97565b82525050565b6117f681611c97565b82525050565b600061180782611bab565b6118118185611bf2565b9350611821818560208601611cb8565b61182a81611e53565b840191505092915050565b6000611842602683611c03565b915061184d82611e64565b604082019050919050565b6000611865600e83611c03565b915061187082611eb3565b602082019050919050565b6000611888602083611c03565b915061189382611edc565b602082019050919050565b60006118ab601483611c03565b91506118b682611f05565b602082019050919050565b60006060830160008301516118d960008601826117de565b50602083015184820360208601526118f182826117fc565b9150506040830151848203604086015261190b82826117fc565b9150508091505092915050565b600060e08301600083015161193060008601826119c2565b50602083015161194360208601826119c2565b50604083015161195660408601826119c2565b50606083015161196960608601826117de565b506080830151848203608086015261198182826117fc565b91505060a083015184820360a086015261199b82826117fc565b91505060c083015184820360c08601526119b582826117fc565b9150508091505092915050565b6119cb81611c8d565b82525050565b6119da81611c8d565b82525050565b60006020820190506119f560008301846116e5565b92915050565b6000606082019050611a1060008301866116e5565b611a1d60208301856117ed565b611a2a60408301846119d1565b949350505050565b60006020820190508181036000830152611a4c81846116f4565b905092915050565b60006020820190508181036000830152611a6e8184611769565b905092915050565b6000604082019050611a8b60008301856117ed565b611a9860208301846119d1565b9392505050565b60006020820190508181036000830152611ab881611835565b9050919050565b60006020820190508181036000830152611ad881611858565b9050919050565b60006020820190508181036000830152611af88161187b565b9050919050565b60006020820190508181036000830152611b188161189e565b9050919050565b6000611b29611b3a565b9050611b358282611d1d565b919050565b6000604051905090565b600067ffffffffffffffff821115611b5f57611b5e611e24565b5b611b6882611e53565b9050602081019050919050565b6000819050602082019050919050565b6000819050602082019050919050565b600081519050919050565b600081519050919050565b600081519050919050565b6000602082019050919050565b6000602082019050919050565b600082825260208201905092915050565b600082825260208201905092915050565b600082825260208201905092915050565b600082825260208201905092915050565b6000611c1f82611c8d565b9150611c2a83611c8d565b925082821015611c3d57611c3c611d97565b5b828203905092915050565b6000611c5382611c6d565b9050919050565b6000819050611c6882611f2e565b919050565b600073ffffffffffffffffffffffffffffffffffffffff82169050919050565b6000819050919050565b6000611ca282611c5a565b9050919050565b82818337600083830152505050565b60005b83811015611cd6578082015181840152602081019050611cbb565b83811115611ce5576000848401525b50505050565b60006002820490506001821680611d0357607f821691505b60208210811415611d1757611d16611df5565b5b50919050565b611d2682611e53565b810181811067ffffffffffffffff82111715611d4557611d44611e24565b5b80604052505050565b6000611d5982611c8d565b91507fffffffffffffffffffffffffffffffffffffffffffffffffffffffffffffffff821415611d8c57611d8b611d97565b5b600182019050919050565b7f4e487b7100000000000000000000000000000000000000000000000000000000600052601160045260246000fd5b7f4e487b7100000000000000000000000000000000000000000000000000000000600052602160045260246000fd5b7f4e487b7100000000000000000000000000000000000000000000000000000000600052602260045260246000fd5b7f4e487b7100000000000000000000000000000000000000000000000000000000600052604160045260246000fd5b6000601f19601f8301169050919050565b7f4f776e61626c653a206e6577206f776e657220697320746865207a65726f206160008201527f6464726573730000000000000000000000000000000000000000000000000000602082015250565b7f506c61636520636f6d706c657465000000000000000000000000000000000000600082015250565b7f4f776e61626c653a2063616c6c6572206973206e6f7420746865206f776e6572600082015250565b7f56616c7565206973206e6f742031206574686572000000000000000000000000600082015250565b60028110611f3f57611f3e611dc6565b5b50565b611f4b81611c48565b8114611f5657600080fd5b50565b60028110611f6657600080fd5b50565b611f7281611c8d565b8114611f7d57600080fd5b5056fea26469706673582212200399422c1d44c851a700e676195ed455a6a6b005c13e925ea362f936bbffa61364736f6c63430008040033",
  "linkReferences": {},
  "deployedLinkReferences": {}
}