{
  "_format": "hh-sol-artifact-1",
  "contractName": "ReservApp",
  "sourceName": "contracts/ReservApp.sol",
  "abi": [
    {
      "inputs": [],
      "stateMutability": "nonpayable",
      "type": "constructor"
    },
    {
      "anonymous": false,
      "inputs": [
        {
          "indexed": true,
          "internalType": "uint8",
          "name": "index",
          "type": "uint8"
        },
        {
          "indexed": false,
          "internalType": "string",
          "name": "name",
          "type": "string"
        },
        {
          "indexed": false,
          "internalType": "string",
          "name": "description",
          "type": "string"
        },
        {
          "indexed": false,
          "internalType": "string",
          "name": "image",
          "type": "string"
        }
      ],
      "name": "NewCategoryEvent",
      "type": "event"
    },
    {
      "anonymous": false,
      "inputs": [
        {
          "indexed": true,
          "internalType": "address",
          "name": "direction",
          "type": "address"
        },
        {
          "indexed": false,
          "internalType": "string",
          "name": "last_name",
          "type": "string"
        },
        {
          "indexed": false,
          "internalType": "string",
          "name": "first_name",
          "type": "string"
        },
        {
          "indexed": false,
          "internalType": "string",
          "name": "email",
          "type": "string"
        },
        {
          "indexed": false,
          "internalType": "string",
          "name": "image",
          "type": "string"
        }
      ],
      "name": "NewPersonEvent",
      "type": "event"
    },
    {
      "anonymous": false,
      "inputs": [
        {
          "indexed": true,
          "internalType": "uint256",
          "name": "id",
          "type": "uint256"
        },
        {
          "indexed": true,
          "internalType": "uint256",
          "name": "index",
          "type": "uint256"
        },
        {
          "indexed": false,
          "internalType": "uint256",
          "name": "size",
          "type": "uint256"
        },
        {
          "indexed": false,
          "internalType": "uint256",
          "name": "price",
          "type": "uint256"
        },
        {
          "indexed": false,
          "internalType": "uint8",
          "name": "category",
          "type": "uint8"
        },
        {
          "indexed": false,
          "internalType": "string",
          "name": "title",
          "type": "string"
        },
        {
          "indexed": false,
          "internalType": "string",
          "name": "description",
          "type": "string"
        },
        {
          "indexed": false,
          "internalType": "string",
          "name": "image",
          "type": "string"
        }
      ],
      "name": "NewPlaceEvent",
      "type": "event"
    },
    {
      "anonymous": false,
      "inputs": [
        {
          "indexed": true,
          "internalType": "address",
          "name": "user",
          "type": "address"
        },
        {
          "indexed": false,
          "internalType": "uint8",
          "name": "category",
          "type": "uint8"
        },
        {
          "indexed": true,
          "internalType": "uint256",
          "name": "index",
          "type": "uint256"
        },
        {
          "indexed": false,
          "internalType": "string",
          "name": "name",
          "type": "string"
        },
        {
          "indexed": false,
          "internalType": "string",
          "name": "description",
          "type": "string"
        }
      ],
      "name": "NewRentEvent",
      "type": "event"
    },
    {
      "anonymous": false,
      "inputs": [
        {
          "indexed": true,
          "internalType": "address",
          "name": "from",
          "type": "address"
        },
        {
          "indexed": false,
          "internalType": "uint256",
          "name": "balance",
          "type": "uint256"
        }
      ],
      "name": "NewWithdrawEvent",
      "type": "event"
    },
    {
      "stateMutability": "payable",
      "type": "fallback"
    },
    {
      "inputs": [],
      "name": "destroy",
      "outputs": [],
      "stateMutability": "nonpayable",
      "type": "function"
    },
    {
      "inputs": [],
      "name": "getBalance",
      "outputs": [
        {
          "internalType": "uint256",
          "name": "",
          "type": "uint256"
        }
      ],
      "stateMutability": "view",
      "type": "function"
    },
    {
      "inputs": [],
      "name": "getCategories",
      "outputs": [
        {
          "components": [
            {
              "internalType": "uint8",
              "name": "index",
              "type": "uint8"
            },
            {
              "internalType": "string",
              "name": "name",
              "type": "string"
            },
            {
              "internalType": "string",
              "name": "description",
              "type": "string"
            },
            {
              "internalType": "string",
              "name": "image",
              "type": "string"
            }
          ],
          "internalType": "struct ReservApp.Category[]",
          "name": "",
          "type": "tuple[]"
        }
      ],
      "stateMutability": "view",
      "type": "function"
    },
    {
      "inputs": [],
      "name": "getMyPlaces",
      "outputs": [
        {
          "components": [
            {
              "internalType": "uint8",
              "name": "category",
              "type": "uint8"
            },
            {
              "internalType": "string",
              "name": "title",
              "type": "string"
            },
            {
              "internalType": "string",
              "name": "description",
              "type": "string"
            }
          ],
          "internalType": "struct ReservApp.PlaceRent[]",
          "name": "",
          "type": "tuple[]"
        }
      ],
      "stateMutability": "view",
      "type": "function"
    },
    {
      "inputs": [],
      "name": "getPersonByAddress",
      "outputs": [
        {
          "components": [
            {
              "internalType": "string",
              "name": "first_name",
              "type": "string"
            },
            {
              "internalType": "string",
              "name": "last_name",
              "type": "string"
            },
            {
              "internalType": "string",
              "name": "email",
              "type": "string"
            },
            {
              "internalType": "string",
              "name": "image",
              "type": "string"
            }
          ],
          "internalType": "struct ReservApp.Person",
          "name": "",
          "type": "tuple"
        }
      ],
      "stateMutability": "view",
      "type": "function"
    },
    {
      "inputs": [
        {
          "internalType": "uint8",
          "name": "category",
          "type": "uint8"
        },
        {
          "internalType": "uint256",
          "name": "index",
          "type": "uint256"
        }
      ],
      "name": "getPlaceById",
      "outputs": [
        {
          "components": [
            {
              "internalType": "uint256",
              "name": "id",
              "type": "uint256"
            },
            {
              "internalType": "uint256",
              "name": "index",
              "type": "uint256"
            },
            {
              "internalType": "address",
              "name": "owner",
              "type": "address"
            },
            {
              "internalType": "uint256",
              "name": "size",
              "type": "uint256"
            },
            {
              "internalType": "uint256",
              "name": "price",
              "type": "uint256"
            },
            {
              "internalType": "uint8",
              "name": "category",
              "type": "uint8"
            },
            {
              "internalType": "string",
              "name": "title",
              "type": "string"
            },
            {
              "internalType": "string",
              "name": "description",
              "type": "string"
            },
            {
              "internalType": "string",
              "name": "image",
              "type": "string"
            }
          ],
          "internalType": "struct ReservApp.Place",
          "name": "",
          "type": "tuple"
        }
      ],
      "stateMutability": "view",
      "type": "function"
    },
    {
      "inputs": [
        {
          "internalType": "uint8",
          "name": "category",
          "type": "uint8"
        }
      ],
      "name": "getPlacesByCategory",
      "outputs": [
        {
          "components": [
            {
              "internalType": "uint256",
              "name": "id",
              "type": "uint256"
            },
            {
              "internalType": "uint256",
              "name": "index",
              "type": "uint256"
            },
            {
              "internalType": "address",
              "name": "owner",
              "type": "address"
            },
            {
              "internalType": "uint256",
              "name": "size",
              "type": "uint256"
            },
            {
              "internalType": "uint256",
              "name": "price",
              "type": "uint256"
            },
            {
              "internalType": "uint8",
              "name": "category",
              "type": "uint8"
            },
            {
              "internalType": "string",
              "name": "title",
              "type": "string"
            },
            {
              "internalType": "string",
              "name": "description",
              "type": "string"
            },
            {
              "internalType": "string",
              "name": "image",
              "type": "string"
            }
          ],
          "internalType": "struct ReservApp.Place[]",
          "name": "",
          "type": "tuple[]"
        }
      ],
      "stateMutability": "view",
      "type": "function"
    },
    {
      "inputs": [],
      "name": "isOwner",
      "outputs": [
        {
          "internalType": "bool",
          "name": "",
          "type": "bool"
        }
      ],
      "stateMutability": "view",
      "type": "function"
    },
    {
      "inputs": [
        {
          "internalType": "string",
          "name": "first_name",
          "type": "string"
        },
        {
          "internalType": "string",
          "name": "last_name",
          "type": "string"
        },
        {
          "internalType": "string",
          "name": "email",
          "type": "string"
        },
        {
          "internalType": "string",
          "name": "image",
          "type": "string"
        }
      ],
      "name": "linkedPerson",
      "outputs": [],
      "stateMutability": "nonpayable",
      "type": "function"
    },
    {
      "inputs": [
        {
          "internalType": "string",
          "name": "category",
          "type": "string"
        },
        {
          "internalType": "string",
          "name": "description",
          "type": "string"
        },
        {
          "internalType": "string",
          "name": "image",
          "type": "string"
        }
      ],
      "name": "newCategory",
      "outputs": [],
      "stateMutability": "nonpayable",
      "type": "function"
    },
    {
      "inputs": [
        {
          "internalType": "uint8",
          "name": "category",
          "type": "uint8"
        },
        {
          "internalType": "uint256",
          "name": "price",
          "type": "uint256"
        },
        {
          "internalType": "uint256",
          "name": "size",
          "type": "uint256"
        },
        {
          "internalType": "string",
          "name": "title",
          "type": "string"
        },
        {
          "internalType": "string",
          "name": "description",
          "type": "string"
        },
        {
          "internalType": "string",
          "name": "image",
          "type": "string"
        }
      ],
      "name": "newPlace",
      "outputs": [],
      "stateMutability": "payable",
      "type": "function"
    },
    {
      "inputs": [
        {
          "internalType": "uint8",
          "name": "category",
          "type": "uint8"
        },
        {
          "internalType": "uint256",
          "name": "index",
          "type": "uint256"
        }
      ],
      "name": "rentPlace",
      "outputs": [],
      "stateMutability": "payable",
      "type": "function"
    },
    {
      "inputs": [],
      "name": "withdraw",
      "outputs": [],
      "stateMutability": "payable",
      "type": "function"
    },
    {
      "stateMutability": "payable",
      "type": "receive"
    }
  ],
  "bytecode": "0x608060405260006001806101000a81548160ff02191690831515021790555034801561002a57600080fd5b5033600360006101000a81548173ffffffffffffffffffffffffffffffffffffffff021916908373ffffffffffffffffffffffffffffffffffffffff1602179055506131aa8061007b6000396000f3fe6080604052600436106100c65760003560e01c806383197ef01161007f578063d0f24c2611610059578063d0f24c26146101ff578063d4844ee214610228578063e85b39be14610265578063eb38dd1b146102a2576100cd565b806383197ef0146101a15780638f32d59b146101b8578063aaf22153146101e3576100cd565b806312065fe0146100cf5780633ccfd60b146100fa5780634db0412c1461010457806364ed3f941461012f57806369a6f4a81461015a57806378ee976d14610176576100cd565b366100cd57005b005b3480156100db57600080fd5b506100e46102cb565b6040516100f19190612b94565b60405180910390f35b610102610312565b005b34801561011057600080fd5b50610119610567565b6040516101269190612962565b60405180910390f35b34801561013b57600080fd5b50610144610799565b6040516101519190612b50565b60405180910390f35b610174600480360381019061016f919061217e565b610a38565b005b34801561018257600080fd5b5061018b610f9d565b6040516101989190612984565b60405180910390f35b3480156101ad57600080fd5b506101b661117a565b005b3480156101c457600080fd5b506101cd611245565b6040516101da91906129c8565b60405180910390f35b6101fd60048036038101906101f891906121ba565b61129d565b005b34801561020b57600080fd5b5061022660048036038101906102219190612092565b6114f2565b005b34801561023457600080fd5b5061024f600480360381019061024a919061217e565b611623565b60405161025c9190612b72565b60405180910390f35b34801561027157600080fd5b5061028c60048036038101906102879190612155565b6118ef565b60405161029991906129a6565b60405180910390f35b3480156102ae57600080fd5b506102c960048036038101906102c49190611ffb565b611bb9565b005b6000600660003373ffffffffffffffffffffffffffffffffffffffff1673ffffffffffffffffffffffffffffffffffffffff16815260200190815260200160002054905090565b60018054906101000a900460ff161561032a57600080fd5b60018060016101000a81548160ff0219169083151502179055506000600660003373ffffffffffffffffffffffffffffffffffffffff1673ffffffffffffffffffffffffffffffffffffffff16815260200190815260200160002054116103c6576040517f08c379a00000000000000000000000000000000000000000000000000000000081526004016103bd90612ad0565b60405180910390fd5b6000600660003373ffffffffffffffffffffffffffffffffffffffff1673ffffffffffffffffffffffffffffffffffffffff1681526020019081526020016000205490506000600660003373ffffffffffffffffffffffffffffffffffffffff1673ffffffffffffffffffffffffffffffffffffffff1681526020019081526020016000208190555060003373ffffffffffffffffffffffffffffffffffffffff16826040516104759061294d565b60006040518083038185875af1925050503d80600081146104b2576040519150601f19603f3d011682016040523d82523d6000602084013e6104b7565b606091505b50509050806104fb576040517f08c379a00000000000000000000000000000000000000000000000000000000081526004016104f290612b30565b60405180910390fd5b3373ffffffffffffffffffffffffffffffffffffffff167fa664175b83aedd11abc1ca7c86f70669e71ab20e5b5670fb60b788dd666d63d6836040516105419190612b94565b60405180910390a2505060006001806101000a81548160ff021916908315150217905550565b60606002805480602002602001604051908101604052809291908181526020016000905b8282101561079057838290600052602060002090600402016040518060800160405290816000820160009054906101000a900460ff1660ff1660ff1681526020016001820180546105db90612ed9565b80601f016020809104026020016040519081016040528092919081815260200182805461060790612ed9565b80156106545780601f1061062957610100808354040283529160200191610654565b820191906000526020600020905b81548152906001019060200180831161063757829003601f168201915b5050505050815260200160028201805461066d90612ed9565b80601f016020809104026020016040519081016040528092919081815260200182805461069990612ed9565b80156106e65780601f106106bb576101008083540402835291602001916106e6565b820191906000526020600020905b8154815290600101906020018083116106c957829003601f168201915b505050505081526020016003820180546106ff90612ed9565b80601f016020809104026020016040519081016040528092919081815260200182805461072b90612ed9565b80156107785780601f1061074d57610100808354040283529160200191610778565b820191906000526020600020905b81548152906001019060200180831161075b57829003601f168201915b5050505050815250508152602001906001019061058b565b50505050905090565b6107a1611dac565b600760003373ffffffffffffffffffffffffffffffffffffffff1673ffffffffffffffffffffffffffffffffffffffff1681526020019081526020016000206040518060800160405290816000820180546107fb90612ed9565b80601f016020809104026020016040519081016040528092919081815260200182805461082790612ed9565b80156108745780601f1061084957610100808354040283529160200191610874565b820191906000526020600020905b81548152906001019060200180831161085757829003601f168201915b5050505050815260200160018201805461088d90612ed9565b80601f01602080910402602001604051908101604052809291908181526020018280546108b990612ed9565b80156109065780601f106108db57610100808354040283529160200191610906565b820191906000526020600020905b8154815290600101906020018083116108e957829003601f168201915b5050505050815260200160028201805461091f90612ed9565b80601f016020809104026020016040519081016040528092919081815260200182805461094b90612ed9565b80156109985780601f1061096d57610100808354040283529160200191610998565b820191906000526020600020905b81548152906001019060200180831161097b57829003601f168201915b505050505081526020016003820180546109b190612ed9565b80601f01602080910402602001604051908101604052809291908181526020018280546109dd90612ed9565b8015610a2a5780601f106109ff57610100808354040283529160200191610a2a565b820191906000526020600020905b815481529060010190602001808311610a0d57829003601f168201915b505050505081525050905090565b6000600460008460ff1660ff1681526020019081526020016000208281548110610a8b577f4e487b7100000000000000000000000000000000000000000000000000000000600052603260045260246000fd5b906000526020600020906009020190506000816003015411610ae2576040517f08c379a0000000000000000000000000000000000000000000000000000000008152600401610ad990612a90565b60405180910390fd5b34816004015414610b28576040517f08c379a0000000000000000000000000000000000000000000000000000000008152600401610b1f90612ab0565b60405180910390fd5b6001816003016000828254610b3d9190612e0e565b9250508190555080600460008560ff1660ff1681526020019081526020016000208381548110610b96577f4e487b7100000000000000000000000000000000000000000000000000000000600052603260045260246000fd5b906000526020600020906009020160008201548160000155600182015481600101556002820160009054906101000a900473ffffffffffffffffffffffffffffffffffffffff168160020160006101000a81548173ffffffffffffffffffffffffffffffffffffffff021916908373ffffffffffffffffffffffffffffffffffffffff16021790555060038201548160030155600482015481600401556005820160009054906101000a900460ff168160050160006101000a81548160ff021916908360ff1602179055506006820181600601908054610c7590612ed9565b610c80929190611dd4565b506007820181600701908054610c9590612ed9565b610ca0929190611dd4565b506008820181600801908054610cb590612ed9565b610cc0929190611dd4565b5090505060008160020160009054906101000a900473ffffffffffffffffffffffffffffffffffffffff169050600560003373ffffffffffffffffffffffffffffffffffffffff1673ffffffffffffffffffffffffffffffffffffffff16815260200190815260200160002060405180606001604052808660ff168152602001846006018054610d4f90612ed9565b80601f0160208091040260200160405190810160405280929190818152602001828054610d7b90612ed9565b8015610dc85780601f10610d9d57610100808354040283529160200191610dc8565b820191906000526020600020905b815481529060010190602001808311610dab57829003601f168201915b50505050508152602001846007018054610de190612ed9565b80601f0160208091040260200160405190810160405280929190818152602001828054610e0d90612ed9565b8015610e5a5780601f10610e2f57610100808354040283529160200191610e5a565b820191906000526020600020905b815481529060010190602001808311610e3d57829003601f168201915b5050505050815250908060018154018082558091505060019003906000526020600020906003020160009091909190915060008201518160000160006101000a81548160ff021916908360ff1602179055506020820151816001019080519060200190610ec8929190611e61565b506040820151816002019080519060200190610ee5929190611e61565b50505034600660008373ffffffffffffffffffffffffffffffffffffffff1673ffffffffffffffffffffffffffffffffffffffff1681526020019081526020016000206000828254610f379190612db8565b92505081905550823373ffffffffffffffffffffffffffffffffffffffff167f63cd513bbfa9af637f007bdd8cfeb1976f2914b5493b3d9841533c3b43901187868560060186600701604051610f8f93929190612c25565b60405180910390a350505050565b6060600560003373ffffffffffffffffffffffffffffffffffffffff1673ffffffffffffffffffffffffffffffffffffffff168152602001908152602001600020805480602002602001604051908101604052809291908181526020016000905b8282101561117157838290600052602060002090600302016040518060600160405290816000820160009054906101000a900460ff1660ff1660ff16815260200160018201805461104e90612ed9565b80601f016020809104026020016040519081016040528092919081815260200182805461107a90612ed9565b80156110c75780601f1061109c576101008083540402835291602001916110c7565b820191906000526020600020905b8154815290600101906020018083116110aa57829003601f168201915b505050505081526020016002820180546110e090612ed9565b80601f016020809104026020016040519081016040528092919081815260200182805461110c90612ed9565b80156111595780601f1061112e57610100808354040283529160200191611159565b820191906000526020600020905b81548152906001019060200180831161113c57829003601f168201915b50505050508152505081526020019060010190610ffe565b50505050905090565b3373ffffffffffffffffffffffffffffffffffffffff16600360009054906101000a900473ffffffffffffffffffffffffffffffffffffffff1673ffffffffffffffffffffffffffffffffffffffff161461120a576040517f08c379a000000000000000000000000000000000000000000000000000000000815260040161120190612af0565b60405180910390fd5b600360009054906101000a900473ffffffffffffffffffffffffffffffffffffffff1673ffffffffffffffffffffffffffffffffffffffff16ff5b60003373ffffffffffffffffffffffffffffffffffffffff16600360009054906101000a900473ffffffffffffffffffffffffffffffffffffffff1673ffffffffffffffffffffffffffffffffffffffff1614905090565b655af3107a400034146112e5576040517f08c379a00000000000000000000000000000000000000000000000000000000081526004016112dc90612b10565b60405180910390fd5b6000600460008860ff1660ff168152602001908152602001600020805490509050600460008860ff1660ff16815260200190815260200160002060405180610120016040528060005481526020018381526020013373ffffffffffffffffffffffffffffffffffffffff1681526020018781526020018881526020018960ff168152602001868152602001858152602001848152509080600181540180825580915050600190039060005260206000209060090201600090919091909150600082015181600001556020820151816001015560408201518160020160006101000a81548173ffffffffffffffffffffffffffffffffffffffff021916908373ffffffffffffffffffffffffffffffffffffffff160217905550606082015181600301556080820151816004015560a08201518160050160006101000a81548160ff021916908360ff16021790555060c082015181600601908051906020019061144f929190611e61565b5060e082015181600701908051906020019061146c929190611e61565b5061010082015181600801908051906020019061148a929190611e61565b50505060008081548092919061149f90612f3c565b9190505550806000547f55b682d69381b8942b84474fac0361900424a7b2526315b28db6ac4c80437fb987898b8989896040516114e196959493929190612baf565b60405180910390a350505050505050565b604051806080016040528085815260200184815260200183815260200182815250600760003373ffffffffffffffffffffffffffffffffffffffff1673ffffffffffffffffffffffffffffffffffffffff168152602001908152602001600020600082015181600001908051906020019061156e929190611e61565b50602082015181600101908051906020019061158b929190611e61565b5060408201518160020190805190602001906115a8929190611e61565b5060608201518160030190805190602001906115c5929190611e61565b509050503373ffffffffffffffffffffffffffffffffffffffff167f51bc63969619b12c4c63e1719a7a86795a979361b73ddde7ce2026744eaead3a858585856040516116159493929190612a2f565b60405180910390a250505050565b61162b611ee7565b600460008460ff1660ff168152602001908152602001600020828154811061167c577f4e487b7100000000000000000000000000000000000000000000000000000000600052603260045260246000fd5b90600052602060002090600902016040518061012001604052908160008201548152602001600182015481526020016002820160009054906101000a900473ffffffffffffffffffffffffffffffffffffffff1673ffffffffffffffffffffffffffffffffffffffff1673ffffffffffffffffffffffffffffffffffffffff16815260200160038201548152602001600482015481526020016005820160009054906101000a900460ff1660ff1660ff16815260200160068201805461174190612ed9565b80601f016020809104026020016040519081016040528092919081815260200182805461176d90612ed9565b80156117ba5780601f1061178f576101008083540402835291602001916117ba565b820191906000526020600020905b81548152906001019060200180831161179d57829003601f168201915b505050505081526020016007820180546117d390612ed9565b80601f01602080910402602001604051908101604052809291908181526020018280546117ff90612ed9565b801561184c5780601f106118215761010080835404028352916020019161184c565b820191906000526020600020905b81548152906001019060200180831161182f57829003601f168201915b5050505050815260200160088201805461186590612ed9565b80601f016020809104026020016040519081016040528092919081815260200182805461189190612ed9565b80156118de5780601f106118b3576101008083540402835291602001916118de565b820191906000526020600020905b8154815290600101906020018083116118c157829003601f168201915b505050505081525050905092915050565b6060600460008360ff1660ff168152602001908152602001600020805480602002602001604051908101604052809291908181526020016000905b82821015611bae57838290600052602060002090600902016040518061012001604052908160008201548152602001600182015481526020016002820160009054906101000a900473ffffffffffffffffffffffffffffffffffffffff1673ffffffffffffffffffffffffffffffffffffffff1673ffffffffffffffffffffffffffffffffffffffff16815260200160038201548152602001600482015481526020016005820160009054906101000a900460ff1660ff1660ff1681526020016006820180546119f990612ed9565b80601f0160208091040260200160405190810160405280929190818152602001828054611a2590612ed9565b8015611a725780601f10611a4757610100808354040283529160200191611a72565b820191906000526020600020905b815481529060010190602001808311611a5557829003601f168201915b50505050508152602001600782018054611a8b90612ed9565b80601f0160208091040260200160405190810160405280929190818152602001828054611ab790612ed9565b8015611b045780601f10611ad957610100808354040283529160200191611b04565b820191906000526020600020905b815481529060010190602001808311611ae757829003601f168201915b50505050508152602001600882018054611b1d90612ed9565b80601f0160208091040260200160405190810160405280929190818152602001828054611b4990612ed9565b8015611b965780601f10611b6b57610100808354040283529160200191611b96565b820191906000526020600020905b815481529060010190602001808311611b7957829003601f168201915b5050505050815250508152602001906001019061192a565b505050509050919050565b3373ffffffffffffffffffffffffffffffffffffffff16600360009054906101000a900473ffffffffffffffffffffffffffffffffffffffff1673ffffffffffffffffffffffffffffffffffffffff1614611c49576040517f08c379a0000000000000000000000000000000000000000000000000000000008152600401611c4090612af0565b60405180910390fd5b60026040518060800160405280600160009054906101000a900460ff1660ff16815260200185815260200184815260200183815250908060018154018082558091505060019003906000526020600020906004020160009091909190915060008201518160000160006101000a81548160ff021916908360ff1602179055506020820151816001019080519060200190611ce4929190611e61565b506040820151816002019080519060200190611d01929190611e61565b506060820151816003019080519060200190611d1e929190611e61565b5050506001600081819054906101000a900460ff1680929190611d4090612f85565b91906101000a81548160ff021916908360ff16021790555050600160009054906101000a900460ff1660ff167fba308579c9f6e1ed825ce431889b08f19cd1da2c7a99b294856a10acf88162c6848484604051611d9f939291906129e3565b60405180910390a2505050565b6040518060800160405280606081526020016060815260200160608152602001606081525090565b828054611de090612ed9565b90600052602060002090601f016020900481019282611e025760008555611e50565b82601f10611e135780548555611e50565b82800160010185558215611e5057600052602060002091601f016020900482015b82811115611e4f578254825591600101919060010190611e34565b5b509050611e5d9190611f4c565b5090565b828054611e6d90612ed9565b90600052602060002090601f016020900481019282611e8f5760008555611ed6565b82601f10611ea857805160ff1916838001178555611ed6565b82800160010185558215611ed6579182015b82811115611ed5578251825591602001919060010190611eba565b5b509050611ee39190611f4c565b5090565b6040518061012001604052806000815260200160008152602001600073ffffffffffffffffffffffffffffffffffffffff1681526020016000815260200160008152602001600060ff1681526020016060815260200160608152602001606081525090565b5b80821115611f65576000816000905550600101611f4d565b5090565b6000611f7c611f7784612c8f565b612c6a565b905082815260208101848484011115611f9457600080fd5b611f9f848285612e97565b509392505050565b600082601f830112611fb857600080fd5b8135611fc8848260208601611f69565b91505092915050565b600081359050611fe081613146565b92915050565b600081359050611ff58161315d565b92915050565b60008060006060848603121561201057600080fd5b600084013567ffffffffffffffff81111561202a57600080fd5b61203686828701611fa7565b935050602084013567ffffffffffffffff81111561205357600080fd5b61205f86828701611fa7565b925050604084013567ffffffffffffffff81111561207c57600080fd5b61208886828701611fa7565b9150509250925092565b600080600080608085870312156120a857600080fd5b600085013567ffffffffffffffff8111156120c257600080fd5b6120ce87828801611fa7565b945050602085013567ffffffffffffffff8111156120eb57600080fd5b6120f787828801611fa7565b935050604085013567ffffffffffffffff81111561211457600080fd5b61212087828801611fa7565b925050606085013567ffffffffffffffff81111561213d57600080fd5b61214987828801611fa7565b91505092959194509250565b60006020828403121561216757600080fd5b600061217584828501611fe6565b91505092915050565b6000806040838503121561219157600080fd5b600061219f85828601611fe6565b92505060206121b085828601611fd1565b9150509250929050565b60008060008060008060c087890312156121d357600080fd5b60006121e189828a01611fe6565b96505060206121f289828a01611fd1565b955050604061220389828a01611fd1565b945050606087013567ffffffffffffffff81111561222057600080fd5b61222c89828a01611fa7565b935050608087013567ffffffffffffffff81111561224957600080fd5b61225589828a01611fa7565b92505060a087013567ffffffffffffffff81111561227257600080fd5b61227e89828a01611fa7565b9150509295509295509295565b6000612297838361262b565b905092915050565b60006122ab8383612714565b905092915050565b60006122bf838361276b565b905092915050565b6122d081612e42565b82525050565b60006122e182612d05565b6122eb8185612d58565b9350836020820285016122fd85612cc0565b8060005b85811015612339578484038952815161231a858261228b565b945061232583612d31565b925060208a01995050600181019050612301565b50829750879550505050505092915050565b600061235682612d10565b6123608185612d69565b93508360208202850161237285612cd0565b8060005b858110156123ae578484038952815161238f858261229f565b945061239a83612d3e565b925060208a01995050600181019050612376565b50829750879550505050505092915050565b60006123cb82612d1b565b6123d58185612d7a565b9350836020820285016123e785612ce0565b8060005b85811015612423578484038952815161240485826122b3565b945061240f83612d4b565b925060208a019950506001810190506123eb565b50829750879550505050505092915050565b61243e81612e54565b82525050565b600061244f82612d26565b6124598185612d96565b9350612469818560208601612ea6565b6124728161303c565b840191505092915050565b600061248882612d26565b6124928185612da7565b93506124a2818560208601612ea6565b6124ab8161303c565b840191505092915050565b600081546124c381612ed9565b6124cd8186612da7565b945060018216600081146124e857600181146124fa5761252d565b60ff198316865260208601935061252d565b61250385612cf0565b60005b8381101561252557815481890152600182019150602081019050612506565b808801955050505b50505092915050565b6000612543600e83612da7565b915061254e8261304d565b602082019050919050565b6000612566601183612da7565b915061257182613076565b602082019050919050565b6000612589600c83612da7565b91506125948261309f565b602082019050919050565b60006125ac600f83612da7565b91506125b7826130c8565b602082019050919050565b60006125cf600083612d8b565b91506125da826130f1565b600082019050919050565b60006125f2601983612da7565b91506125fd826130f4565b602082019050919050565b6000612615601983612da7565b91506126208261311d565b602082019050919050565b6000608083016000830151612643600086018261292f565b506020830151848203602086015261265b8282612444565b915050604083015184820360408601526126758282612444565b9150506060830151848203606086015261268f8282612444565b9150508091505092915050565b600060808301600083015184820360008601526126b98282612444565b915050602083015184820360208601526126d38282612444565b915050604083015184820360408601526126ed8282612444565b915050606083015184820360608601526127078282612444565b9150508091505092915050565b600060608301600083015161272c600086018261292f565b50602083015184820360208601526127448282612444565b9150506040830151848203604086015261275e8282612444565b9150508091505092915050565b6000610120830160008301516127846000860182612911565b5060208301516127976020860182612911565b5060408301516127aa60408601826122c7565b5060608301516127bd6060860182612911565b5060808301516127d06080860182612911565b5060a08301516127e360a086018261292f565b5060c083015184820360c08601526127fb8282612444565b91505060e083015184820360e08601526128158282612444565b9150506101008301518482036101008601526128318282612444565b9150508091505092915050565b6000610120830160008301516128576000860182612911565b50602083015161286a6020860182612911565b50604083015161287d60408601826122c7565b5060608301516128906060860182612911565b5060808301516128a36080860182612911565b5060a08301516128b660a086018261292f565b5060c083015184820360c08601526128ce8282612444565b91505060e083015184820360e08601526128e88282612444565b9150506101008301518482036101008601526129048282612444565b9150508091505092915050565b61291a81612e80565b82525050565b61292981612e80565b82525050565b61293881612e8a565b82525050565b61294781612e8a565b82525050565b6000612958826125c2565b9150819050919050565b6000602082019050818103600083015261297c81846122d6565b905092915050565b6000602082019050818103600083015261299e818461234b565b905092915050565b600060208201905081810360008301526129c081846123c0565b905092915050565b60006020820190506129dd6000830184612435565b92915050565b600060608201905081810360008301526129fd818661247d565b90508181036020830152612a11818561247d565b90508181036040830152612a25818461247d565b9050949350505050565b60006080820190508181036000830152612a49818761247d565b90508181036020830152612a5d818661247d565b90508181036040830152612a71818561247d565b90508181036060830152612a85818461247d565b905095945050505050565b60006020820190508181036000830152612aa981612536565b9050919050565b60006020820190508181036000830152612ac981612559565b9050919050565b60006020820190508181036000830152612ae98161257c565b9050919050565b60006020820190508181036000830152612b098161259f565b9050919050565b60006020820190508181036000830152612b29816125e5565b9050919050565b60006020820190508181036000830152612b4981612608565b9050919050565b60006020820190508181036000830152612b6a818461269c565b905092915050565b60006020820190508181036000830152612b8c818461283e565b905092915050565b6000602082019050612ba96000830184612920565b92915050565b600060c082019050612bc46000830189612920565b612bd16020830188612920565b612bde604083018761293e565b8181036060830152612bf0818661247d565b90508181036080830152612c04818561247d565b905081810360a0830152612c18818461247d565b9050979650505050505050565b6000606082019050612c3a600083018661293e565b8181036020830152612c4c81856124b6565b90508181036040830152612c6081846124b6565b9050949350505050565b6000612c74612c85565b9050612c808282612f0b565b919050565b6000604051905090565b600067ffffffffffffffff821115612caa57612ca961300d565b5b612cb38261303c565b9050602081019050919050565b6000819050602082019050919050565b6000819050602082019050919050565b6000819050602082019050919050565b60008190508160005260206000209050919050565b600081519050919050565b600081519050919050565b600081519050919050565b600081519050919050565b6000602082019050919050565b6000602082019050919050565b6000602082019050919050565b600082825260208201905092915050565b600082825260208201905092915050565b600082825260208201905092915050565b600081905092915050565b600082825260208201905092915050565b600082825260208201905092915050565b6000612dc382612e80565b9150612dce83612e80565b9250827fffffffffffffffffffffffffffffffffffffffffffffffffffffffffffffffff03821115612e0357612e02612faf565b5b828201905092915050565b6000612e1982612e80565b9150612e2483612e80565b925082821015612e3757612e36612faf565b5b828203905092915050565b6000612e4d82612e60565b9050919050565b60008115159050919050565b600073ffffffffffffffffffffffffffffffffffffffff82169050919050565b6000819050919050565b600060ff82169050919050565b82818337600083830152505050565b60005b83811015612ec4578082015181840152602081019050612ea9565b83811115612ed3576000848401525b50505050565b60006002820490506001821680612ef157607f821691505b60208210811415612f0557612f04612fde565b5b50919050565b612f148261303c565b810181811067ffffffffffffffff82111715612f3357612f3261300d565b5b80604052505050565b6000612f4782612e80565b91507fffffffffffffffffffffffffffffffffffffffffffffffffffffffffffffffff821415612f7a57612f79612faf565b5b600182019050919050565b6000612f9082612e8a565b915060ff821415612fa457612fa3612faf565b5b600182019050919050565b7f4e487b7100000000000000000000000000000000000000000000000000000000600052601160045260246000fd5b7f4e487b7100000000000000000000000000000000000000000000000000000000600052602260045260246000fd5b7f4e487b7100000000000000000000000000000000000000000000000000000000600052604160045260246000fd5b6000601f19601f8301169050919050565b7f506c61636520636f6d706c657465000000000000000000000000000000000000600082015250565b7f50726963652069732064697374696e6374000000000000000000000000000000600082015250565b7f42616c616e636520697320300000000000000000000000000000000000000000600082015250565b7f596f75206172656e74206f776e65720000000000000000000000000000000000600082015250565b50565b7f56616c7565206973206e6f7420302e3030303120657468657200000000000000600082015250565b7f5472616e73666572206973206e6f7420636f6d706c6574656400000000000000600082015250565b61314f81612e80565b811461315a57600080fd5b50565b61316681612e8a565b811461317157600080fd5b5056fea2646970667358221220cdbfb5e92ce5789ba3907e567a867a784878db254968cee33bf96a09d8beafb864736f6c63430008040033",
  "linkReferences": {},
  "deployedLinkReferences": {}
}