{
  "_format": "hh-sol-artifact-1",
  "contractName": "ReservApp",
  "sourceName": "contracts/ReservApp.sol",
  "abi": [
    {
      "inputs": [
        {
          "internalType": "address",
          "name": "_nft",
          "type": "address"
        }
      ],
      "stateMutability": "nonpayable",
      "type": "constructor"
    },
    {
      "anonymous": false,
      "inputs": [
        {
          "indexed": true,
          "internalType": "uint8",
          "name": "index",
          "type": "uint8"
        },
        {
          "indexed": false,
          "internalType": "string",
          "name": "name",
          "type": "string"
        },
        {
          "indexed": false,
          "internalType": "string",
          "name": "description",
          "type": "string"
        },
        {
          "indexed": false,
          "internalType": "string",
          "name": "image",
          "type": "string"
        }
      ],
      "name": "NewCategoryEvent",
      "type": "event"
    },
    {
      "anonymous": false,
      "inputs": [
        {
          "indexed": true,
          "internalType": "address",
          "name": "direction",
          "type": "address"
        },
        {
          "indexed": false,
          "internalType": "string",
          "name": "last_name",
          "type": "string"
        },
        {
          "indexed": false,
          "internalType": "string",
          "name": "first_name",
          "type": "string"
        },
        {
          "indexed": false,
          "internalType": "string",
          "name": "email",
          "type": "string"
        },
        {
          "indexed": false,
          "internalType": "string",
          "name": "image",
          "type": "string"
        }
      ],
      "name": "NewPersonEvent",
      "type": "event"
    },
    {
      "anonymous": false,
      "inputs": [
        {
          "indexed": true,
          "internalType": "uint256",
          "name": "id",
          "type": "uint256"
        },
        {
          "indexed": true,
          "internalType": "uint256",
          "name": "index",
          "type": "uint256"
        },
        {
          "indexed": false,
          "internalType": "uint256",
          "name": "size",
          "type": "uint256"
        },
        {
          "indexed": false,
          "internalType": "uint256",
          "name": "price",
          "type": "uint256"
        },
        {
          "indexed": false,
          "internalType": "uint8",
          "name": "category",
          "type": "uint8"
        },
        {
          "indexed": false,
          "internalType": "string",
          "name": "title",
          "type": "string"
        },
        {
          "indexed": false,
          "internalType": "string",
          "name": "description",
          "type": "string"
        },
        {
          "indexed": false,
          "internalType": "string",
          "name": "image",
          "type": "string"
        }
      ],
      "name": "NewPlaceEvent",
      "type": "event"
    },
    {
      "anonymous": false,
      "inputs": [
        {
          "indexed": true,
          "internalType": "address",
          "name": "user",
          "type": "address"
        },
        {
          "indexed": false,
          "internalType": "uint8",
          "name": "category",
          "type": "uint8"
        },
        {
          "indexed": true,
          "internalType": "uint256",
          "name": "index",
          "type": "uint256"
        },
        {
          "indexed": false,
          "internalType": "string",
          "name": "name",
          "type": "string"
        },
        {
          "indexed": false,
          "internalType": "string",
          "name": "description",
          "type": "string"
        }
      ],
      "name": "NewRentEvent",
      "type": "event"
    },
    {
      "stateMutability": "payable",
      "type": "fallback"
    },
    {
      "inputs": [],
      "name": "destroy",
      "outputs": [],
      "stateMutability": "nonpayable",
      "type": "function"
    },
    {
      "inputs": [],
      "name": "getBalance",
      "outputs": [
        {
          "internalType": "uint256",
          "name": "",
          "type": "uint256"
        }
      ],
      "stateMutability": "view",
      "type": "function"
    },
    {
      "inputs": [],
      "name": "getCategories",
      "outputs": [
        {
          "components": [
            {
              "internalType": "uint8",
              "name": "index",
              "type": "uint8"
            },
            {
              "internalType": "string",
              "name": "name",
              "type": "string"
            },
            {
              "internalType": "string",
              "name": "description",
              "type": "string"
            },
            {
              "internalType": "string",
              "name": "image",
              "type": "string"
            }
          ],
          "internalType": "struct ReservApp.Category[]",
          "name": "",
          "type": "tuple[]"
        }
      ],
      "stateMutability": "view",
      "type": "function"
    },
    {
      "inputs": [],
      "name": "getMyPlaces",
      "outputs": [
        {
          "components": [
            {
              "internalType": "uint8",
              "name": "category",
              "type": "uint8"
            },
            {
              "internalType": "string",
              "name": "title",
              "type": "string"
            },
            {
              "internalType": "string",
              "name": "description",
              "type": "string"
            }
          ],
          "internalType": "struct ReservApp.PlaceRent[]",
          "name": "",
          "type": "tuple[]"
        }
      ],
      "stateMutability": "view",
      "type": "function"
    },
    {
      "inputs": [],
      "name": "getPersonByAddress",
      "outputs": [
        {
          "components": [
            {
              "internalType": "string",
              "name": "first_name",
              "type": "string"
            },
            {
              "internalType": "string",
              "name": "last_name",
              "type": "string"
            },
            {
              "internalType": "string",
              "name": "email",
              "type": "string"
            },
            {
              "internalType": "string",
              "name": "image",
              "type": "string"
            }
          ],
          "internalType": "struct ReservApp.Person",
          "name": "",
          "type": "tuple"
        }
      ],
      "stateMutability": "view",
      "type": "function"
    },
    {
      "inputs": [
        {
          "internalType": "uint8",
          "name": "category",
          "type": "uint8"
        },
        {
          "internalType": "uint256",
          "name": "index",
          "type": "uint256"
        }
      ],
      "name": "getPlaceById",
      "outputs": [
        {
          "components": [
            {
              "internalType": "uint256",
              "name": "id",
              "type": "uint256"
            },
            {
              "internalType": "uint256",
              "name": "index",
              "type": "uint256"
            },
            {
              "internalType": "address",
              "name": "owner",
              "type": "address"
            },
            {
              "internalType": "uint256",
              "name": "size",
              "type": "uint256"
            },
            {
              "internalType": "uint256",
              "name": "price",
              "type": "uint256"
            },
            {
              "internalType": "uint8",
              "name": "category",
              "type": "uint8"
            },
            {
              "internalType": "string",
              "name": "title",
              "type": "string"
            },
            {
              "internalType": "string",
              "name": "description",
              "type": "string"
            },
            {
              "internalType": "string",
              "name": "image",
              "type": "string"
            }
          ],
          "internalType": "struct ReservApp.Place",
          "name": "",
          "type": "tuple"
        }
      ],
      "stateMutability": "view",
      "type": "function"
    },
    {
      "inputs": [
        {
          "internalType": "uint8",
          "name": "category",
          "type": "uint8"
        }
      ],
      "name": "getPlacesByCategory",
      "outputs": [
        {
          "components": [
            {
              "internalType": "uint256",
              "name": "id",
              "type": "uint256"
            },
            {
              "internalType": "uint256",
              "name": "index",
              "type": "uint256"
            },
            {
              "internalType": "address",
              "name": "owner",
              "type": "address"
            },
            {
              "internalType": "uint256",
              "name": "size",
              "type": "uint256"
            },
            {
              "internalType": "uint256",
              "name": "price",
              "type": "uint256"
            },
            {
              "internalType": "uint8",
              "name": "category",
              "type": "uint8"
            },
            {
              "internalType": "string",
              "name": "title",
              "type": "string"
            },
            {
              "internalType": "string",
              "name": "description",
              "type": "string"
            },
            {
              "internalType": "string",
              "name": "image",
              "type": "string"
            }
          ],
          "internalType": "struct ReservApp.Place[]",
          "name": "",
          "type": "tuple[]"
        }
      ],
      "stateMutability": "view",
      "type": "function"
    },
    {
      "inputs": [],
      "name": "isOwner",
      "outputs": [
        {
          "internalType": "bool",
          "name": "",
          "type": "bool"
        }
      ],
      "stateMutability": "view",
      "type": "function"
    },
    {
      "inputs": [
        {
          "internalType": "string",
          "name": "first_name",
          "type": "string"
        },
        {
          "internalType": "string",
          "name": "last_name",
          "type": "string"
        },
        {
          "internalType": "string",
          "name": "email",
          "type": "string"
        },
        {
          "internalType": "string",
          "name": "image",
          "type": "string"
        }
      ],
      "name": "linkedPerson",
      "outputs": [],
      "stateMutability": "nonpayable",
      "type": "function"
    },
    {
      "inputs": [
        {
          "internalType": "string",
          "name": "category",
          "type": "string"
        },
        {
          "internalType": "string",
          "name": "description",
          "type": "string"
        },
        {
          "internalType": "string",
          "name": "image",
          "type": "string"
        }
      ],
      "name": "newCategory",
      "outputs": [],
      "stateMutability": "nonpayable",
      "type": "function"
    },
    {
      "inputs": [
        {
          "internalType": "uint8",
          "name": "category",
          "type": "uint8"
        },
        {
          "internalType": "uint256",
          "name": "price",
          "type": "uint256"
        },
        {
          "internalType": "uint256",
          "name": "size",
          "type": "uint256"
        },
        {
          "internalType": "string",
          "name": "title",
          "type": "string"
        },
        {
          "internalType": "string",
          "name": "description",
          "type": "string"
        },
        {
          "internalType": "string",
          "name": "image",
          "type": "string"
        }
      ],
      "name": "newPlace",
      "outputs": [],
      "stateMutability": "payable",
      "type": "function"
    },
    {
      "inputs": [
        {
          "internalType": "uint8",
          "name": "category",
          "type": "uint8"
        },
        {
          "internalType": "uint256",
          "name": "index",
          "type": "uint256"
        }
      ],
      "name": "rentPlace",
      "outputs": [],
      "stateMutability": "payable",
      "type": "function"
    },
    {
      "inputs": [],
      "name": "withdraw",
      "outputs": [
        {
          "internalType": "bool",
          "name": "",
          "type": "bool"
        }
      ],
      "stateMutability": "payable",
      "type": "function"
    },
    {
      "stateMutability": "payable",
      "type": "receive"
    }
  ],
  "bytecode": "0x608060405260006001806101000a81548160ff0219169083151502179055503480156200002b57600080fd5b50604051620032f1380380620032f18339818101604052810190620000519190620000f1565b33600360006101000a81548173ffffffffffffffffffffffffffffffffffffffff021916908373ffffffffffffffffffffffffffffffffffffffff16021790555080600860006101000a81548173ffffffffffffffffffffffffffffffffffffffff021916908373ffffffffffffffffffffffffffffffffffffffff160217905550506200016b565b600081519050620000eb8162000151565b92915050565b6000602082840312156200010457600080fd5b60006200011484828501620000da565b91505092915050565b60006200012a8262000131565b9050919050565b600073ffffffffffffffffffffffffffffffffffffffff82169050919050565b6200015c816200011d565b81146200016857600080fd5b50565b613176806200017b6000396000f3fe6080604052600436106100c65760003560e01c806383197ef01161007f578063d0f24c2611610059578063d0f24c2614610213578063d4844ee21461023c578063e85b39be14610279578063eb38dd1b146102b6576100cd565b806383197ef0146101b55780638f32d59b146101cc578063aaf22153146101f7576100cd565b806312065fe0146100cf5780633ccfd60b146100fa5780634db0412c1461011857806364ed3f941461014357806369a6f4a81461016e57806378ee976d1461018a576100cd565b366100cd57005b005b3480156100db57600080fd5b506100e46102df565b6040516100f19190612b60565b60405180910390f35b610102610326565b60405161010f9190612994565b60405180910390f35b34801561012457600080fd5b5061012d610533565b60405161013a919061292e565b60405180910390f35b34801561014f57600080fd5b50610158610765565b6040516101659190612b1c565b60405180910390f35b6101886004803603810190610183919061214a565b610a04565b005b34801561019657600080fd5b5061019f610f69565b6040516101ac9190612950565b60405180910390f35b3480156101c157600080fd5b506101ca611146565b005b3480156101d857600080fd5b506101e1611211565b6040516101ee9190612994565b60405180910390f35b610211600480360381019061020c9190612186565b611269565b005b34801561021f57600080fd5b5061023a6004803603810190610235919061205e565b6114be565b005b34801561024857600080fd5b50610263600480360381019061025e919061214a565b6115ef565b6040516102709190612b3e565b60405180910390f35b34801561028557600080fd5b506102a0600480360381019061029b9190612121565b6118bb565b6040516102ad9190612972565b60405180910390f35b3480156102c257600080fd5b506102dd60048036038101906102d89190611fc7565b611b85565b005b6000600660003373ffffffffffffffffffffffffffffffffffffffff1673ffffffffffffffffffffffffffffffffffffffff16815260200190815260200160002054905090565b600060018054906101000a900460ff161561034057600080fd5b60018060016101000a81548160ff0219169083151502179055506000600660003373ffffffffffffffffffffffffffffffffffffffff1673ffffffffffffffffffffffffffffffffffffffff16815260200190815260200160002054116103dc576040517f08c379a00000000000000000000000000000000000000000000000000000000081526004016103d390612a9c565b60405180910390fd5b6000600660003373ffffffffffffffffffffffffffffffffffffffff1673ffffffffffffffffffffffffffffffffffffffff1681526020019081526020016000205490506000600660003373ffffffffffffffffffffffffffffffffffffffff1673ffffffffffffffffffffffffffffffffffffffff1681526020019081526020016000208190555060003373ffffffffffffffffffffffffffffffffffffffff168260405161048b90612919565b60006040518083038185875af1925050503d80600081146104c8576040519150601f19603f3d011682016040523d82523d6000602084013e6104cd565b606091505b5050905080610511576040517f08c379a000000000000000000000000000000000000000000000000000000000815260040161050890612afc565b60405180910390fd5b809250505060006001806101000a81548160ff02191690831515021790555090565b60606002805480602002602001604051908101604052809291908181526020016000905b8282101561075c57838290600052602060002090600402016040518060800160405290816000820160009054906101000a900460ff1660ff1660ff1681526020016001820180546105a790612ea5565b80601f01602080910402602001604051908101604052809291908181526020018280546105d390612ea5565b80156106205780601f106105f557610100808354040283529160200191610620565b820191906000526020600020905b81548152906001019060200180831161060357829003601f168201915b5050505050815260200160028201805461063990612ea5565b80601f016020809104026020016040519081016040528092919081815260200182805461066590612ea5565b80156106b25780601f10610687576101008083540402835291602001916106b2565b820191906000526020600020905b81548152906001019060200180831161069557829003601f168201915b505050505081526020016003820180546106cb90612ea5565b80601f01602080910402602001604051908101604052809291908181526020018280546106f790612ea5565b80156107445780601f1061071957610100808354040283529160200191610744565b820191906000526020600020905b81548152906001019060200180831161072757829003601f168201915b50505050508152505081526020019060010190610557565b50505050905090565b61076d611d78565b600760003373ffffffffffffffffffffffffffffffffffffffff1673ffffffffffffffffffffffffffffffffffffffff1681526020019081526020016000206040518060800160405290816000820180546107c790612ea5565b80601f01602080910402602001604051908101604052809291908181526020018280546107f390612ea5565b80156108405780601f1061081557610100808354040283529160200191610840565b820191906000526020600020905b81548152906001019060200180831161082357829003601f168201915b5050505050815260200160018201805461085990612ea5565b80601f016020809104026020016040519081016040528092919081815260200182805461088590612ea5565b80156108d25780601f106108a7576101008083540402835291602001916108d2565b820191906000526020600020905b8154815290600101906020018083116108b557829003601f168201915b505050505081526020016002820180546108eb90612ea5565b80601f016020809104026020016040519081016040528092919081815260200182805461091790612ea5565b80156109645780601f1061093957610100808354040283529160200191610964565b820191906000526020600020905b81548152906001019060200180831161094757829003601f168201915b5050505050815260200160038201805461097d90612ea5565b80601f01602080910402602001604051908101604052809291908181526020018280546109a990612ea5565b80156109f65780601f106109cb576101008083540402835291602001916109f6565b820191906000526020600020905b8154815290600101906020018083116109d957829003601f168201915b505050505081525050905090565b6000600460008460ff1660ff1681526020019081526020016000208281548110610a57577f4e487b7100000000000000000000000000000000000000000000000000000000600052603260045260246000fd5b906000526020600020906009020190506000816003015411610aae576040517f08c379a0000000000000000000000000000000000000000000000000000000008152600401610aa590612a5c565b60405180910390fd5b34816004015414610af4576040517f08c379a0000000000000000000000000000000000000000000000000000000008152600401610aeb90612a7c565b60405180910390fd5b6001816003016000828254610b099190612dda565b9250508190555080600460008560ff1660ff1681526020019081526020016000208381548110610b62577f4e487b7100000000000000000000000000000000000000000000000000000000600052603260045260246000fd5b906000526020600020906009020160008201548160000155600182015481600101556002820160009054906101000a900473ffffffffffffffffffffffffffffffffffffffff168160020160006101000a81548173ffffffffffffffffffffffffffffffffffffffff021916908373ffffffffffffffffffffffffffffffffffffffff16021790555060038201548160030155600482015481600401556005820160009054906101000a900460ff168160050160006101000a81548160ff021916908360ff1602179055506006820181600601908054610c4190612ea5565b610c4c929190611da0565b506007820181600701908054610c6190612ea5565b610c6c929190611da0565b506008820181600801908054610c8190612ea5565b610c8c929190611da0565b5090505060008160020160009054906101000a900473ffffffffffffffffffffffffffffffffffffffff169050600560003373ffffffffffffffffffffffffffffffffffffffff1673ffffffffffffffffffffffffffffffffffffffff16815260200190815260200160002060405180606001604052808660ff168152602001846006018054610d1b90612ea5565b80601f0160208091040260200160405190810160405280929190818152602001828054610d4790612ea5565b8015610d945780601f10610d6957610100808354040283529160200191610d94565b820191906000526020600020905b815481529060010190602001808311610d7757829003601f168201915b50505050508152602001846007018054610dad90612ea5565b80601f0160208091040260200160405190810160405280929190818152602001828054610dd990612ea5565b8015610e265780601f10610dfb57610100808354040283529160200191610e26565b820191906000526020600020905b815481529060010190602001808311610e0957829003601f168201915b5050505050815250908060018154018082558091505060019003906000526020600020906003020160009091909190915060008201518160000160006101000a81548160ff021916908360ff1602179055506020820151816001019080519060200190610e94929190611e2d565b506040820151816002019080519060200190610eb1929190611e2d565b50505034600660008373ffffffffffffffffffffffffffffffffffffffff1673ffffffffffffffffffffffffffffffffffffffff1681526020019081526020016000206000828254610f039190612d84565b92505081905550823373ffffffffffffffffffffffffffffffffffffffff167f63cd513bbfa9af637f007bdd8cfeb1976f2914b5493b3d9841533c3b43901187868560060186600701604051610f5b93929190612bf1565b60405180910390a350505050565b6060600560003373ffffffffffffffffffffffffffffffffffffffff1673ffffffffffffffffffffffffffffffffffffffff168152602001908152602001600020805480602002602001604051908101604052809291908181526020016000905b8282101561113d57838290600052602060002090600302016040518060600160405290816000820160009054906101000a900460ff1660ff1660ff16815260200160018201805461101a90612ea5565b80601f016020809104026020016040519081016040528092919081815260200182805461104690612ea5565b80156110935780601f1061106857610100808354040283529160200191611093565b820191906000526020600020905b81548152906001019060200180831161107657829003601f168201915b505050505081526020016002820180546110ac90612ea5565b80601f01602080910402602001604051908101604052809291908181526020018280546110d890612ea5565b80156111255780601f106110fa57610100808354040283529160200191611125565b820191906000526020600020905b81548152906001019060200180831161110857829003601f168201915b50505050508152505081526020019060010190610fca565b50505050905090565b3373ffffffffffffffffffffffffffffffffffffffff16600360009054906101000a900473ffffffffffffffffffffffffffffffffffffffff1673ffffffffffffffffffffffffffffffffffffffff16146111d6576040517f08c379a00000000000000000000000000000000000000000000000000000000081526004016111cd90612abc565b60405180910390fd5b600360009054906101000a900473ffffffffffffffffffffffffffffffffffffffff1673ffffffffffffffffffffffffffffffffffffffff16ff5b60003373ffffffffffffffffffffffffffffffffffffffff16600360009054906101000a900473ffffffffffffffffffffffffffffffffffffffff1673ffffffffffffffffffffffffffffffffffffffff1614905090565b655af3107a400034146112b1576040517f08c379a00000000000000000000000000000000000000000000000000000000081526004016112a890612adc565b60405180910390fd5b6000600460008860ff1660ff168152602001908152602001600020805490509050600460008860ff1660ff16815260200190815260200160002060405180610120016040528060005481526020018381526020013373ffffffffffffffffffffffffffffffffffffffff1681526020018781526020018881526020018960ff168152602001868152602001858152602001848152509080600181540180825580915050600190039060005260206000209060090201600090919091909150600082015181600001556020820151816001015560408201518160020160006101000a81548173ffffffffffffffffffffffffffffffffffffffff021916908373ffffffffffffffffffffffffffffffffffffffff160217905550606082015181600301556080820151816004015560a08201518160050160006101000a81548160ff021916908360ff16021790555060c082015181600601908051906020019061141b929190611e2d565b5060e0820151816007019080519060200190611438929190611e2d565b50610100820151816008019080519060200190611456929190611e2d565b50505060008081548092919061146b90612f08565b9190505550806000547f55b682d69381b8942b84474fac0361900424a7b2526315b28db6ac4c80437fb987898b8989896040516114ad96959493929190612b7b565b60405180910390a350505050505050565b604051806080016040528085815260200184815260200183815260200182815250600760003373ffffffffffffffffffffffffffffffffffffffff1673ffffffffffffffffffffffffffffffffffffffff168152602001908152602001600020600082015181600001908051906020019061153a929190611e2d565b506020820151816001019080519060200190611557929190611e2d565b506040820151816002019080519060200190611574929190611e2d565b506060820151816003019080519060200190611591929190611e2d565b509050503373ffffffffffffffffffffffffffffffffffffffff167f51bc63969619b12c4c63e1719a7a86795a979361b73ddde7ce2026744eaead3a858585856040516115e194939291906129fb565b60405180910390a250505050565b6115f7611eb3565b600460008460ff1660ff1681526020019081526020016000208281548110611648577f4e487b7100000000000000000000000000000000000000000000000000000000600052603260045260246000fd5b90600052602060002090600902016040518061012001604052908160008201548152602001600182015481526020016002820160009054906101000a900473ffffffffffffffffffffffffffffffffffffffff1673ffffffffffffffffffffffffffffffffffffffff1673ffffffffffffffffffffffffffffffffffffffff16815260200160038201548152602001600482015481526020016005820160009054906101000a900460ff1660ff1660ff16815260200160068201805461170d90612ea5565b80601f016020809104026020016040519081016040528092919081815260200182805461173990612ea5565b80156117865780601f1061175b57610100808354040283529160200191611786565b820191906000526020600020905b81548152906001019060200180831161176957829003601f168201915b5050505050815260200160078201805461179f90612ea5565b80601f01602080910402602001604051908101604052809291908181526020018280546117cb90612ea5565b80156118185780601f106117ed57610100808354040283529160200191611818565b820191906000526020600020905b8154815290600101906020018083116117fb57829003601f168201915b5050505050815260200160088201805461183190612ea5565b80601f016020809104026020016040519081016040528092919081815260200182805461185d90612ea5565b80156118aa5780601f1061187f576101008083540402835291602001916118aa565b820191906000526020600020905b81548152906001019060200180831161188d57829003601f168201915b505050505081525050905092915050565b6060600460008360ff1660ff168152602001908152602001600020805480602002602001604051908101604052809291908181526020016000905b82821015611b7a57838290600052602060002090600902016040518061012001604052908160008201548152602001600182015481526020016002820160009054906101000a900473ffffffffffffffffffffffffffffffffffffffff1673ffffffffffffffffffffffffffffffffffffffff1673ffffffffffffffffffffffffffffffffffffffff16815260200160038201548152602001600482015481526020016005820160009054906101000a900460ff1660ff1660ff1681526020016006820180546119c590612ea5565b80601f01602080910402602001604051908101604052809291908181526020018280546119f190612ea5565b8015611a3e5780601f10611a1357610100808354040283529160200191611a3e565b820191906000526020600020905b815481529060010190602001808311611a2157829003601f168201915b50505050508152602001600782018054611a5790612ea5565b80601f0160208091040260200160405190810160405280929190818152602001828054611a8390612ea5565b8015611ad05780601f10611aa557610100808354040283529160200191611ad0565b820191906000526020600020905b815481529060010190602001808311611ab357829003601f168201915b50505050508152602001600882018054611ae990612ea5565b80601f0160208091040260200160405190810160405280929190818152602001828054611b1590612ea5565b8015611b625780601f10611b3757610100808354040283529160200191611b62565b820191906000526020600020905b815481529060010190602001808311611b4557829003601f168201915b505050505081525050815260200190600101906118f6565b505050509050919050565b3373ffffffffffffffffffffffffffffffffffffffff16600360009054906101000a900473ffffffffffffffffffffffffffffffffffffffff1673ffffffffffffffffffffffffffffffffffffffff1614611c15576040517f08c379a0000000000000000000000000000000000000000000000000000000008152600401611c0c90612abc565b60405180910390fd5b60026040518060800160405280600160009054906101000a900460ff1660ff16815260200185815260200184815260200183815250908060018154018082558091505060019003906000526020600020906004020160009091909190915060008201518160000160006101000a81548160ff021916908360ff1602179055506020820151816001019080519060200190611cb0929190611e2d565b506040820151816002019080519060200190611ccd929190611e2d565b506060820151816003019080519060200190611cea929190611e2d565b5050506001600081819054906101000a900460ff1680929190611d0c90612f51565b91906101000a81548160ff021916908360ff16021790555050600160009054906101000a900460ff1660ff167fba308579c9f6e1ed825ce431889b08f19cd1da2c7a99b294856a10acf88162c6848484604051611d6b939291906129af565b60405180910390a2505050565b6040518060800160405280606081526020016060815260200160608152602001606081525090565b828054611dac90612ea5565b90600052602060002090601f016020900481019282611dce5760008555611e1c565b82601f10611ddf5780548555611e1c565b82800160010185558215611e1c57600052602060002091601f016020900482015b82811115611e1b578254825591600101919060010190611e00565b5b509050611e299190611f18565b5090565b828054611e3990612ea5565b90600052602060002090601f016020900481019282611e5b5760008555611ea2565b82601f10611e7457805160ff1916838001178555611ea2565b82800160010185558215611ea2579182015b82811115611ea1578251825591602001919060010190611e86565b5b509050611eaf9190611f18565b5090565b6040518061012001604052806000815260200160008152602001600073ffffffffffffffffffffffffffffffffffffffff1681526020016000815260200160008152602001600060ff1681526020016060815260200160608152602001606081525090565b5b80821115611f31576000816000905550600101611f19565b5090565b6000611f48611f4384612c5b565b612c36565b905082815260208101848484011115611f6057600080fd5b611f6b848285612e63565b509392505050565b600082601f830112611f8457600080fd5b8135611f94848260208601611f35565b91505092915050565b600081359050611fac81613112565b92915050565b600081359050611fc181613129565b92915050565b600080600060608486031215611fdc57600080fd5b600084013567ffffffffffffffff811115611ff657600080fd5b61200286828701611f73565b935050602084013567ffffffffffffffff81111561201f57600080fd5b61202b86828701611f73565b925050604084013567ffffffffffffffff81111561204857600080fd5b61205486828701611f73565b9150509250925092565b6000806000806080858703121561207457600080fd5b600085013567ffffffffffffffff81111561208e57600080fd5b61209a87828801611f73565b945050602085013567ffffffffffffffff8111156120b757600080fd5b6120c387828801611f73565b935050604085013567ffffffffffffffff8111156120e057600080fd5b6120ec87828801611f73565b925050606085013567ffffffffffffffff81111561210957600080fd5b61211587828801611f73565b91505092959194509250565b60006020828403121561213357600080fd5b600061214184828501611fb2565b91505092915050565b6000806040838503121561215d57600080fd5b600061216b85828601611fb2565b925050602061217c85828601611f9d565b9150509250929050565b60008060008060008060c0878903121561219f57600080fd5b60006121ad89828a01611fb2565b96505060206121be89828a01611f9d565b95505060406121cf89828a01611f9d565b945050606087013567ffffffffffffffff8111156121ec57600080fd5b6121f889828a01611f73565b935050608087013567ffffffffffffffff81111561221557600080fd5b61222189828a01611f73565b92505060a087013567ffffffffffffffff81111561223e57600080fd5b61224a89828a01611f73565b9150509295509295509295565b600061226383836125f7565b905092915050565b600061227783836126e0565b905092915050565b600061228b8383612737565b905092915050565b61229c81612e0e565b82525050565b60006122ad82612cd1565b6122b78185612d24565b9350836020820285016122c985612c8c565b8060005b8581101561230557848403895281516122e68582612257565b94506122f183612cfd565b925060208a019950506001810190506122cd565b50829750879550505050505092915050565b600061232282612cdc565b61232c8185612d35565b93508360208202850161233e85612c9c565b8060005b8581101561237a578484038952815161235b858261226b565b945061236683612d0a565b925060208a01995050600181019050612342565b50829750879550505050505092915050565b600061239782612ce7565b6123a18185612d46565b9350836020820285016123b385612cac565b8060005b858110156123ef57848403895281516123d0858261227f565b94506123db83612d17565b925060208a019950506001810190506123b7565b50829750879550505050505092915050565b61240a81612e20565b82525050565b600061241b82612cf2565b6124258185612d62565b9350612435818560208601612e72565b61243e81613008565b840191505092915050565b600061245482612cf2565b61245e8185612d73565b935061246e818560208601612e72565b61247781613008565b840191505092915050565b6000815461248f81612ea5565b6124998186612d73565b945060018216600081146124b457600181146124c6576124f9565b60ff19831686526020860193506124f9565b6124cf85612cbc565b60005b838110156124f1578154818901526001820191506020810190506124d2565b808801955050505b50505092915050565b600061250f600e83612d73565b915061251a82613019565b602082019050919050565b6000612532601183612d73565b915061253d82613042565b602082019050919050565b6000612555600c83612d73565b91506125608261306b565b602082019050919050565b6000612578600f83612d73565b915061258382613094565b602082019050919050565b600061259b600083612d57565b91506125a6826130bd565b600082019050919050565b60006125be601983612d73565b91506125c9826130c0565b602082019050919050565b60006125e1601983612d73565b91506125ec826130e9565b602082019050919050565b600060808301600083015161260f60008601826128fb565b50602083015184820360208601526126278282612410565b915050604083015184820360408601526126418282612410565b9150506060830151848203606086015261265b8282612410565b9150508091505092915050565b600060808301600083015184820360008601526126858282612410565b9150506020830151848203602086015261269f8282612410565b915050604083015184820360408601526126b98282612410565b915050606083015184820360608601526126d38282612410565b9150508091505092915050565b60006060830160008301516126f860008601826128fb565b50602083015184820360208601526127108282612410565b9150506040830151848203604086015261272a8282612410565b9150508091505092915050565b60006101208301600083015161275060008601826128dd565b50602083015161276360208601826128dd565b5060408301516127766040860182612293565b50606083015161278960608601826128dd565b50608083015161279c60808601826128dd565b5060a08301516127af60a08601826128fb565b5060c083015184820360c08601526127c78282612410565b91505060e083015184820360e08601526127e18282612410565b9150506101008301518482036101008601526127fd8282612410565b9150508091505092915050565b60006101208301600083015161282360008601826128dd565b50602083015161283660208601826128dd565b5060408301516128496040860182612293565b50606083015161285c60608601826128dd565b50608083015161286f60808601826128dd565b5060a083015161288260a08601826128fb565b5060c083015184820360c086015261289a8282612410565b91505060e083015184820360e08601526128b48282612410565b9150506101008301518482036101008601526128d08282612410565b9150508091505092915050565b6128e681612e4c565b82525050565b6128f581612e4c565b82525050565b61290481612e56565b82525050565b61291381612e56565b82525050565b60006129248261258e565b9150819050919050565b6000602082019050818103600083015261294881846122a2565b905092915050565b6000602082019050818103600083015261296a8184612317565b905092915050565b6000602082019050818103600083015261298c818461238c565b905092915050565b60006020820190506129a96000830184612401565b92915050565b600060608201905081810360008301526129c98186612449565b905081810360208301526129dd8185612449565b905081810360408301526129f18184612449565b9050949350505050565b60006080820190508181036000830152612a158187612449565b90508181036020830152612a298186612449565b90508181036040830152612a3d8185612449565b90508181036060830152612a518184612449565b905095945050505050565b60006020820190508181036000830152612a7581612502565b9050919050565b60006020820190508181036000830152612a9581612525565b9050919050565b60006020820190508181036000830152612ab581612548565b9050919050565b60006020820190508181036000830152612ad58161256b565b9050919050565b60006020820190508181036000830152612af5816125b1565b9050919050565b60006020820190508181036000830152612b15816125d4565b9050919050565b60006020820190508181036000830152612b368184612668565b905092915050565b60006020820190508181036000830152612b58818461280a565b905092915050565b6000602082019050612b7560008301846128ec565b92915050565b600060c082019050612b9060008301896128ec565b612b9d60208301886128ec565b612baa604083018761290a565b8181036060830152612bbc8186612449565b90508181036080830152612bd08185612449565b905081810360a0830152612be48184612449565b9050979650505050505050565b6000606082019050612c06600083018661290a565b8181036020830152612c188185612482565b90508181036040830152612c2c8184612482565b9050949350505050565b6000612c40612c51565b9050612c4c8282612ed7565b919050565b6000604051905090565b600067ffffffffffffffff821115612c7657612c75612fd9565b5b612c7f82613008565b9050602081019050919050565b6000819050602082019050919050565b6000819050602082019050919050565b6000819050602082019050919050565b60008190508160005260206000209050919050565b600081519050919050565b600081519050919050565b600081519050919050565b600081519050919050565b6000602082019050919050565b6000602082019050919050565b6000602082019050919050565b600082825260208201905092915050565b600082825260208201905092915050565b600082825260208201905092915050565b600081905092915050565b600082825260208201905092915050565b600082825260208201905092915050565b6000612d8f82612e4c565b9150612d9a83612e4c565b9250827fffffffffffffffffffffffffffffffffffffffffffffffffffffffffffffffff03821115612dcf57612dce612f7b565b5b828201905092915050565b6000612de582612e4c565b9150612df083612e4c565b925082821015612e0357612e02612f7b565b5b828203905092915050565b6000612e1982612e2c565b9050919050565b60008115159050919050565b600073ffffffffffffffffffffffffffffffffffffffff82169050919050565b6000819050919050565b600060ff82169050919050565b82818337600083830152505050565b60005b83811015612e90578082015181840152602081019050612e75565b83811115612e9f576000848401525b50505050565b60006002820490506001821680612ebd57607f821691505b60208210811415612ed157612ed0612faa565b5b50919050565b612ee082613008565b810181811067ffffffffffffffff82111715612eff57612efe612fd9565b5b80604052505050565b6000612f1382612e4c565b91507fffffffffffffffffffffffffffffffffffffffffffffffffffffffffffffffff821415612f4657612f45612f7b565b5b600182019050919050565b6000612f5c82612e56565b915060ff821415612f7057612f6f612f7b565b5b600182019050919050565b7f4e487b7100000000000000000000000000000000000000000000000000000000600052601160045260246000fd5b7f4e487b7100000000000000000000000000000000000000000000000000000000600052602260045260246000fd5b7f4e487b7100000000000000000000000000000000000000000000000000000000600052604160045260246000fd5b6000601f19601f8301169050919050565b7f506c61636520636f6d706c657465000000000000000000000000000000000000600082015250565b7f50726963652069732064697374696e6374000000000000000000000000000000600082015250565b7f42616c616e636520697320300000000000000000000000000000000000000000600082015250565b7f596f75206172656e74206f776e65720000000000000000000000000000000000600082015250565b50565b7f56616c7565206973206e6f7420302e3030303120657468657200000000000000600082015250565b7f5472616e73666572206973206e6f7420636f6d706c6574656400000000000000600082015250565b61311b81612e4c565b811461312657600080fd5b50565b61313281612e56565b811461313d57600080fd5b5056fea2646970667358221220df55608e5f94c85e740f30f24b736005d481c74d3917785d467b9f051faa0c4f64736f6c63430008040033",
  "linkReferences": {},
  "deployedLinkReferences": {}
}