{
  "_format": "hh-sol-artifact-1",
  "contractName": "ReservApp",
  "sourceName": "contracts/ReservApp.sol",
  "abi": [
    {
      "inputs": [
        {
          "internalType": "address",
          "name": "_nft",
          "type": "address"
        }
      ],
      "stateMutability": "nonpayable",
      "type": "constructor"
    },
    {
      "anonymous": false,
      "inputs": [],
      "name": "NewPlaceEvent",
      "type": "event"
    },
    {
      "anonymous": false,
      "inputs": [],
      "name": "NewRent",
      "type": "event"
    },
    {
      "anonymous": false,
      "inputs": [
        {
          "indexed": true,
          "internalType": "address",
          "name": "previousOwner",
          "type": "address"
        },
        {
          "indexed": true,
          "internalType": "address",
          "name": "newOwner",
          "type": "address"
        }
      ],
      "name": "OwnershipTransferred",
      "type": "event"
    },
    {
      "stateMutability": "payable",
      "type": "fallback"
    },
    {
      "inputs": [],
      "name": "getMyPlaces",
      "outputs": [
        {
          "components": [
            {
              "internalType": "enum ReservApp.Category",
              "name": "category",
              "type": "uint8"
            },
            {
              "internalType": "string",
              "name": "title",
              "type": "string"
            },
            {
              "internalType": "string",
              "name": "description",
              "type": "string"
            }
          ],
          "internalType": "struct ReservApp.PlaceRent[]",
          "name": "",
          "type": "tuple[]"
        }
      ],
      "stateMutability": "view",
      "type": "function"
    },
    {
      "inputs": [
        {
          "internalType": "enum ReservApp.Category",
          "name": "category",
          "type": "uint8"
        }
      ],
      "name": "getPlacesByCategory",
      "outputs": [
        {
          "components": [
            {
              "internalType": "uint256",
              "name": "id",
              "type": "uint256"
            },
            {
              "internalType": "uint256",
              "name": "size",
              "type": "uint256"
            },
            {
              "internalType": "uint256",
              "name": "price",
              "type": "uint256"
            },
            {
              "internalType": "enum ReservApp.Category",
              "name": "category",
              "type": "uint8"
            },
            {
              "internalType": "string",
              "name": "title",
              "type": "string"
            },
            {
              "internalType": "string",
              "name": "description",
              "type": "string"
            },
            {
              "internalType": "string",
              "name": "image",
              "type": "string"
            }
          ],
          "internalType": "struct ReservApp.Place[]",
          "name": "",
          "type": "tuple[]"
        }
      ],
      "stateMutability": "view",
      "type": "function"
    },
    {
      "inputs": [
        {
          "internalType": "enum ReservApp.Category",
          "name": "category",
          "type": "uint8"
        },
        {
          "internalType": "uint256",
          "name": "price",
          "type": "uint256"
        },
        {
          "internalType": "uint256",
          "name": "size",
          "type": "uint256"
        },
        {
          "internalType": "string",
          "name": "title",
          "type": "string"
        },
        {
          "internalType": "string",
          "name": "description",
          "type": "string"
        },
        {
          "internalType": "string",
          "name": "image",
          "type": "string"
        }
      ],
      "name": "newPlace",
      "outputs": [],
      "stateMutability": "payable",
      "type": "function"
    },
    {
      "inputs": [],
      "name": "owner",
      "outputs": [
        {
          "internalType": "address",
          "name": "",
          "type": "address"
        }
      ],
      "stateMutability": "view",
      "type": "function"
    },
    {
      "inputs": [],
      "name": "renounceOwnership",
      "outputs": [],
      "stateMutability": "nonpayable",
      "type": "function"
    },
    {
      "inputs": [
        {
          "internalType": "enum ReservApp.Category",
          "name": "category",
          "type": "uint8"
        },
        {
          "internalType": "uint256",
          "name": "index",
          "type": "uint256"
        }
      ],
      "name": "rentPlace",
      "outputs": [
        {
          "internalType": "uint256",
          "name": "",
          "type": "uint256"
        }
      ],
      "stateMutability": "payable",
      "type": "function"
    },
    {
      "inputs": [
        {
          "internalType": "address",
          "name": "newOwner",
          "type": "address"
        }
      ],
      "name": "transferOwnership",
      "outputs": [],
      "stateMutability": "nonpayable",
      "type": "function"
    }
  ],
  "bytecode": "0x60806040523480156200001157600080fd5b506040516200214338038062002143833981810160405281019062000037919062000182565b620000576200004b6200009f60201b60201c565b620000a760201b60201c565b80600760006101000a81548173ffffffffffffffffffffffffffffffffffffffff021916908373ffffffffffffffffffffffffffffffffffffffff16021790555050620001fc565b600033905090565b60008060009054906101000a900473ffffffffffffffffffffffffffffffffffffffff169050816000806101000a81548173ffffffffffffffffffffffffffffffffffffffff021916908373ffffffffffffffffffffffffffffffffffffffff1602179055508173ffffffffffffffffffffffffffffffffffffffff168173ffffffffffffffffffffffffffffffffffffffff167f8be0079c531659141344cd1fd0a4f28419497f9722a3daafe3b4186f6b6457e060405160405180910390a35050565b6000815190506200017c81620001e2565b92915050565b6000602082840312156200019557600080fd5b6000620001a5848285016200016b565b91505092915050565b6000620001bb82620001c2565b9050919050565b600073ffffffffffffffffffffffffffffffffffffffff82169050919050565b620001ed81620001ae565b8114620001f957600080fd5b50565b611f37806200020c6000396000f3fe6080604052600436106100745760003560e01c80638da5cb5b1161004e5780638da5cb5b146100e9578063aaf2215314610114578063e85b39be14610130578063f2fde38b1461016d57610075565b806369a6f4a814610077578063715018a6146100a757806378ee976d146100be57610075565b5b005b610091600480360381019061008c919061155c565b610196565b60405161009e9190611a85565b60405180910390f35b3480156100b357600080fd5b506100bc610845565b005b3480156100ca57600080fd5b506100d36108cd565b6040516100e091906119c1565b60405180910390f35b3480156100f557600080fd5b506100fe610b14565b60405161010b91906119a6565b60405180910390f35b61012e60048036038101906101299190611598565b610b3d565b005b34801561013c57600080fd5b5061015760048036038101906101529190611533565b610e1d565b60405161016491906119e3565b60405180910390f35b34801561017957600080fd5b50610194600480360381019061018f919061150a565b61115a565b005b6000655af3107a400034146101e0576040517f08c379a00000000000000000000000000000000000000000000000000000000081526004016101d790611a65565b60405180910390fd5b60006003600085600181111561021f577f4e487b7100000000000000000000000000000000000000000000000000000000600052602160045260246000fd5b6001811115610257577f4e487b7100000000000000000000000000000000000000000000000000000000600052602160045260246000fd5b8152602001908152602001600020838154811061029d577f4e487b7100000000000000000000000000000000000000000000000000000000600052603260045260246000fd5b9060005260206000209060070201905060008160010154116102f4576040517f08c379a00000000000000000000000000000000000000000000000000000000081526004016102eb90611a25565b60405180910390fd5b600660003373ffffffffffffffffffffffffffffffffffffffff1673ffffffffffffffffffffffffffffffffffffffff168152602001908152602001600020349080600181540180825580915050600190039060005260206000200160009091909190915055600181600101600082825461036f9190611b95565b9250508190555080600360008660018111156103b4577f4e487b7100000000000000000000000000000000000000000000000000000000600052602160045260246000fd5b60018111156103ec577f4e487b7100000000000000000000000000000000000000000000000000000000600052602160045260246000fd5b81526020019081526020016000208481548110610432577f4e487b7100000000000000000000000000000000000000000000000000000000600052603260045260246000fd5b90600052602060002090600702016000820154816000015560018201548160010155600282015481600201556003820160009054906101000a900460ff168160030160006101000a81548160ff021916908360018111156104bc577f4e487b7100000000000000000000000000000000000000000000000000000000600052602160045260246000fd5b021790555060048201816004019080546104d590611c6c565b6104e092919061131e565b5060058201816005019080546104f590611c6c565b61050092919061131e565b50600682018160060190805461051590611c6c565b61052092919061131e565b50905050600460003373ffffffffffffffffffffffffffffffffffffffff1673ffffffffffffffffffffffffffffffffffffffff16815260200190815260200160002060405180606001604052808660018111156105a7577f4e487b7100000000000000000000000000000000000000000000000000000000600052602160045260246000fd5b81526020018360040180546105bb90611c6c565b80601f01602080910402602001604051908101604052809291908181526020018280546105e790611c6c565b80156106345780601f1061060957610100808354040283529160200191610634565b820191906000526020600020905b81548152906001019060200180831161061757829003601f168201915b5050505050815260200183600501805461064d90611c6c565b80601f016020809104026020016040519081016040528092919081815260200182805461067990611c6c565b80156106c65780601f1061069b576101008083540402835291602001916106c6565b820191906000526020600020905b8154815290600101906020018083116106a957829003601f168201915b5050505050815250908060018154018082558091505060019003906000526020600020906003020160009091909190915060008201518160000160006101000a81548160ff02191690836001811115610748577f4e487b7100000000000000000000000000000000000000000000000000000000600052602160045260246000fd5b021790555060208201518160010190805190602001906107699291906113ab565b5060408201518160020190805190602001906107869291906113ab565b5050506000600760009054906101000a900473ffffffffffffffffffffffffffffffffffffffff1673ffffffffffffffffffffffffffffffffffffffff166354ba0f27336040518263ffffffff1660e01b81526004016107e691906119a6565b602060405180830381600087803b15801561080057600080fd5b505af1158015610814573d6000803e3d6000fd5b505050506040513d601f19601f820116820180604052508101906108389190611669565b9050809250505092915050565b61084d611252565b73ffffffffffffffffffffffffffffffffffffffff1661086b610b14565b73ffffffffffffffffffffffffffffffffffffffff16146108c1576040517f08c379a00000000000000000000000000000000000000000000000000000000081526004016108b890611a45565b60405180910390fd5b6108cb600061125a565b565b6060600460003373ffffffffffffffffffffffffffffffffffffffff1673ffffffffffffffffffffffffffffffffffffffff168152602001908152602001600020805480602002602001604051908101604052809291908181526020016000905b82821015610b0b57838290600052602060002090600302016040518060600160405290816000820160009054906101000a900460ff16600181111561099c577f4e487b7100000000000000000000000000000000000000000000000000000000600052602160045260246000fd5b60018111156109d4577f4e487b7100000000000000000000000000000000000000000000000000000000600052602160045260246000fd5b81526020016001820180546109e890611c6c565b80601f0160208091040260200160405190810160405280929190818152602001828054610a1490611c6c565b8015610a615780601f10610a3657610100808354040283529160200191610a61565b820191906000526020600020905b815481529060010190602001808311610a4457829003601f168201915b50505050508152602001600282018054610a7a90611c6c565b80601f0160208091040260200160405190810160405280929190818152602001828054610aa690611c6c565b8015610af35780601f10610ac857610100808354040283529160200191610af3565b820191906000526020600020905b815481529060010190602001808311610ad657829003601f168201915b5050505050815250508152602001906001019061092e565b50505050905090565b60008060009054906101000a900473ffffffffffffffffffffffffffffffffffffffff16905090565b655af3107a40003414610b85576040517f08c379a0000000000000000000000000000000000000000000000000000000008152600401610b7c90611a65565b60405180910390fd5b600560003373ffffffffffffffffffffffffffffffffffffffff1673ffffffffffffffffffffffffffffffffffffffff16815260200190815260200160002034908060018154018082558091505060019003906000526020600020016000909190919091505560036000876001811115610c28577f4e487b7100000000000000000000000000000000000000000000000000000000600052602160045260246000fd5b6001811115610c60577f4e487b7100000000000000000000000000000000000000000000000000000000600052602160045260246000fd5b81526020019081526020016000206040518060e001604052806001548152602001868152602001878152602001886001811115610cc6577f4e487b7100000000000000000000000000000000000000000000000000000000600052602160045260246000fd5b815260200185815260200184815260200183815250908060018154018082558091505060019003906000526020600020906007020160009091909190915060008201518160000155602082015181600101556040820151816002015560608201518160030160006101000a81548160ff02191690836001811115610d73577f4e487b7100000000000000000000000000000000000000000000000000000000600052602160045260246000fd5b02179055506080820151816004019080519060200190610d949291906113ab565b5060a0820151816005019080519060200190610db19291906113ab565b5060c0820151816006019080519060200190610dce9291906113ab565b50505060016000815480929190610de490611ccf565b91905055507f8d4de5461f46f97f6ad31c75d7597672c93e8c2b584c75fa09fb0ad9e5097a8360405160405180910390a1505050505050565b606060036000836001811115610e5c577f4e487b7100000000000000000000000000000000000000000000000000000000600052602160045260246000fd5b6001811115610e94577f4e487b7100000000000000000000000000000000000000000000000000000000600052602160045260246000fd5b8152602001908152602001600020805480602002602001604051908101604052809291908181526020016000905b8282101561114f57838290600052602060002090600702016040518060e00160405290816000820154815260200160018201548152602001600282015481526020016003820160009054906101000a900460ff166001811115610f4e577f4e487b7100000000000000000000000000000000000000000000000000000000600052602160045260246000fd5b6001811115610f86577f4e487b7100000000000000000000000000000000000000000000000000000000600052602160045260246000fd5b8152602001600482018054610f9a90611c6c565b80601f0160208091040260200160405190810160405280929190818152602001828054610fc690611c6c565b80156110135780601f10610fe857610100808354040283529160200191611013565b820191906000526020600020905b815481529060010190602001808311610ff657829003601f168201915b5050505050815260200160058201805461102c90611c6c565b80601f016020809104026020016040519081016040528092919081815260200182805461105890611c6c565b80156110a55780601f1061107a576101008083540402835291602001916110a5565b820191906000526020600020905b81548152906001019060200180831161108857829003601f168201915b505050505081526020016006820180546110be90611c6c565b80601f01602080910402602001604051908101604052809291908181526020018280546110ea90611c6c565b80156111375780601f1061110c57610100808354040283529160200191611137565b820191906000526020600020905b81548152906001019060200180831161111a57829003601f168201915b50505050508152505081526020019060010190610ec2565b505050509050919050565b611162611252565b73ffffffffffffffffffffffffffffffffffffffff16611180610b14565b73ffffffffffffffffffffffffffffffffffffffff16146111d6576040517f08c379a00000000000000000000000000000000000000000000000000000000081526004016111cd90611a45565b60405180910390fd5b600073ffffffffffffffffffffffffffffffffffffffff168173ffffffffffffffffffffffffffffffffffffffff161415611246576040517f08c379a000000000000000000000000000000000000000000000000000000000815260040161123d90611a05565b60405180910390fd5b61124f8161125a565b50565b600033905090565b60008060009054906101000a900473ffffffffffffffffffffffffffffffffffffffff169050816000806101000a81548173ffffffffffffffffffffffffffffffffffffffff021916908373ffffffffffffffffffffffffffffffffffffffff1602179055508173ffffffffffffffffffffffffffffffffffffffff168173ffffffffffffffffffffffffffffffffffffffff167f8be0079c531659141344cd1fd0a4f28419497f9722a3daafe3b4186f6b6457e060405160405180910390a35050565b82805461132a90611c6c565b90600052602060002090601f01602090048101928261134c576000855561139a565b82601f1061135d578054855561139a565b8280016001018555821561139a57600052602060002091601f016020900482015b8281111561139957825482559160010191906001019061137e565b5b5090506113a79190611431565b5090565b8280546113b790611c6c565b90600052602060002090601f0160209004810192826113d95760008555611420565b82601f106113f257805160ff1916838001178555611420565b82800160010185558215611420579182015b8281111561141f578251825591602001919060010190611404565b5b50905061142d9190611431565b5090565b5b8082111561144a576000816000905550600101611432565b5090565b600061146161145c84611ac5565b611aa0565b90508281526020810184848401111561147957600080fd5b611484848285611c2a565b509392505050565b60008135905061149b81611ec3565b92915050565b6000813590506114b081611eda565b92915050565b600082601f8301126114c757600080fd5b81356114d784826020860161144e565b91505092915050565b6000813590506114ef81611eea565b92915050565b60008151905061150481611eea565b92915050565b60006020828403121561151c57600080fd5b600061152a8482850161148c565b91505092915050565b60006020828403121561154557600080fd5b6000611553848285016114a1565b91505092915050565b6000806040838503121561156f57600080fd5b600061157d858286016114a1565b925050602061158e858286016114e0565b9150509250929050565b60008060008060008060c087890312156115b157600080fd5b60006115bf89828a016114a1565b96505060206115d089828a016114e0565b95505060406115e189828a016114e0565b945050606087013567ffffffffffffffff8111156115fe57600080fd5b61160a89828a016114b6565b935050608087013567ffffffffffffffff81111561162757600080fd5b61163389828a016114b6565b92505060a087013567ffffffffffffffff81111561165057600080fd5b61165c89828a016114b6565b9150509295509295509295565b60006020828403121561167b57600080fd5b6000611689848285016114f5565b91505092915050565b600061169e8383611887565b905092915050565b60006116b283836118de565b905092915050565b6116c381611bc9565b82525050565b60006116d482611b16565b6116de8185611b51565b9350836020820285016116f085611af6565b8060005b8581101561172c578484038952815161170d8582611692565b945061171883611b37565b925060208a019950506001810190506116f4565b50829750879550505050505092915050565b600061174982611b21565b6117538185611b62565b93508360208202850161176585611b06565b8060005b858110156117a1578484038952815161178285826116a6565b945061178d83611b44565b925060208a01995050600181019050611769565b50829750879550505050505092915050565b6117bc81611c18565b82525050565b60006117cd82611b2c565b6117d78185611b73565b93506117e7818560208601611c39565b6117f081611dd4565b840191505092915050565b6000611808602683611b84565b915061181382611de5565b604082019050919050565b600061182b600e83611b84565b915061183682611e34565b602082019050919050565b600061184e602083611b84565b915061185982611e5d565b602082019050919050565b6000611871601483611b84565b915061187c82611e86565b602082019050919050565b600060608301600083015161189f60008601826117b3565b50602083015184820360208601526118b782826117c2565b915050604083015184820360408601526118d182826117c2565b9150508091505092915050565b600060e0830160008301516118f66000860182611988565b5060208301516119096020860182611988565b50604083015161191c6040860182611988565b50606083015161192f60608601826117b3565b506080830151848203608086015261194782826117c2565b91505060a083015184820360a086015261196182826117c2565b91505060c083015184820360c086015261197b82826117c2565b9150508091505092915050565b61199181611c0e565b82525050565b6119a081611c0e565b82525050565b60006020820190506119bb60008301846116ba565b92915050565b600060208201905081810360008301526119db81846116c9565b905092915050565b600060208201905081810360008301526119fd818461173e565b905092915050565b60006020820190508181036000830152611a1e816117fb565b9050919050565b60006020820190508181036000830152611a3e8161181e565b9050919050565b60006020820190508181036000830152611a5e81611841565b9050919050565b60006020820190508181036000830152611a7e81611864565b9050919050565b6000602082019050611a9a6000830184611997565b92915050565b6000611aaa611abb565b9050611ab68282611c9e565b919050565b6000604051905090565b600067ffffffffffffffff821115611ae057611adf611da5565b5b611ae982611dd4565b9050602081019050919050565b6000819050602082019050919050565b6000819050602082019050919050565b600081519050919050565b600081519050919050565b600081519050919050565b6000602082019050919050565b6000602082019050919050565b600082825260208201905092915050565b600082825260208201905092915050565b600082825260208201905092915050565b600082825260208201905092915050565b6000611ba082611c0e565b9150611bab83611c0e565b925082821015611bbe57611bbd611d18565b5b828203905092915050565b6000611bd482611bee565b9050919050565b6000819050611be982611eaf565b919050565b600073ffffffffffffffffffffffffffffffffffffffff82169050919050565b6000819050919050565b6000611c2382611bdb565b9050919050565b82818337600083830152505050565b60005b83811015611c57578082015181840152602081019050611c3c565b83811115611c66576000848401525b50505050565b60006002820490506001821680611c8457607f821691505b60208210811415611c9857611c97611d76565b5b50919050565b611ca782611dd4565b810181811067ffffffffffffffff82111715611cc657611cc5611da5565b5b80604052505050565b6000611cda82611c0e565b91507fffffffffffffffffffffffffffffffffffffffffffffffffffffffffffffffff821415611d0d57611d0c611d18565b5b600182019050919050565b7f4e487b7100000000000000000000000000000000000000000000000000000000600052601160045260246000fd5b7f4e487b7100000000000000000000000000000000000000000000000000000000600052602160045260246000fd5b7f4e487b7100000000000000000000000000000000000000000000000000000000600052602260045260246000fd5b7f4e487b7100000000000000000000000000000000000000000000000000000000600052604160045260246000fd5b6000601f19601f8301169050919050565b7f4f776e61626c653a206e6577206f776e657220697320746865207a65726f206160008201527f6464726573730000000000000000000000000000000000000000000000000000602082015250565b7f506c61636520636f6d706c657465000000000000000000000000000000000000600082015250565b7f4f776e61626c653a2063616c6c6572206973206e6f7420746865206f776e6572600082015250565b7f56616c7565206973206e6f742031206574686572000000000000000000000000600082015250565b60028110611ec057611ebf611d47565b5b50565b611ecc81611bc9565b8114611ed757600080fd5b50565b60028110611ee757600080fd5b50565b611ef381611c0e565b8114611efe57600080fd5b5056fea26469706673582212207122a8e360739e014f0526822081451586074d4be1cfb5140ba2f4847154d86364736f6c63430008040033",
  "linkReferences": {},
  "deployedLinkReferences": {}
}